:020000040800F2
:1000000088060020CD010008D5010008D7010008AE
:10001000D9010008DB010008DD0100080000000034
:10002000000000000000000000000000DF010008E8
:10003000E101000800000000E3010008E5010008FC
:10004000E7010008E7010008E7010008E7010008F0
:10005000E7010008E7010008E7010008E7010008E0
:10006000E7010008E7010008E7010008E7010008D0
:10007000E7010008E7010008E7010008E7010008C0
:10008000E7010008E7010008E7010008E7010008B0
:10009000E7010008E7010008E7010008E7010008A0
:1000A000E7010008E7010008E7010008E701000890
:1000B000E7010008E7010008E7010008E701000880
:1000C000E7010008E7010008E7010008E701000870
:1000D000E7010008E7010008E7010008E701000860
:1000E000E7010008E7010008E7010008E701000850
:1000F000E7010008E7010008E7010008E701000840
:10010000E7010008E7010008E7010008E70100082F
:10011000E7010008E7010008E7010008E70100081F
:10012000E7010008E7010008E7010008E70100080F
:1001300000F002F800F03AF80AA090E8000C8244BF
:100140008344AAF10107DA4501D100F02FF8AFF29C
:10015000090EBAE80F0013F0010F18BFFB1A43F0A5
:10016000010318471C1702003C170200103A24BF75
:1001700078C878C1FAD8520724BF30C830C144BF0C
:1001800004680C607047000000230024002500264E
:10019000103A28BF78C1FBD8520728BF30C148BFEA
:1001A0000B6070471FB51FBD10B510BD01F03BFDC2
:1001B0001146FFF7F7FF00F029F801F059FD03B4ED
:1001C000FFF7F2FF03BC01F05DFD00000948804726
:1001D00009480047FEE7FEE7FEE7FEE7FEE7FEE729
:1001E000FEE7FEE7FEE7FEE704480549054A064B41
:1001F000704700001F1B0008310100088800002024
:1002000088060020880200208802002008B500F03F
:100210004AFE4FF6FF70F0231A4600210090084670
:1002200000F04EF807E00448F0231A460021009041
:10023000084600F07CFDF6E76C1E000800E0401E5A
:100240000028FCD17047014642F228324A434FF061
:10025000E0235A6100229A6101221A6100BF4FF027
:10026000E022106900F001021AB100F48032002A85
:10027000F5D000224FF0E0231A619A6170470146E1
:1002800018E009224FF0E0235A6100229A6101220E
:100290001A6100BF4FF0E022106900F001021AB1AC
:1002A00000F48032002AF5D000224FF0E0231A61DA
:1002B0009A6100BF0800A1F10101E2D1704700007E
:1002C0002DE9F04706460F4614461D46DDF820A0EE
:1002D000681E83B2601E82B23946304600F0C6FD09
:1002E000B8460EE0B14606E0504600F0A8FD09F120
:1002F00001001FFA80F9A145F6DB08F101001FFAA1
:1003000080F8A845EEDBBDE8F08770B504460D46E1
:1003100016462B4622462946204600F0A7FD3046C9
:1003200000F08DFD70BD2DE9FF4F85B081468A46F6
:100330000020039083460798A0EB09050898A0EBDE
:100340000A06CDF80890CDF804A0002D01DD0127A4
:1003500005E00DB9002702E04FF0FF376D42002E97
:1003600002DD4FF0010806E016B94FF0000802E088
:100370004FF0FF387642B54201DD2C4600E03446AE
:10038000002004901EE0019A91B2029A90B2129A53
:10039000FFF7BBFF039828440390B3440398A0429F
:1003A00005DD0398001B0390029838440290A34592
:1003B00004DDABEB040B0198404401900498401C11
:1003C00080B20490611C04988842DCDB09B0BDE86F
:1003D000F08F2DE9F84305460E4617469846089CCF
:1003E00033463A46314628460094FFF79CFF434681
:1003F0002A46314628460094FFF795FF43463A4681
:10040000414628460094FFF78EFF43463A46314660
:1004100038460094FFF787FFBDE8F8832DE9F047E1
:1004200006460F46904699460025444641E07A1B11
:1004300091B2321B90B24A46FFF767FF7A1B91B226
:10044000321990B24A46FFF760FF3A1991B2721B17
:1004500090B24A46FFF759FF3A1B91B2721B90B215
:100460004A46FFF752FF7A1991B2321990B24A46C2
:10047000FFF74BFF3A1B91B2721990B24A46FFF751
:1004800044FF3A1991B2721990B24A46FFF73DFF04
:100490007A1991B2321B90B24A46FFF736FF6D1CB3
:1004A00005FB05F004FB040108FB08F0814200DDB8
:1004B000641EA542BBDDBDE8F0872DE9FF5F06465F
:1004C000894692469B460F9C00200390009620464A
:1004D000E21704EB5272D2102146E31704EB537378
:1004E000DB10A4EBC3030BB1012300E000231A448B
:1004F000624392B2019204200290002571E005EB64
:100500008510FA4911F810009AF80010884265D158
:1005100005EB8510F54901EB400040789AF8011091
:1005200088425BD109EB0400401E83B23019401EA3
:1005300082B24946304600F099FC00274BE04FF06C
:10054000000842E01098F8B905EB8510E74901EB87
:100550004000801CC05D012101FA08F1084018B17B
:10056000584600F06CFC02E00E9800F068FC03981E
:10057000401CC0B20390039890FBF4F104FB1100FF
:10058000F8B90020039023E005EB8510D74901EB73
:100590004000801CC05D012101FA08F1084020B133
:1005A0005A4649463046FFF7B0FE701C86B20098A6
:1005B000301AA04205D1009E09F101001FFA80F90E
:1005C00006E008F1010000F0FF08B8F1080FB9DB00
:1005D00000BF781CC7B201988742B0DB00BF681C1F
:1005E00085B2029885428ADBBDE8FF9F2DE9FF5F57
:1005F0000646894692469B460F9C00200390009633
:100600002046E21704EB5272D2102146E31704EBA6
:100610005373DB10A4EBC3030BB1012300E00023F1
:100620001A44624392B2019204200290002579E0BC
:1006300005EB850000EB4510AD4911F810009AF864
:10064000001088426BD105EB850000EB4510A849EE
:1006500001EB400040789AF8011088425FD109EB25
:100660000400401E83B23019401E82B24946304613
:1006700000F0FCFB00274FE04FF0000846E0109828
:1006800008BB05EB850000EB4510994901EB4000E4
:10069000801CC05D012101FA08F1084018B15846DC
:1006A00000F0CDFB02E00E9800F0C9FB0398401C5F
:1006B000C0B20390039890FBF4F104FB110008BB57
:1006C0000020039025E005EB850000EB45108849EC
:1006D00001EB4000801CC05D012101FA08F10840D7
:1006E00020B15A4649463046FFF70FFE701C86B2CD
:1006F0000098301AA04205D1009E09F101001FFAAE
:1007000080F906E008F1010000F0FF08B8F1080FD9
:10071000B5DB00BF781CC7B201988742ACDB00BFD5
:10072000681C85B20298854282DBBDE8FF9F2DE9F7
:10073000FF5F0646894692469B460F9C0020039029
:1007400000962046E21704EB5272D2102146E317BE
:1007500004EB5373DB10A4EBC3030BB1012300E0E4
:1007600000231A44624392B20192042002900025B1
:1007700071E005EB05105F4911F810009AF80010C0
:10078000884265D105EB05105A4901EB40004078DD
:100790009AF8011088425BD109EB0400401E83B235
:1007A0003019401E82B24946304600F05FFB0027F8
:1007B0004BE04FF0000842E01098F8B905EB051047
:1007C0004C4901EB4000801CC05D012101FA08F199
:1007D000084018B1584600F032FB02E00E9800F0D5
:1007E0002EFB0398401CC0B20390039890FBF4F1D9
:1007F00004FB1100F8B90020039023E005EB05107D
:100800003C4901EB4000801CC05D012101FA08F168
:10081000084020B15A4649463046FFF776FD701C25
:1008200086B20098301AA04205D1009E09F101005D
:100830001FFA80F906E008F1010000F0FF08B8F1A6
:10084000080FB9DB00BF781CC7B201988742B0DB44
:1008500000BF681C85B2029885428ADBBDE8FF9F15
:100860002DE9FF5F0646894692469B460F9C002075
:10087000039000962046E21704EB5272D2102146F4
:10088000E31704EB5373DB10A4EBC3030BB1012399
:1008900000E000231A44624392B2019204200290C5
:1008A000002581E005EB850000EBC500124911F839
:1008B00010009AF80010884273D105EB850000EB18
:1008C000C5000D4901EB400040789AF801108842BC
:1008D00067D109EB0400401E83B23019401E82B27A
:1008E0004946304600F0C2FA002757E07816020861
:1008F00050150208C8140208601402084FF00008DE
:1009000046E0109808BB05EB850000EBC500FE49EA
:1009100001EB4000801CC05D012101FA08F1084094
:1009200018B1584600F08BFA02E00E9800F087FAF2
:100930000398401CC0B20390039890FBF4F104FBB1
:10094000110008BB0020039025E005EB850000EBBB
:10095000C500ED4901EB4000801CC05D012101FA9A
:1009600008F1084020B15A4649463046FFF7CDFC11
:10097000701C86B20098301AA04205D1009E09F181
:1009800001001FFA80F906E008F1010000F0FF08FD
:10099000B8F1080FB5DB00BF781CC7B201988742D9
:1009A000ACDB00BF681C85B202988542FFF67AAFC7
:1009B000BDE8FF9F2DE9FE4F8046894617469A46BF
:1009C000DDE90D460C9D36E00C2C09D153463A4624
:1009D00049464046CDE901460095FFF741FF25E035
:1009E000102C09D153463A4649464046CDE90146C6
:1009F0000095FFF79CFE19E0182C09D153463A46A2
:100A000049464046CDE901460095FFF7EFFD0DE070
:100A1000202C09D153463A4649464046CDE9014685
:100A20000095FFF74AFD01E0BDE8FE8FBF1C08EB13
:100A300004001FFA80F838780028C5D100BFF3E71A
:100A40002DE9FF5F80468A4617469B460F9D002092
:100A50000290CDF80080284605EBD071C1F3470421
:100A60002046E21704EB5272D2102146E31704EB42
:100A70005373DB10A4EBC3030BB1012300E000238D
:100A80001A446A4392B20192A7F12000C7B20AEB5E
:100A90000500401E83B208EB0400401E82B251469E
:100AA000404600F0E3F9002669E00C2D07D107EB82
:100AB0004700964901EB8000805D03901BE0102DFC
:100AC00005D1934800EB0710805D039013E0182DCB
:100AD00007D107EB47008F4901EB0010805D0390C1
:100AE00009E0202D05D18C4800EB8710805D039034
:100AF00001E0BDE8FF9F4FF000093AE01098C8B947
:100B0000012000FA09F00399084018B1584600F096
:100B100096F902E00E9800F092F90298401CC0B2DB
:100B20000290029890FBF4F104FB1100E8B9002058
:100B3000029021E0012000FA09F00399084020B159
:100B40005A4651464046FFF7E0FB08F101001FFA04
:100B500080F80098A8EB0000A04206D1DDF80080E4
:100B60000AF101001FFA80FA06E009F1010000F025
:100B7000FF09B9F1080FC1DB00BF701C86B20198F4
:100B8000864292DB00BFB4E72DE9FE4F06460F46D2
:100B900014469846DDE90D5ADDF8309010E0CDE9B5
:100BA000015ACDF800902278434639463046FFF787
:100BB00047FF284605EBD07106EB61018EB2641C3D
:100BC00020780028EBD1BDE8FE8F10B50246012049
:100BD00000E050430B00A1F10104E1B2F9D110BDD6
:100BE0002DE9FF4F85B0074691461D46DDE913A666
:100BF00000200490304606EBD071C1F3470B00246F
:100C000034E0281B401EC1B20A20FFF7DEFFB9FB0B
:100C1000F0F00A21B0FBF1F201FB12080498A0B930
:100C2000681EA04211DDB8F1000F0CD1002004FBBA
:100C30000B71CDE900A6029088B22022129B069982
:100C4000FFF7FEFE10E001200490002008F13001C3
:100C5000CAB204FB0B71CDE900A6029088B2129BC8
:100C60000699FFF7EDFE00BF601CC4B2AC42C8DBC2
:100C700009B0BDE8F08F2DE9FF4F85B007469046DB
:100C80001C46DDE91396304606EBD071C1F3470BE5
:100C90002249404601F01EF8039000F0FBFF80B2AD
:100CA000049000253EE0601B401EC1B20A20FFF701
:100CB0008CFF0499B1FBF0F00A21B0FBF1F201FBCB
:100CC000120AA01EA84210D10020A11E01FB0B7128
:100CD000CDE90096029088B22E22129B0699FFF76A
:100CE000AFFE681CC5B2601CC4B200200AF130011E
:100CF000CAB205FB0B71CDE90096029088B2129B37
:100D00000699FFF79DFE0BE0601402086CE00108F5
:100D1000E0E40108D0EA0108A0FC01080000C84294
:100D2000681CC5B2A542BEDB09B0BDE8F08F2DE955
:100D3000F05F0746884615461E46DDF828900024D9
:100D400008EB0600401E83B27819401E82B241466D
:100D5000384600F08BF8A24618E04FF0000B0FE089
:100D600019F8140000F065F8012101EB440119F8AD
:100D7000010000F05EF8641C0BF101001FFA80FB1B
:100D8000B345EDDB0AF101001FFA80FAAA45E4DB66
:100D9000BDE8F09F08B501210C2000F0EDFDF0202A
:100DA000ADF8000010208DF8030003208DF802003C
:100DB0006946FE4800F024FBF021FC4800F0CDFB22
:100DC000C020ADF8000010208DF8030003208DF83E
:100DD00002006946F64800F013FBC021F44800F019
:100DE000BCFB08BD70B504464021F14800F0B7FBDC
:100DF000002517E02021ED4800F0B1FB04F0800051
:100E000020B11021E94800F0A8FB03E01021E748D9
:100E100000F0A5FB2021E54800F09FFB6006040ED2
:100E2000681CC5B2082DE5DB4021E14800F095FBC8
:100E300070BD10B504462046FFF7D4FF10BD10B5B5
:100E400004462012FFF7CEFFE0B2FFF7CBFF10BD44
:100E500010B504468021D54800F081FB2046FFF7FD
:100E6000C1FF8021D14800F078FB10BD2DE9F04191
:100E700007460C4615461E462A20FFF7E9FF38466E
:100E8000FFF7DDFF2846FFF7DAFF2B20FFF7E0FF33
:100E90002046FFF7D4FF3046FFF7D1FF2C20FFF7A5
:100EA000D7FFBDE8F08110B5FFF774FF4021BF48C0
:100EB00000F055FB6420FFF7C6F94021BB4800F065
:100EC0004CFB6420FFF7BFF98021B94800F045FBD7
:100ED0006420FFF7B8F9EF20FFF7BAFFEB20FFF728
:100EE000B7FF1420FFF7A5FFFE20FFF7B1FFEF20AB
:100EF000FFF7AEFFEB20FFF7ABFF1420FFF799FFE2
:100F00008420FFF7A5FF4020FFF793FF8520FFF720
:100F10009FFFFF20FFF78DFF8620FFF799FFFF203F
:100F2000FFF787FF8720FFF793FFFF20FFF781FF81
:100F30008820FFF78DFF0A20FFF77BFF8920FFF74E
:100F400087FF2120FFF775FF8A20FFF781FF002030
:100F5000FFF76FFF8B20FFF77BFF8020FFF769FF14
:100F60008C20FFF775FF0120FFF763FF8D20FFF74F
:100F70006FFF0120FFF75DFF8E20FFF769FFFF2065
:100F8000FFF757FF8F20FFF763FFFF20FFF751FFA9
:100F9000B620FFF75DFF0020FFF74BFF2020FFF793
:100FA00048FF3620FFF754FF0820FFF742FF3A20A2
:100FB000FFF74EFF0520FFF73CFF9020FFF748FFAB
:100FC0000820FFF736FF0820FFF733FF0820FFF760
:100FD00030FF0820FFF72DFFBD20FFF739FF062067
:100FE000FFF727FFBC20FFF733FF0020FFF721FFAB
:100FF000FF20FFF72DFF6020FFF71BFF0120FFF709
:1010000018FF0420FFF715FFC320FFF721FF13206F
:10101000FFF70FFFC420FFF71BFF1320FFF709FFA7
:10102000C920FFF715FF2220FFF703FFBE20FFF7BF
:101030000FFF1120FFF7FDFEE120FFF709FF102051
:10104000FFF7F7FE0E20FFF7F4FEDF20FFF700FFAB
:101050002120FFF7EEFE0C20FFF7EBFE0220FFF74A
:10106000E8FEF020FFF7F4FE4520FFF7E2FE09203E
:10107000FFF7DFFE0820FFF7DCFE0820FFF7D9FEB0
:101080002620FFF7D6FE2A20FFF7D3FEF120FFF738
:10109000DFFE4320FFF7CDFE7020FFF7CAFE72206F
:1010A000FFF7C7FE3620FFF7C4FE3720FFF7C1FE6B
:1010B0006F20FFF7BEFEF220FFF7CAFE4520FFF7C4
:1010C000B8FE0920FFF7B5FE0820FFF7B2FE0820A2
:1010D000FFF7AFFE2620FFF7ACFE2A20FFF7A9FEA0
:1010E000F320FFF7B5FE4320FFF7A3FE7020FFF7C4
:1010F000A0FE7220FFF79DFE3620FFF79AFE3720F4
:10110000FFF797FE6F20FFF794FEED20FFF7A0FE9C
:101110001B20FFF78EFE0B20FFF78BFEAE20FFF7A4
:1011200097FE7720FFF785FECD20FFF791FE632025
:10113000FFF77FFE7020FFF78BFE0720FFF779FE99
:101140000720FFF776FE0420FFF773FE0E20FFF75F
:1011500070FE0F20FFF76DFE0920FFF76AFE0720E3
:10116000FFF767FE0820FFF764FE0320FFF761FE2C
:10117000E820FFF76DFE3420FFF75BFE6220FFF7EB
:1011800067FE1820FFF755FE0D20FFF752FE712075
:10119000FFF74FFEED20FFF74CFE7020FFF749FEF2
:1011A0007020FFF746FE182004E000000008014010
:1011B000000C0140FFF73DFE0F20FFF73AFE7120C3
:1011C000FFF737FEEF20FFF734FE7020FFF731FE08
:1011D0007020FFF72EFE6320FFF73AFE1820FFF77E
:1011E00028FE1120FFF725FE7120FFF722FEF120D7
:1011F000FFF71FFE7020FFF71CFE7020FFF719FE9F
:101200001820FFF716FE1320FFF713FE7120FFF7DB
:1012100010FEF320FFF70DFE7020FFF70AFE70208E
:10122000FFF707FE6420FFF713FE2820FFF701FEFB
:101230002920FFF7FEFDF120FFF7FBFD0120FFF75E
:10124000F8FDF120FFF7F5FD0020FFF7F2FD072084
:10125000FFF7EFFD6620FFF7FBFD3C20FFF7E9FD00
:101260000020FFF7E6FDCD20FFF7E3FD6720FFF745
:10127000E0FD4520FFF7DDFD4520FFF7DAFD1020FA
:10128000FFF7D7FD0020FFF7D4FD0020FFF7D1FDC9
:101290000020FFF7CEFD6720FFF7DAFD0020FFF703
:1012A000C8FD3C20FFF7C5FD0020FFF7C2FD002070
:1012B000FFF7BFFD0020FFF7BCFD0120FFF7B9FDE0
:1012C0005420FFF7B6FD1020FFF7B3FD3220FFF7E3
:1012D000B0FD9820FFF7ADFD7420FFF7B9FD102099
:1012E000FFF7A7FD8520FFF7A4FD8020FFF7A1FDF4
:1012F0000020FFF79EFD0020FFF79BFD4E20FFF72B
:1013000098FD0020FFF795FD9820FFF7A1FD3E20F6
:10131000FFF78FFD0720FFF78CFD3520FFF798FDC5
:101320002120FFF795FD1120FFF792FD7820FEF7B1
:101330008AFF2920FFF78CFD1420FEF784FF10BDE3
:1013400010B50446CC48844208D10121042000F0A5
:101350002DFB0021042000F029FB46E0C748844211
:1013600008D10121082000F021FB0021082000F015
:101370001DFB3AE0C248844208D10121102000F050
:1013800015FB0021102000F011FB2EE0BD48844227
:1013900008D10121202000F009FB0021202000F0CD
:1013A00005FB22E0B848844208D10121402000F02A
:1013B000FDFA0021402000F0F9FA16E0B34884421B
:1013C00008D10121802000F0F1FA0021802000F0F6
:1013D000EDFA0AE0AE48844207D10121801500F001
:1013E000E5FA0021A01500F0E1FA10BD10B50121C9
:1013F000084600F0DBFA0021012000F0D7FA10BD0A
:101400002DE9F0410246002500260020002300249B
:10141000002791F803C00CF00F0591F803C00CF001
:10142000100CBCF1000F03D091F802C04CEA050586
:1014300091F800C0BCF1000F31D0146800202BE0FF
:101440004FF0010C0CFA00F3B1F800C00CEA0306EF
:101450009E4220D183004FF00F0C0CFA03F7BC43DF
:1014600005FA03FC4CEA040491F803C0BCF1280F10
:1014700006D14FF0010C0CFA00FCC2F814C00AE0CF
:1014800091F803C0BCF1480F05D14FF0010C0CFAE4
:1014900000FCC2F810C0401C0828D1D31460B1F879
:1014A00000C0BCF1FF0F34DD546800202EE000F1D5
:1014B000080C4FF0010808FA0CF3B1F800C00CEA70
:1014C00003069E4221D183004FF00F0C0CFA03F764
:1014D000BC4305FA03FC4CEA040491F803C0BCF1D8
:1014E000280F05D100F1080C08FA0CF8C2F8148096
:1014F00091F803C0BCF1480F07D100F1080C4FF080
:10150000010808FA0CF8C2F81080401C0828CED355
:101510005460BDE8F0814FF6FF71018002218170B7
:101520000421C17070470246002093680B400BB144
:10153000012000E0002070470146886880B27047B3
:1015400002460020D3680B400BB1012000E00020D0
:1015500070470146C86880B27047016170474161B9
:1015600070470AB1016100E041617047C160704796
:101570004FF480320A4382618161826182698269AB
:10158000704702460020434B18684FF6807318409E
:1015900040EA021008433F4B186070473E49C8615B
:1015A0007047F0B50A46002300240021002500F012
:1015B0000046B6F1004F02D1364EF16901E0354EDA
:1015C0007168C0F3034583B200F44016B6F5401FBE
:1015D00008D121F070612F4E766826F070662D4F8D
:1015E0007E6012E000F48016B6F5801F06D1032657
:1015F00006FA05F4A14341F0706106E0460D36019C
:1016000003FA06F6B14341F0706122B1460D36018E
:1016100003FA06F6314300F00046B6F1004F02D15E
:101620001C4EF16101E01B4E7160F0BD30B500222F
:101630008B071C0F0F2303FA04F2164B08338C1090
:1016400053F824309343134C08348D1044F825305C
:1016500023468C1053F824308C07240F00FA04F42E
:1016600023430C4C08348D1044F8253030BD0A4912
:10167000DC3108607047000000080140000C0140A8
:10168000001001400014014000180140001C0140FE
:10169000002001400000014000002042DF480068B7
:1016A00040F00100DD49086008464068DC49084018
:1016B000DA49486008460068DA490840D7490860B6
:1016C0000846006820F4802008600846406820F43E
:1016D000FE0048604FF41F0088607047CF490968DA
:1016E00021F48031CD4A11601146096821F480212E
:1016F0001160B0F5803F03D0B0F5802F0ED106E029
:10170000C649096841F48031C44A116007E0C34901
:10171000096841F4A021C14A116000E000BF00BF88
:10172000704710B501460022002300204A11012A0B
:1017300002D1BA4C236806E0022A02D1B74C236AD0
:1017400001E0B64C636A01F01F02012494401C4082
:101750000CB1012000E0002010BD38B50020009041
:101760000024002500BF3120FFF7DBFF054600986D
:10177000401C00900098B0F5A06F01D0002DF2D071
:101780003120FFF7CEFF08B1012400E000242046FD
:1017900038BD01460020A14A106820F0F80040EA58
:1017A000C10010607047A0490860704702460020E1
:1017B0009A4B586820F47C1042EA01031843974B77
:1017C0005860704798490866704701460020934A60
:1017D000506820F003000843506070478F4840680D
:1017E00000F00C007047014600208C4A506820F041
:1017F000F00008435060704701460020874A506857
:1018000020F4E06008435060704701460020834A9E
:10181000506820F4605040EAC1005060704729B120
:101820007E4A527A02437D4B5A7204E07B4A527AD6
:1018300082437A4B5A7270477B49D83108607047AF
:1018400001460020754A506820F44040084350602B
:1018500070470021714A20321170704A82F82010BE
:10186000012802D004280AD104E001216B4A203269
:10187000117005E00521694A2032117000E000BFB7
:1018800000BF70476949086070476449096A0143AD
:10189000624A11627047654944390860704730B543
:1018A00000210022002400235C4D6D6805F00C012E
:1018B00021B1042905D0082923D105E05C4D05603C
:1018C00022E05B4D05601FE0544D6D6805F4701219
:1018D000524D6D6805F48034022505EB92421CB927
:1018E000544D554305600BE04C4D6D6805F40035D3
:1018F0001DB1504D5543056002E04D4D5543056007
:1019000002E04B4D056000BF00BF444D6D6805F01F
:10191000F0010909484D6B5C0568DD4045603F4DAD
:101920006D6805F4E061090A434D6B5C4568DD4074
:1019300085603A4D6D6805F46051C90A3E4D6B5C97
:101940004568DD40C560354D6D6805F44041890B43
:101950003A4D6B5CC568B5FBF3F5056130BD29B147
:101960002E4A526902432D4B5A6104E02B4A5269B8
:1019700082432A4B5A61704729B1284A926902432F
:10198000264B9A6104E0254A92698243234B9A616F
:10199000704729B1214AD2690243204BDA6104E041
:1019A0001E4AD26982431D4BDA61704729B11B4A36
:1019B000D2680243194BDA6004E0184AD2688243C5
:1019C000164BDA60704729B1144A12690243134B6F
:1019D0001A6104E0114A12698243104B1A61704780
:1019E00012494039086070470F49C86470470B4975
:1019F000C87170470948406A40F0807007494862E2
:101A0000704701460020054A92680A400AB1012049
:101A100000E00020704701498872704700100240C2
:101A20000000FFF8FFFFF6FE000042428004424241
:101A300000127A0000093D00000000201000002084
:101A40000CB50020019000906C48006840F4803094
:101A50006A49086000BF6948006800F400300090DF
:101A60000198401C0190009818B90198B0F5A06F3A
:101A7000F1D16248006800F4003010B101200090FC
:101A800001E0002000900098012843D15C480068E4
:101A900040F010005A4908600846006820F0030032
:101AA00008600846006840F002000860534840683B
:101AB000524948600846406848600846406840F41B
:101AC000806048600846406820F47C104860084602
:101AD000406840F4E81048600846006840F08070B4
:101AE000086000BF4548006800F000700028F9D089
:101AF0004248406820F0030040494860084640687A
:101B000040F00200486000BF3C48406800F00C0014
:101B10000828F9D10CBD10B5FFF792FF10BD10B524
:101B20003648006840F001003449086008464068C3
:101B30003449084031494860084600683249084045
:101B40002E4908600846006820F480200860084696
:101B5000406820F4FE0048604FF41F008860FFF7E3
:101B6000DAFF4FF000602949086010BD10B5002170
:101B700000200022214B5B6803F00C0121B10429F5
:101B800006D0082928D107E0214B224C236027E00A
:101B90001F4B204C236023E0184B5B6803F470104C
:101BA000164B5B6803F48032022303EB904022B9AA
:101BB000194B4343174C23600DE0104B5B6803F453
:101BC000003323B1144B4343124C236003E0104B0A
:101BD0004343104C236003E00D4B0E4C236000BFC9
:101BE00000BF064B5B68C3F303130C4CE15C094B6D
:101BF0001B68CB40074C236010BD00000010024062
:101C0000002002400000FFF8FFFFF6FE08ED00E0B4
:101C100000127A001400002000093D001800002086
:101C2000704770477047754600F028F8AE460500CB
:101C30006946534620F00700854618B020B5FEF7E8
:101C4000D3FABDE820404FF000064FF000074FF0F8
:101C500000084FF0000B21F00701AC46ACE8C009CA
:101C6000ACE8C009ACE8C009ACE8C0098D467047D3
:101C70000446AFF300802046FEF7A1FA0048704703
:101C80002800002001491820ABBEFEE72600020014
:101C900070470000C10DD1F19E0206DB4FEA002320
:101CA00043F0004323FA02F07047004207D54FEAA1
:101CB0004001B1F1FE4F02D24FF00000704710B565
:101CC00000F089F849922480002070476FEA2000D4
:101CD000704700004FF47F0C1CEAD0121EBF1CEAB4
:101CE000D11392EA0C0F93EA0C0F00F0478090EAB0
:101CF000010F48BF42F480724FF0004C4CEA0020C4
:101D00004CEA012102EB0302A0FB0113A2F5000241
:101D1000002918BF43F001035B0028BF4FEA3303DB
:101D200042EB22425FEA132C4CEBC2502EBFBCEBBD
:101D3000436FB2F57C0F70474FEA036CBCF1004F64
:101D400008BF20F00100B2F57C0F38BF70470BD5FB
:101D500082F0FF0212F5803FC8BF704700F1C0401B
:101D6000D8BF00F00040704700F5000C5FEA4C0C53
:101D700048BF7047B0F1C04000F073B890EA010F5F
:101D80000CEAD11348BF42F48072624538BF634504
:101D900004D280EA010000F00040704710B500F066
:101DA0001AF800BF8900013E00F007B800F009B83A
:101DB0005FEA410C5FEA1C6C08D080EA010000F089
:101DC00050B85FEA400C5FEA1C6CF6D14FF000405F
:101DD000A0F5800070470EF1020E2EF0030E5EF8A3
:101DE000044B244204D44FEA4102B2F17F4F11D890
:101DF0004FEA4003B3F17F4F0CD80ED14FEAD07CAD
:101E0000B2F17F4F0CEB4C0C0CF1020C08BF4CEB09
:101E1000D17C04E04FF0080C01E04FEAD17C0CEBE0
:101E20004C0324FA03F404F00704B4F1040C06D2C2
:101E30000EEB840CBDE810404CF0010C6047DFE86D
:101E40000CF0070802024FF00040A0F5800010BD22
:101E50000846420018BFD2F1807288BF00F00040EF
:101E600010BDFF2141EAD050C0057047FFDFFFDF02
:101E7000FFDFFFFFFFFFFFDFFFDFFFDFFFDFFFBF52
:101E8000FFBEFFBFFFDFFFDFFFFFFFFFFFFFFFFF23
:101E9000FFFFFFFFFFFFFFFFFFFFFFFFFFFFFFFF52
:101EA000FFFFFFFFFFFFFFFFFFFFFFFFFFFFFFFF42
:101EB000FFFFFFFFFFFFFFFFFFFFFFFFFFFFFFFF32
:101EC000FFFFFFFFFFFFFFFFFFFFFFFFFFFFFFFF22
:101ED000FFFFFFFFFFFFFFFFFFFFFFFFFFFFFFFF12
:101EE000FFFFFFFFFFFFFFFFFFFFFFFFFFFFFFFF02
:101EF000FFFFFFFFFFFFFFFFFFFFFFFFFFFFFFFFF2
:101F0000FFFFFFFFFFFFFFFFFFFFFFFFFFFFFFFFE1
:101F1000FFFFFFFFFFFFFFFFFFFFFFFFFFFFFFFFD1
:101F2000FFFFFFFFFFFFFFFFFFFFFFFFFFFFFFFFC1
:101F3000FFFFFFFFFFFFFFFFFFFFFFFFFFFFFFFFB1
:101F4000FFFFFFFFFFFFFFFFFFFFFFFFFFFFFFFFA1
:101F5000FFFFFFFFFFFFFFFFFFFFFFFFFFFFFFFF91
:101F6000FFFFFFFFFFFFFFFFFFFFFFFFFFFFFFFF81
:101F7000FFFFFFFFFFFFFFFFFFFFFFFFFFFFFFFF71
:101F8000FFFFFFFFFFFFFFFFFFFFFFFFFFFFFFFF61
:101F9000FFFFFFFFFFFFFFFFFFFFFFFFFFFFFFFF51
:101FA000FFFFFFFFFFFFFFFFFFFFFFFFFFFFFFFF41
:101FB000FFFFFFFFFFFFFFFFFFFFFFFFFFFFFFFF31
:101FC000FFFFFFFFFFFFFFFFFFFFFFFFFFFFFFFF21
:101FD000FFFFFFFFFFFFFFFFFFFFFFFFFFFFFFFF11
:101FE000FFFFFFFFFFFFFFFFFFFFFFFFFFFFFFFF01
:101FF000FFFFFFFFFFFFFFFFFFFFFFFFFFFFFFFFF1
:10200000FFFFFFFFFFFFFFFFFFFFFFFFFFFFFFFFE0
:10201000FFFFFFFFFFFFFFFFFFDFFFFFFFFFFFFFF0
:10202000FFFFFFFFFFFFFFFFFFFFFFFFFFFFFFFFC0
:10203000FFFFFFFFFFFFFFFFFFFFFFFFFFFFFFDFD0
:10204000FFDFFFDFFFDFFFDFFFDFFFDFFFFFFFFF60
:10205000FFFFFFFFFFFFFFFFFFDFFFFFFFDFFFDFF0
:10206000FFDFFFDFFFDFFFFFFFFFFFFFFFFFFFFFE0
:10207000FFFFFFFFFFFFFFFFFFFFFFFFFFFFFFFF70
:10208000FFFFFFFFFFFFFFFFFFFFFFFFFFFFFFFF60
:10209000FFFFFFFFFFFFFFFFFFFFFFFFFFFFFFFF50
:1020A000FFFFFFFFFFFFFFFFFFFFFFFFFFFFFFFF40
:103C6000FFFFFFFFFFFFFFFFFFDFFFBEFFFFFFFFC5
:103C7000FFFFFFFFFFFFFFFFFFFFFFFFFFFFFFFF54
:103C8000FFFFFFFFFFFFFFFFFFFFFFFFFFFFFFFF44
:103C9000FFFFFFFFFFFFFFFFFFFFFFFFFFFFFFFF34
:103CA000FFFFFFFFFFFFFFFFFFFFFFFFFFFFFFFF24
:103CB000FFFFFFFFFFFFFFFFFFFFFFFFFFFFFFFF14
:103CC000FFFFFFFFFFFFFFFFFFFFFFFFFFFFFFFF04
:103CD000FFFFFFFFFFFFFFFFFFFFFFFFFFFFFFFFF4
:103CE000FFFFFFFFFFFFFFFFFFFFFFFFFFFFFFFFE4
:103CF000FFFFFFFFFFFFFFFFFFFFFFFFFFFFFFFFD4
:103D0000FFFFFFFFFFFFFFFFFFFFFFFFFFFFFFFFC3
:103D1000FFFFFFFFFFFFFFFFFFFFFFFFFFFFFFFFB3
:103D2000FFFFFFFFFFFFFFFFFFFFFFFFFFFFFFFFA3
:103D3000FFFFFFFFFFFFFFFFFFFFFFFFFFFFFFFF93
:103D4000FFFFFFFFFFFFFFFFFFFFFFFFFFFFFFFF83
:103D5000FFFFFFFFFFFFFFFFFFFFFFFFFFFFFFFF73
:103D6000FFFFFFFFFFFFFFFFFFFFFFFFFFFFFFFF63
:103D7000FFFFFFFFFFFFFFFFFFFFFFFFFFFFFFFF53
:103D8000FFFFFFFFFFFFFFFFFFFFFFFFFFFFFFFF43
:103D9000FFFFFFFFFFFFFFFFFFFFFFFFFFFFFFFF33
:103DA000FFFFFFFFFFFFFFFFFFFFFFFFFFFFFFFF23
:103DB000FFFFFFFFFFFFFFFFFFFFFFFFFFFFFFFF13
:103DC000FFFFFFFFFFFFFFFFFFFFFFFFFFFFFFFF03
:103DD000FFFFFFFFFFFFFFFFFFFFFFFFFFFFFFFFF3
:103DE000FFFFFFFFFFFFFFFFFFFFFFFFFFFFFFFFE3
:103DF000FFFFFFFFFFFFFFFFFFFFFFFFFFFFFFFFD3
:103E0000FFFFFFFFFFFFFFFFFFFFFFFFFFFFFFFFC2
:103E1000FFFFFFFFFFFFFFFFFFFFFFFFFFFFFFFFB2
:103E2000FFFFFFFFFFFFFFFFFFFFFFFFFFFFFFFFA2
:103E3000FFFFFFFFFFFFFFFFFFFFFFFFFFFFFFFF92
:103E4000FFFFFFFFFFFFFFFFFFDFFFBEFFFFFFFFE3
:103E5000FFFFFFFFFFFFFFFFFFFFFFFFFFFFFFFF72
:103E6000FFFFFFFFFFFFFFFFFFFFFFFFFFFFFFFF62
:103E7000FFFFFFFFFFFFFFFFFFFFFFFFFFFFFFFF52
:103E8000FFFFFFFFFFFFFFFFFFFFFFFFFFFFFFFF42
:103E9000FFFFFFFFFFFFFFFFFFFFFFFFFFFFFFFF32
:103EA000FFFFFFFFFFFFFFFFFFFFFFFFFFFFFFFF22
:103EB000FFFFFFFFFFFFFFFFFFFFFFFFFFFFFFFF12
:103EC000FFFFFFFFFFFFFFFFFFFFFFFFFFFFFFFF02
:103ED000FFFFFFFFFFFFFFFFFFFFFFFFFFFFFFFFF2
:103EE000FFFFFFFFFFFFFFFFFFFFFFFFFFFFFFFFE2
:103EF000FFFFFFFFFFFFFFFFFFFFFFFFFFFFFFFFD2
:103F0000FFFFFFFFFFFFFFFFFFFFFFFFFFFFFFFFC1
:103F1000FFFFFFFFFFFFFFFFFFFFFFFFFFFFFFFFB1
:103F2000FFFFFFFFFFFFFFFFFFFFFFFFFFFFFFFFA1
:103F3000FFFFFFFFFFFFFFFFFFFFFFFFFFFFFFFF91
:103F4000FFFFFFFFFFFFFFFFFFFFFFFFFFFFFFFF81
:103F5000FFFFFFFFFFFFFFFFFFFFFFFFFFFFFFFF71
:103F6000FFFFFFFFFFFFFFFFFFFFFFFFFFFFFFFF61
:103F7000FFFFFFFFFFFFFFFFFFFFFFFFFFFFFFFF51
:103F8000FFFFFFFFFFFFFFFFFFFFFFFFFFFFFFFF41
:103F9000FFFFFFFFFFFFFFFFFFFFFFFFFFFFFFFF31
:103FA000FFFFFFFFFFFFFFFFFFFFFFFFFFFFFFFF21
:103FB000FFFFFFFFFFFFFFFFFFFFFFFFFFFFFFFF11
:103FC000FFFFFFFFFFFFFFFFFFFFFFFFFFFFFFFF01
:103FD000FFFFFFFFFFFFFFFFFFFFFFFFFFFFFFFFF1
:103FE000FFFFFFFFFFFFFFFFFFFFFFFFFFFFFFFFE1
:103FF000FFFFFFFFFFFFFFFFFFFFFFFFFFFFFFFFD1
:10400000FFFFFFFFFFFFFFFFFFFFFFFFFFFFFFFFC0
:10401000FFFFFFFFFFFFFFFFFFFFFFFFFFFFFFFFB0
:10402000FFFFFFFFFFFFFFFFFFDFFF9EFFFFFFFF21
:10403000FFFFFFFFFFFFFFFFFFFFFFFFFFFFFFFF90
:10404000FFFFFFFFFFFFFFFFFFFFFFFFFFFFFFFF80
:10405000FFFFFFFFFFFFFFFFFFFFFFFFFFFFFFFF70
:10406000FFFFFFFFFFFFFFFFFFFFFFFFFFFFFFFF60
:10407000FFFFFFFFFFFFFFFFFFFFFFFFFFFFFFFF50
:10408000FFFFFFFFFFFFFFFFFFFFFFFFFFFFFFFF40
:10409000FFFFFFFFFFFFFFFFFFFFFFFFFFFFFFFF30
:1040A000FFFFFFFFFFFFFFFFFFFFFFFFFFFFFFFF20
:1040B000FFFFFFFFFFFFFFFFFFFFFFFFFFFFFFFF10
:1040C000FFFFFFFFFFFFFFFFFFFFFFFFFFFFFFFF00
:1040D000FFFFFFFFFFFFFFFFFFFFFFFFFFFFFFFFF0
:1040E000FFFFFFFFFFFFFFFFFFFFFFFFFFFFFFFFE0
:1040F000FFFFFFFFFFFFFFFFFFFFFFFFFFFFFFFFD0
:10410000FFFFFFFFFFFFFFFFFFFFFFFFFFFFFFFFBF
:10411000FFFFFFFFFFFFFFFFFFFFFFFFFFFFFFFFAF
:10412000FFFFFFFFFFFFFFFFFFFFFFFFFFFFFFFF9F
:10413000FFFFFFFFFFFFFFFFFFFFFFFFFFFFFFFF8F
:10414000FFFFFFFFFFFFFFFFFFFFFFFFFFFFFFFF7F
:10415000FFFFFFFFFFFFFFFFFFFFFFFFFFFFFFFF6F
:10416000FFFFFFFFFFFFFFFFFFFFFFFFFFFFFFFF5F
:10417000FFFFFFFFFFFFFFFFFFFFFFFFFFFFFFFF4F
:10418000FFFFFFFFFFFFFFFFFFFFFFFFFFFFFFFF3F
:10419000FFFFFFFFFFFFFFFFFFFFFFFFFFFFFFFF2F
:1041A000FFFFFFFFFFFFFFFFFFFFFFFFFFFFFFFF1F
:1041B000FFFFFFFFFFFFFFFFFFFFFFFFFFFFFFFF0F
:1041C000FFFFFFFFFFFFFFFFFFFFFFFFFFFFFFFFFF
:1041D000FFFFFFFFFFFFFFFFFFFFFFFFFFFFFFFFEF
:1041E000FFFFFFFFFFFFFFFFFFFFFFFFFFFFFFFFDF
:1041F000FFFFFFFFFFFFFFFFFFFFFFFFFFFFFFFFCF
:10420000FFFFFFFFFFFFFFFFFFDFFF9EFFFFFFFF3F
:10421000FFFFFFFFFFFFFFFFFFFFFFFFFFFFFFFFAE
:10422000FFFFFFFFFFFFFFFFFFFFFFFFFFFFFFFF9E
:10423000FFFFFFFFFFFFFFFFFFFFFFFFFFFFFFFF8E
:10424000FFFFFFFFFFFFFFFFFFFFFFFFFFFFFFFF7E
:10425000FFFFFFFFFFFFFFFFFFFFFFFFFFFFFFFF6E
:10426000FFFFFFFFFFFFFFFFFFFFFFFFFFFFFFFF5E
:10427000FFFFFFFFFFFFFFFFFFFFFFFFFFFFFFFF4E
:10428000FFFFFFFFFFFFFFFFFFFFFFFFFFFFFFFF3E
:10429000FFFFFFFFFFFFFFFFFFFFFFFFFFFFFFFF2E
:1042A000FFFFFFFFFFFFFFFFFFFFFFFFFFFFFFFF1E
:1042B000FFFFFFFFFFFFFFFFFFFFFFFFFFFFFFFF0E
:1042C000FFFFFFFFFFFFFFFFFFFFFFFFFFFFFFFFFE
:1042D000FFFFFFFFFFFFFFFFFFFFFFFFFFFFFFFFEE
:1042E000FFFFFFFFFFFFFFFFFFFFFFFFFFFFFFFFDE
:1042F000FFFFFFFFFFFFFFFFFFFFFFFFFFFFFFFFCE
:10430000FFFFFFFFFFFFFFFFFFFFFFFFFFFFFFFFBD
:10431000FFFFFFFFFFFFFFFFFFFFFFFFFFFFFFFFAD
:10432000FFFFFFFFFFFFFFFFFFFFFFFFFFFFFFFF9D
:10433000FFFFFFFFFFFFFFFFFFFFFFFFFFFFFFFF8D
:10434000FFFFFFFFFFFFFFFFFFFFFFFFFFFFFFFF7D
:10435000FFFFFFFFFFFFFFFFFFFFFFFFFFFFFFFF6D
:10436000FFFFFFFFFFFFFFFFFFFFFFFFFFFFFFFF5D
:10437000FFFFFFFFFFFFFFFFFFFFFFFFFFFFFFFF4D
:10438000FFFFFFFFFFFFFFFFFFFFFFFFFFFFFFFF3D
:10439000FFFFFFFFFFFFFFFFFFFFFFFFFFFFFFFF2D
:1043A000FFFFFFFFFFFFFFFFFFFFFFFFFFFFFFFF1D
:1043B000FFFFFFFFFFFFFFFFFFFFFFFFFFFFFFFF0D
:1043C000FFFFFFFFFFFFFFFFFFFFFFFFFFFFFFFFFD
:1043D000FFFFFFFFFFFFFFFFFFFFFFFFFFFFFFFFED
:1043E000FFFFFFFFFFFFFFFFFFDFFFBEFFFFFFFF3E
:1043F000FFFFFFFFFFFFFFFFFFFFFFFFFFFFFFFFCD
:10440000FFFFFFFFFFFFFFFFFFFFFFFFFFFFFFFFBC
:10441000FFFFFFFFFFFFFFFFFFFFFFFFFFFFFFFFAC
:10442000FFFFFFFFFFFFFFFFFFFFFFFFFFFFFFFF9C
:10443000FFFFFFFFFFFFFFFFFFFFFFFFFFFFFFFF8C
:10444000FFFFFFFFFFFFFFFFFFFFFFFFFFFFFFFF7C
:10445000FFFFFFFFFFFFFFFFFFFFFFFFFFFFFFFF6C
:10446000FFFFFFFFFFFFFFFFFFFFFFFFFFFFFFFF5C
:10447000FFFFFFFFFFFFFFFFFFFFFFFFFFFFFFFF4C
:10448000FFFFFFFFFFFFFFFFFFFFFFFFFFFFFFFF3C
:10449000FFFFFFFFFFFFFFFFFFFFFFFFFFFFFFFF2C
:1044A000FFFFFFFFFFFFFFFFFFFFFFFFFFFFFFFF1C
:1044B000FFFFFFFFFFFFFFFFFFFFFFFFFFFFFFFF0C
:1044C000FFFFFFFFFFFFFFFFFFFFFFFFFFFFFFFFFC
:1044D000FFFFFFFFFFFFFFFFFFFFFFFFFFFFFFFFEC
:1044E000FFFFFFFFFFFFFFFFFFFFFFFFFFFFFFFFDC
:1044F000FFFFFFFFFFFFFFFFFFFFFFFFFFFFFFFFCC
:10450000FFFFFFFFFFFFFFFFFFFFFFFFFFFFFFFFBB
:10451000FFFFFFFFFFFFFFFFFFFFFFFFFFFFFFFFAB
:10452000FFFFFFFFFFFFFFFFFFFFFFFFFFFFFFFF9B
:10453000FFFFFFFFFFFFFFFFFFFFFFFFFFFFFFFF8B
:10454000FFFFFFFFFFFFFFFFFFFFFFFFFFFFFFFF7B
:10455000FFFFFFFFFFFFFFFFFFFFFFFFFFFFFFFF6B
:10456000FFFFFFFFFFFFFFFFFFFFFFFFFFFFFFFF5B
:10457000FFFFFFFFFFFFFFFFFFFFFFFFFFFFFFFF4B
:10458000FFFFFFFFFFFFFFFFFFFFFFFFFFFFFFFF3B
:10459000FFFFFFFFFFFFFFFFFFFFFFFFFFFFFFFF2B
:1045A000FFFFFFFFFFFFFFFFFFFFFFFFFFFFFFFF1B
:1045B000FFFFFFFFFFFFFFFFFFFFFFFFFFFFFFFF0B
:1045C000FFFFFFFFFFFFFFFFFFDFFFBEFFFFFFFF5C
:1045D000FFFFFFFFFFFFFFFFFFFFFFFFFFFFFFFFEB
:1045E000FFFFFFFFFFFFFFFFFFFFFFFFFFFFFFFFDB
:1045F000FFFFFFFFFFFFFFFFFFFFFFFFFFFFFFFFCB
:10460000FFFFFFFFFFFFFFFFFFFFFFFFFFFFFFFFBA
:10461000FFFFFFFFFFFFFFFFFFFFFFFFFFFFFFFFAA
:10462000FFFFFFFFFFFFFFFFFFFFFFFFFFFFFFFF9A
:10463000FFFFFFFFFFFFFFFFFFFFFFFFFFFFFFFF8A
:10464000FFFFFFFFFFFFFFFFFFFFFFFFFFFFFFFF7A
:10465000FFFFFFFFFFFFFFFFFFFFFFFFFFFFFFFF6A
:10466000FFFFFFFFFFFFFFFFFFFFFFFFFFFFFFFF5A
:10467000FFFFFFFFFFFFFFFFFFFFFFFFFFFFFFFF4A
:10468000FFFFFFFFFFFFFFFFFFFFFFFFFFFFFFFF3A
:10469000FFFFFFFFFFFFFFFFFFFFFFFFFFFFFFFF2A
:1046A000FFFFFFFFFFFFFFFFFFFFFFFFFFFFFFFF1A
:1046B000FFFFFFFFFFFFFFFFFFFFFFFFFFFFFFFF0A
:1046C000FFFFFFFFFFFFFFFFFFFFFFFFFFFFFFFFFA
:1046D000FFFFFFFFFFFFFFFFFFFFFFFFFFFFFFFFEA
:1046E000FFFFFFFFFFFFFFFFFFFFFFFFFFFFFFFFDA
:1046F000FFFFFFFFFFFFFFFFFFFFFFFFFFFFFFFFCA
:10470000FFFFFFFFFFFFFFFFFFFFFFFFFFFFFFFFB9
:10471000FFFFFFFFFFFFFFFFFFFFFFFFFFFFFFFFA9
:10472000FFFFFFFFFFFFFFFFFFFFFFFFFFFFFFFF99
:10473000FFFFFFFFFFFFFFFFFFFFFFFFFFFFFFFF89
:10474000FFFFFFFFFFFFFFFFFFFFFFFFFFFFFFFF79
:10475000FFFFFFFFFFFFFFFFFFFFFFFFFFFFFFFF69
:10476000FFFFFFFFFFFFFFFFFFFFFFFFFFFFFFFF59
:10477000FFFFFFFFFFFFFFFFFFFFFFFFFFFFFFFF49
:10478000FFFFFFFFFFFFFFFFFFFFFFFFFFFFFFFF39
:10479000FFFFFFFFFFFFFFFFFFFFFFFFFFFFFFFF29
:1047A000FFFFFFFFFFFFFFFFFFFFFFDFFFFFFFFF39
:1047B000FFFFFFFFFFFFFFFFFFFFFFFFFFFFFFFF09
:1047C000FFFFFFFFFFFFFFFFFFFFFFFFFFFFFFFFF9
:1047D000FFFFFFFFFFFFFFFFFFFFFFFFFFFFFFFFE9
:1047E000FFFFFFFFFFFFFFFFFFFFFFFFFFFFFFFFD9
:10739000FFFFFFFFFFFFFFFFFFFFFFDFFFDFFFFF3D
:1073A000FFFFFFFFFFFFFFFEFFFEFFFFFFFFFFFFEF
:1073B000FFFFFFFFFFFFFFFFFFFFFFFFFFFFFFFFDD
:1073C000FFFFFFFFFFFFFFFFFFFFFFFFFFFFFFFFCD
:1073D000FFFFFFFFFFFFFFFFFFFFFFFFFFFFFFFFBD
:1073E000FFFFFFFFFFFFFFFFFFFFFFFFFFFFFFFFAD
:1073F000FFFFFFFFFFFFFFFFFFFFFFFFFFFFFFFF9D
:10740000FFFFFFFFFFFFFFFFFFFFFFFFFFFFFFFF8C
:10741000FFFFFFFFFFFFFFFFFFFFFFFFFFFFFFFF7C
:10742000FFFFFFFFFFFFFFFFFFFFFFFFFFFFFFFF6C
:10743000FFFFFFFFFFFFFFFFFFFFFFFFFFFFFFFF5C
:10744000FFFFFFFFFFFFFFFFFFFFFFFFFFFFFFFF4C
:10745000FFFFFFFFFFFFFFFFFFFFFFFFFFFFFFFF3C
:10746000FFFFFFFFFFFFFFFFFFFFFFFFFFFFFFFF2C
:10747000FFFFFFFFFFFFFFFFFFFFFFFFFFFFFFFF1C
:10748000FFFFFFFFFFFFFFFFFFFFFFFFFFFFFFFF0C
:10749000FFFFFFFFFFFFFFFFFFFFFFFFFFFFFFFFFC
:1074A000FFFFFFFFFFFFFFFFFFFFFFFFFFFFFFFFEC
:1074B000FFFFFFFFFFFFFFFFFFFFFFFFFFFFFFFFDC
:1074C000FFFFFFFFFFFFFFFFFFFFFFFFFFFFFFFFCC
:1074D000FFFFFFFFFFFFFFFFFFFFFFFFFFFFFFFFBC
:1074E000FFFFFFFFFFFFFFFFFFFFFFFFFFFFFFFFAC
:1074F000FFFFFFFFFFFFFFFFFFFFFFFFFFFFFFFF9C
:10750000FFFFFFFFFFFFFFFFFFFFFFFFFFFFFFFF8B
:10751000FFFFFFFFFFFFFFFFFFFFFFFFFFFFFFFF7B
:10752000FFFFFFFFFFFFFFFFFFFFFFFFFFFFFFFF6B
:10753000FFFFFFFFFFFFFFFFFFFFFFFFFFFFFFFF5B
:10754000FFFFFFFFFFFFFFFFFFFFFFFFFFFFFFFF4B
:10755000FFFFFFFFFFFFFFFFFFFFFFFFFFFFFFFF3B
:10756000FFFFFFDFFFFFFFFFFFFFFFFFFFFFFFFF4B
:10757000FFFFFFFFFFFFFFFFFFFFFFFFFFFFFFFF1B
:10758000FFFFFFFFFFFFFFDFFFFFFFFFFFFFFFFF2B
:10759000FFFFFFFFFFFFFFFFFFFFFFFFFFFFFFFFFB
:1075A000FFFFFFFFFFFFFFFFFFFFFFFFFFFFFFFFEB
:1075B000FFFFFFFFFFFFFFFFFFFFFFFFFFFFFFFFDB
:1075C000FFFFFFFFFFFFFFFFFFFFFFFFFFFFFFFFCB
:1075D000FFFFFFFFFFFFFFFFFFFFFFFFFFFFFFFFBB
:1075E000FFFFFFFFFFFFFFFFFFFFFFFFFFFFFFFFAB
:1075F000FFFFFFFFFFFFFFFFFFFFFFFFFFFFFFFF9B
:10760000FFFFFFFFFFFFFFFFFFFFFFFFFFFFFFFF8A
:10761000FFFFFFFFFFFFFFFFFFFFFFFFFFFFFFFF7A
:10762000FFFFFFFFFFFFFFFFFFFFFFFFFFFFFFFF6A
:10763000FFFFFFFFFFFFFFFFFFFFFFFFFFFFFFFF5A
:10764000FFFFFFFFFFFFFFFFFFFFFFFFFFFFFFFF4A
:10765000FFFFFFFFFFFFFFFFFFFFFFFFFFFFFFFF3A
:10766000FFFFFFFFFFFFFFFFFFFFFFFFFFFFFFFF2A
:10767000FFFFFFFFFFFFFFFFFFFFFFFFFFFFFFFF1A
:10768000FFFFFFFFFFFFFFFFFFFFFFFFFFFFFFFF0A
:10769000FFFFFFFFFFFFFFFFFFFFFFFFFFFFFFFFFA
:1076A000FFFFFFFFFFFFFFFFFFFFFFFFFFFFFFFFEA
:1076B000FFFFFFFFFFFFFFFFFFFFFFFFFFFFFFFFDA
:1076C000FFFFFFFFFFFFFFFFFFFFFFFFFFFFFFFFCA
:1076D000FFFFFFFFFFFFFFFFFFFFFFFFFFFFFFFFBA
:1076E000FFFFFFFFFFFFFFFFFFFFFFFFFFFFFFFFAA
:1076F000FFFFFFFFFFFFFFFFFFFFFFFFFFFFFFFF9A
:10770000FFFFFFFFFFFFFFFFFFFFFFFFFFFFFFFF89
:10771000FFFFFFFFFFFFFFFFFFFFFFFFFFFFFFFF79
:10772000FFFFFFFFFFFFFFFFFFFFFFFFFFFFFFFF69
:10773000FFFFFFFFFFFFFFFFFFFFFFFFFFFFFFDF79
:10774000FFFFFFFFFFFFFFFFFFFFFFFFFFFFFFFF49
:10775000FFFFFFFFFFFFFFFFFFFFFFFFFFFFFFDE5A
:10776000E71BD638C5B5B534BD54BD74B554BD9509
:10777000D638EF1CFF9EFFFFFFFFFFFFFFFFFFFF5D
:10778000FFFFFFFFFFFFFFFFFFFFFFFFFFFFFFFF09
:10779000FFFFFFFFFFFFFFFFFFFFFFFFFFFFFFFFF9
:1077A000FFFFFFFFFFFFFFFFFFFFFFFFFFFFFFFFE9
:1077B000FFFFFFFFFFFFFFFFFFFFFFFFFFFFFFFFD9
:1077C000FFFFFFFFFFFFFFFFFFFFFFFFFFFFFFFFC9
:1077D000FFFFFFFFFFFFFFFFFFFFFFFFFFFFFFFFB9
:1077E000FFFFFFFFFFFFFFFFFFFFFFFFFFFFFFFFA9
:1077F000FFFFFFFFFFFFFFFFFFFFFFFFFFFFFFFF99
:10780000FFFFFFFFFFFFFFFFFFFFFFFFFFFFFFFF88
:10781000FFFFFFFFFFFFFFFFFFFFFFFFFFFFFFFF78
:10782000FFFFFFFFFFFFFFFFFFFFFFFFFFFFFFFF68
:10783000FFFFFFFFFFFFFFFFFFFFFFFFFFFFFFFF58
:10784000FFFFFFFFFFFFFFFFFFFFFFFFFFFFFFFF48
:10785000FFFFFFFFFFFFFFFFFFFFFFFFFFFFFFFF38
:10786000FFFFFFFFFFFFFFFFFFFFFFFFFFFFFFFF28
:10787000FFFFFFFFFFFFFFFFFFFFFFFFFFFFFFFF18
:10788000FFFFFFFFFFFFFFFFFFFFFFFFFFFFFFFF08
:10789000FFFFFFFFFFFFFFFFFFFFFFFFFFFFFFFFF8
:1078A000FFFFFFFFFFFFFFFFFFFFFFFFFFFFFFFFE8
:1078B000FFFFFFFFFFFFFFFFFFFFFFFFFFFFFFFFD8
:1078C000FFFFFFFFFFFFFFFFFFFFFFFFFFFFFFFFC8
:1078D000FFFFFFFFFFFFFFFFFFFFFFFFFFFFFFFFB8
:1078E000FFFFFFFFFFFFFFFFFFFFFFFFFFFFFFFFA8
:1078F000FFFFFFFFFFFFFFFFFFFFFFFFFFFFFFFF98
:10790000FFFFFFFFFFFFFFFFFFFFFFFFFFFFFFFF87
:10791000FFFFFFFFFFFFFFFFFFFFFFFFFFFFFFFF77
:10792000FFFFFFFFFFFFFFFFFFFFFFFFFFFFFFFF67
:10793000FFFFFFFFFFFFFFBED657BD528BAC7B0A98
:107940006A8851854964492338A138C338A338E48B
:10795000412551C76A4A7B0DA4D3CE18F77EFFDFBD
:10796000FFFFFFFFFFFFFFFFFFFFFFFFFFFFFFFF27
:10797000FFFFFFFFFFFFFFFFFFFFFFFFFFFFFFFF17
:10798000FFFFFFFFFFFFFFFFFFFFFFFFFFFFFFFF07
:10799000FFFFFFFFFFFFFFFFFFFFFFFFFFFFFFFFF7
:1079A000FFFFFFFFFFFFFFFFFFFFFFFFFFFFFFFFE7
:1079B000FFFFFFFFFFFFFFFFFFFFFFFFFFFFFFFFD7
:1079C000FFFFFFFFFFFFFFFFFFFFFFFFFFFFFFFFC7
:1079D000FFFFFFFFFFFFFFFFFFFFFFFFFFFFFFFFB7
:1079E000FFFFFFFFFFFFFFFFFFFFFFFFFFFFFFFFA7
:1079F000FFFFFFFFFFFFFFFFFFFFFFFFFFFFFFFF97
:107A0000FFFFFFFFFFFFFFFFFFFFFFFFFFFFFFFF86
:107A1000FFFFFFFFFFFFFFFFFFFFFFFFFFFFFFFF76
:107A2000FFFFFFFFFFFFFFFFFFFFFFFFFFFFFFFF66
:107A3000FFFFFFFFFFFFFFFFFFFFFFFFFFFFFFFF56
:107A4000FFFFFFFFFFFFFFFFFFFFFFFFFFFFFFFF46
:107A5000FFFFFFFFFFFFFFFFFFFFFFFFFFFFFFFF36
:107A6000FFFFFFFFFFFFFFFFFFFFFFFFFFFFFFFF26
:107A7000FFFFFFFFFFFFFFFFFFFFFFFFFFFFFFFF16
:107A8000FFFFFFFFFFFFFFFFFFFFFFFFFFFFFFFF06
:107A9000FFFFFFFFFFFFFFFFFFFFFFFFFFFFFFFFF6
:107AA000FFFFFFFFFFFFFFFFFFFFFFFFFFFFFFFFE6
:107AB000FFFFFFFFFFFFFFFFFFFFFFFFFFFFFFFFD6
:107AC000FFFFFFFFFFFFFFFFFFFFFFFFFFFFFFFFC6
:107AD000FFFFFFFFFFFFFFFFFFFFFFFFFFFFFFFFB6
:107AE000FFFFFFFFFFFFFFFFFFFFFFFFFFFFFFFFA6
:107AF000FFFFFFFFFFFFFFFFFFFFFFFFFFFFFFFF96
:107B0000FFFFFFFFFFFFFFFFFFFFFFFFFFFFFFFF85
:107B1000F77CD636C593BD0FAC6C936C61E659E625
:107B20006A4959E859E95A0A59EA51EA51EA5A0A9E
:107B300051CA49893928414830C53927520A838FAB
:107B4000C5B7FF7EFFFFFFFFFFFFFFDFFFFFFFFF68
:107B5000FFFFFFFFFFFFFFFFFFFFFFFFFFFFFFFF35
:107B6000FFFFFFFFFFFFFFFFFFFFFFFFFFFFFFFF25
:107B7000FFFFFFFFFFFFFFFFFFFFFFFFFFFFFFFF15
:107B8000FFFFFFFFFFFFFFFFFFFFFFFFFFFFFFFF05
:107B9000FFFFFFFFFFFFFFFFFFFFFFFFFFFFFFFFF5
:107BA000FFFFFFFFFFFFFFFFFFFFFFFFFFFFFFFFE5
:107BB000FFFFFFFFFFFFFFFFFFFFFFFFFFFFFFFFD5
:107BC000FFFFFFFFFFFFFFFFFFFFFFFFFFFFFFFFC5
:107BD000FFFFFFFFFFFFFFFFFFFFFFFFFFFFFFFFB5
:107BE000FFFFFFFFFFFFFFFFFFFFFFFFFFFFFFFFA5
:107BF000FFFFFFFFFFFFFFFFFFFFFFFFFFFFFFFF95
:107C0000FFFFFFFFFFFFFFFFFFFFFFFFFFFFFFFF84
:107C1000FFFFFFFFFFFFFFFFFFFFFFFFFFFFFFFF74
:107C2000FFFFFFFFFFFFFFFFFFFFFFFFFFFFFFFF64
:107C3000FFFFFFFFFFFFFFFFFFFFFFFFFFFFFFFF54
:107C4000FFFFFFFFFFFFFFFFFFFFFFFFFFFFFFFF44
:107C5000FFFFFFFFFFFFFFFFFFFFFFFFFFFFFFFF34
:107C6000FFFFFFFFFFFFFFFFFFFFFFFFFFFFFFFF24
:107C7000FFFFFFFFFFFFFFFFFFFFFFFFFFFFFFFF14
:107C8000FFFFFFFFFFFFFFFFFFFFFFFFFFFFFFFF04
:107C9000FFFFFFFFFFFFFFFFFFFFFFFFFFFFFFFFF4
:107CA000FFFFFFFFFFFFFFFFFFFFFFFFFFFFFFFFE4
:107CB000FFFFFFFFFFFFFFFFFFFFFFFFFFFFFFFFD4
:107CC000FFFFFFFFFFFFFFFFFFFFFFFFFFFFFFFFC4
:107CD000FFFFFFFFFFFFFFFFFFFFFFFFFFFFFFFFB4
:107CE000FFFFFFFFFFFFFFFFFFDEFFFECDF6BD73CF
:107CF000BD30ACADA42B8B8A622849684128390875
:107D0000414A49AC49CD41CD41EE49EE41EE41CE2B
:107D100049EE4A0F49EE49EE520E51ED416B3108E2
:107D200039085A2B8BD1CDF9FFFFFFFFFFFFFFFF73
:107D3000FFFFFFFFFFFFFFFFFFFFFFFFFFFFFFFF53
:107D4000FFFFFFFFFFFFFFFFFFFFFFFFFFFFFFFF43
:107D5000FFFFFFFFFFFFFFFFFFFFFFFFFFFFFFFF33
:107D6000FFFFFFFFFFFFFFFFFFFFFFFFFFFFFFFF23
:107D7000FFFFFFFFFFFFFFFFFFFFFFFFFFFFFFFF13
:107D8000FFFFFFFFFFFFFFFFFFFFFFFFFFFFFFFF03
:107D9000FFFFFFFFFFFFFFFFFFFFFFFFFFFFFFFFF3
:107DA000FFFFFFFFFFFFFFFFFFFFFFFFFFFFFFFFE3
:107DB000FFFFFFFFFFFFFFFFFFFFFFFFFFFFFFFFD3
:107DC000FFFFFFFFFFFFFFFFFFFFFFFFFFFFFFFFC3
:107DD000FFFFFFFFFFFFFFFFFFFFFFFFFFFFFFFFB3
:107DE000FFFFFFFFFFFFFFFFFFFFFFFFFFFFFFFFA3
:107DF000FFFFFFFFFFFFFFFFFFFFFFFFFFFFFFFF93
:107E0000FFFFFFFFFFFFFFFFFFFFFFFFFFFFFFFF82
:107E1000FFFFFFFFFFFFFFFFFFFFFFFFFFFFFFFF72
:107E2000FFFFFFFFFFFFFFFFFFFFFFFFFFFFFFFF62
:107E3000FFFFFFFFFFFFFFFFFFFFFFFFFFFFFFFF52
:107E4000FFFFFFFFFFFFFFFFFFFFFFFFFFFFFFFF42
:107E5000FFFFFFFFFFFFFFFFFFFFFFFFFFFFFFFF32
:107E6000FFFFFFFFFFFFFFFFFFFFFFFFFFFFFFFF22
:107E7000FFFFFFFFFFFFFFFFFFFFFFFFFFFFFFFF12
:107E8000FFFFFFFFFFFFFFFFFFFFFFFFFFFFFFFF02
:107E9000FFFFFFFFFFFFFFFFFFFFFFFFFFFFFFFFF2
:107EA000FFFFFFFFFFFFFFFFFFFFFFFFFFFFFFFFE2
:107EB000FFFFFFFFFFFFFFFFFFFFFFFFFFFFFFFFD2
:107EC000FFFFFFFFFFFFF79DBDB5B532B4CC9C0AA5
:107ED0009BAB7ACA49472865310949AA628E62AFCD
:107EE000520E49EF51F149F149D149D249D249D213
:107EF00049D149D151F249D149F149F149F05210E2
:107F0000520F418C30C93929B576FF9EFFFFFFFF24
:107F1000FFFFFFFFFFFFFFFFFFFFFFFFFFFFFFFF71
:107F2000FFFFFFFFFFFFFFFFFFFFFFFFFFFFFFFF61
:107F3000FFFFFFFFFFFFFFFFFFFFFFFFFFFFFFFF51
:107F4000FFFFFFFFFFFFFFFFFFFFFFFFFFFFFFFF41
:107F5000FFFFFFFFFFFFFFFFFFFFFFFFFFFFFFFF31
:107F6000FFFFFFFFFFFFFFFFFFFFFFFFFFFFFFFF21
:107F7000FFFFFFFFFFFFFFFFFFFFFFFFFFFFFFFF11
:107F8000FFFFFFFFFFFFFFFFFFFFFFFFFFFFFFFF01
:107F9000FFFFFFFFFFFFFFFFFFFFFFFFFFFFFFFFF1
:107FA000FFFFFFFFFFFFFFFFFFFFFFFFFFFFFFFFE1
:107FB000FFFFFFFFFFFFFFFFFFFFFFFFFFFFFFFFD1
:107FC000FFFFFFFFFFFFFFFFFFFFFFFFFFFFFFFFC1
:107FD000FFFFFFFFFFFFFFFFFFFFFFFFFFFFFFFFB1
:107FE000FFFFFFFFFFFFFFFFFFFFFFFFFFFFFFFFA1
:107FF000FFFFFFFFFFFFFFFFFFFFFFFFFFFFFFFF91
:10800000FFFFFFFFFFFFFFFFFFFFFFFFFFFFFFFF80
:10801000FFFFFFFFFFFFFFFFFFFFFFFFFFFFFFFF70
:10802000FFFFFFFFFFFFFFFFFFFFFFFFFFFFFFFF60
:10803000FFFFFFFFFFFFFFFFFFFFFFFFFFFFFFFF50
:10804000FFFFFFFFFFFFFFFFFFFFFFFFFFFFFFFF40
:10805000FFFFFFFFFFFFFFFFFFFFFFFFFFFFFFFF30
:10806000FFFFFFFFFFFFFFFFFFFFFFFFFFFFFFFF20
:10807000FFFFFFFFFFFFFFFFFFFFFFFFFFFFFFFF10
:10808000FFFFFFFFFFFFFFFFFFFFFFFFFFFFFFFF00
:10809000FFFFFFFFFFFFFFDFFFFFFFFFFFFFFFFF10
:1080A000FFFFFF9EBD93ACCEB4ACAC4C834B496696
:1080B000286320453909624D7B5083B37B5362921C
:1080C00049D1419249D341D441B341F441F441F4FF
:1080D00049F449F449F449F449F349F449F349F3BB
:1080E00049F34A124A114A1030E95A4CB516FFDFDB
:1080F000FFFFFFFFFFFEFFDFFFFFFFFFFFFFFFFFB1
:10810000FFFFFFFFFFFFFFFFFFFFFFFFFFFFFFFF7F
:10811000FFFFFFFFFFFFFFFFFFFFFFFFFFFFFFFF6F
:10812000FFFFFFFFFFFFFFFFFFFFFFFFFFFFFFFF5F
:10813000FFFFFFFFFFFFFFFFFFFFFFFFFFFFFFFF4F
:10814000FFFFFFFFFFFFFFFFFFFFFFFFFFFFFFFF3F
:10815000FFFFFFFFFFFFFFFFFFFFFFFFFFFFFFFF2F
:10816000FFFFFFFFFFFFFFFFFFFFFFFFFFFFFFFF1F
:10817000FFFFFFFFFFFFFFFFFFFFFFFFFFFFFFFF0F
:10818000FFFFFFFFFFFFFFFFFFFFFFFFFFFFFFFFFF
:10819000FFFFFFFFFFFFFFFFFFFFFFFFFFFFFFFFEF
:1081A000FFFFFFFFFFFFFFFFFFFFFFFFFFFFFFFFDF
:1081B000FFFFFFFFFFFFFFFFFFFFFFFFFFFFFFFFCF
:1081C000FFFFFFFFFFFFFFFFFFFFFFFFFFFFFFFFBF
:1081D000FFFFFFFFFFFFFFFFFFFFFFFFFFFFFFFFAF
:1081E000FFFFFFFFFFFFFFFFFFFFFFFFFFFFFFFF9F
:1081F000FFFFFFFFFFFFFFFFFFFFFFFFFFFFFFFF8F
:10820000FFFEFFFFFFFFFFFFFFFFFFFFFFFFFFFF7F
:10821000FFFFF7FFFFFFFFFFFFFFFFFFFFFFFFFF76
:10822000FFFFFFFFFFFFFFFFFFFFFFFFFFFFFFFF5E
:10823000FFFFFFFFFFFFFFFFFFFFFFFFFFFFFFFF4E
:10824000FFFFFFFFFFFFFFFFFFFFFFFFFFFFFFFF3E
:10825000FFFFFFFFFFFFFFFFFFFFFFFFFFFFFFFF2E
:10826000FFFFFFFFFFFFFFFFFFFFFFFFFFFFFFFF1E
:10827000FFFFFFDFFFFFFFFFFFFFFFFFFFFFFFFF2E
:10828000B553ACCDBD2EA44D72AA30C3200338C760
:1082900059EC72EF8391839262744192395239534F
:1082A00041B449D541D541D441F441D541D541D519
:1082B00049F549F549F549F549F449F449F449F4D2
:1082C00049F44A134A134A1249F0396B31085A6D7E
:1082D000AD16FFFFFFFFFFFFFFFFFFFFFFFFFFFFE9
:1082E000FFFFFFFFFFFFFFFFFFFFFFFFFFFFFFFF9E
:1082F000FFFFFFFFFFFFFFFFFFFFFFFFFFFFFFFF8E
:10830000FFFFFFFFFFFFFFFFFFFFFFFFFFFFFFFF7D
:10831000FFFFFFFFFFFFFFFFFFFFFFFFFFFFFFFF6D
:10832000FFFFFFFFFFFFFFFFFFFFFFFFFFFFFFFF5D
:10833000FFFFFFFFFFFFFFFFFFFFFFFFFFFFFFFF4D
:10834000FFFFFFFFFFFFFFFFFFFFFFFFFFFFFFFF3D
:10835000FFFFFFFFFFFFFFFFFFFFFFFFFFFFFFFF2D
:10836000FFFFFFFFFFFFFFFFFFFFFFFFFFFFFFFF1D
:10837000FFFFFFFFFFFFFFFFFFFFFFFFFFFFFFFF0D
:10838000FFFFFFFFFFFFFFFFFFFFFFFFFFFFFFFFFD
:10839000FFFFFFFFFFFFFFFFFFFFFFFFFFFFFFFFED
:1083A000FFFFFFFFFFFFFFFFFFFFFFFFFFFFFFFFDD
:1083B000FFFFFFFFFFFFFFFFFFFFFFFFFFFFFFFFCD
:1083C000FFFFFFFFFFFFFFFFFFFFFFFFFFFFFFFFBD
:1083D000FFFFFFFFFFFFFFFFFFFFFFFFFFFFFFFFAD
:1083E000FFFFFFFFFFFFFFFFFFFFFFFFFFFFFFFF9D
:1083F000FFFFFFFFFFDEFFFFFFFFFFFFFFFFFFFFAE
:10840000FFFFFFFFFFFFFFFFFFFFFFFFFFFFFFFF7C
:10841000FFFFFFFFFFFFFFFFFFFFFFFFFFFFFFFF6C
:10842000FFFFFFFFFFFFFFFFFFFFFFFFFFFFFFFF5C
:10843000FFFFFFFFFFFFFFFFFFFFFFFFFFFFFFFF4C
:10844000FFFFFFFFFFFFFFFFFFFFFFFFFFFFFFFF3C
:10845000FFFFFFFFFFFFFFFFFFFFEEFAA46EAC8BF5
:10846000832B306320043929626E837183936AB24F
:10847000395131123973399341B539B441D541F588
:1084800039B439B541D641F641D641D641D641D667
:1084900041D641D641F641F641F641F641F749F75A
:1084A00049F749F64A1649F649F549F449D35213B2
:1084B00051F0312A312983B1F75EFFFFFFFFFFFF43
:1084C000FFFFFFFFFFFFFFFFFFFFFFFFFFFFFFFFBC
:1084D000FFFFFFFFFFFFFFFFFFFFFFFFFFFFFFFFAC
:1084E000FFFFFFFFFFFFFFFFFFFFFFFFFFFFFFFF9C
:1084F000FFFFFFFFFFFFFFFFFFFFFFFFFFFFFFFF8C
:10850000FFFFFFFFFFFFFFFFFFFFFFFFFFFFFFFF7B
:10851000FFFFFFFFFFFFFFFFFFFFFFFFFFFFFFFF6B
:10852000FFFFFFFFFFFFFFFFFFFFFFFFFFFFFFFF5B
:10853000FFFFFFFFFFFFFFFFFFFFFFFFFFFFFFFF4B
:10854000FFFFFFFFFFFFFFFFFFFFFFFFFFFFFFFF3B
:10855000FFFFFFFFFFFFFFFFFFFFFFFFFFFFFFFF2B
:10856000FFFFFFFFFFFFFFFFFFFFFFFFFFFFFFFF1B
:10857000FFFFFFFFFFFFFFFFFFFFFFFFFFFFFFFF0B
:10858000FFFFFFFFFFFFFFFFFFFFFFFFFFFFFFFFFB
:10859000FFFFFFFFFFFFFFFFFFFFFFFFFFFFFFFFEB
:1085A000FFFFFFFFFFFFFFFFFFFFFFFFFFFFFFFFDB
:1085B000FFFFFFFFFFFFFFFFFFFFFFFFFFFEFFFECD
:1085C000FFFFFFFFFFFFFFFFFFFFFFFFFFFFFFFFBB
:1085D000FFDFFFFFFFFFFFFFFFFFFFFFFFFFFFFFCB
:1085E000FFFFFFFFFFFFFFFFFFFFFFFFFFFFFFFF9B
:1085F000FFFFFFFFFFFFFFFFFFFFFFFFFFFFFFFF8B
:10860000FFFFFFFFFFFFFFFFFFFFFFFFFFFFFFFF7A
:10861000FFFFFFFFFFFFFFFFFFFFFFFFFFFFFFFF6A
:10862000FFFFFFFFFFFFFFFFFFFFFFFFFFFFFFFF5A
:10863000FFFFFFFFFFFFFFBFB5349C2CC56E9BEB18
:1086400020033908626C8BB18393523228F1315286
:10865000399341B439B439B441B539B641B641B6AC
:1086600041D641D641D641D641D741D641F641F611
:1086700041F641F641F641F741F749F749F741F72D
:1086800049F749F749F749F74A164A16521649D4A5
:1086900049F3521149EF30EA49ABB557FFFFFFFFED
:1086A000FFFFFFFFFFFFFFFFFFFFFFFFFFFFFFFFDA
:1086B000FFFFFFFFFFFFFFFFFFFFFFFFFFFFFFFFCA
:1086C000FFFFFFFFFFFFFFFFFFFFFFFFFFFFFFFFBA
:1086D000FFFFFFFFFFFFFFFFFFFFFFFFFFFFFFFFAA
:1086E000FFFFFFFFFFFFFFFFFFFFFFFFFFFFFFFF9A
:1086F000FFFFFFFFFFFFFFFFFFFFFFFFFFFFFFFF8A
:10870000FFFFFFFFFFFFFFFFFFFFFFFFFFFFFFFF79
:10871000FFFFFFFFFFFFFFFFFFFFFFFFFFFFFFFF69
:10872000FFFFFFFFFFFFFFFFFFFFFFFFFFFFFFFF59
:10873000FFFFFFFFFFFFFFFFFFFFFFFFFFFFFFFF49
:10874000FFFFFFFFFFFFFFFFFFFFFFFFFFFFFFFF39
:10875000FFFFFFFFFFFFFFFFFFFFFFFFFFFFFFFF29
:10876000FFFFFFFFFFFFFFFFFFFFFFFFFFFFFFFF19
:10877000FFFFFFFFFFFFFFFFFFFFFFFFFFFFFFFF09
:10878000FFFFFFFFFFFFFFFFFFFFFFFFFFFFFFFFF9
:10879000FFFFFFFFFFFFFFFFFFFFFFFFFFFFFFFFE9
:1087A000FFFFFFFFFFFFFFFFFFFFFFFFFFFFFFFFD9
:1087B000FFFFFFFFFFFFFFFFFFFFFFFFFFFFFFFFC9
:1087C000FFFFFFFFFFFFFFFFFFFFFFFFFFFFFFFFB9
:1087D000FFFFFFFFFFFFFFFFFFFFFFFFFFFFFFFFA9
:1087E000FFFFFFFFFFFFFFFFFFFFFFFFFFFFFFFF99
:1087F000FFFFFFFFFFFFFFFFFFFFFFFFFFFFFFFF89
:10880000FFFFFFFFFFFFFFFFFFFFFFFFFFFFFFFF78
:10881000FFFFFFFFF75D942EB50EB4EF6227200235
:108820005A0B8B718B7252312910313239B339B4F2
:1088300041D539B4399441D6419741B741B641B693
:1088400041B641B641B641B649D641D641D741F7C6
:1088500041F741F741F741F741F749F749F749F740
:1088600049F749F749F749F74A1649F641F64A16D2
:108870004A1549F44A135A11418E28EA83B2F79FE8
:10888000FFFFFFFFFFFFFFFFFFFFFFFFFFFFFFFFF8
:10889000FFFFFFFFFFFFFFFFFFFFFFFFFFFFFFFFE8
:1088A000FFFFFFFFFFFFFFFFFFFFFFFFFFFFFFFFD8
:1088B000FFFFFFFFFFFFFFFFFFFFFFFFFFFFFFFFC8
:1088C000FFFFFFFFFFFFFFFFFFFFFFFFFFFFFFFFB8
:1088D000FFFFFFFFFFFFFFFFFFFFFFFFFFFFFFFFA8
:1088E000FFFFFFFFFFFFFFFFFFFFFFFFFFFFFFFF98
:1088F000FFFFFFFFFFFFFFFFFFFFFFFFFFFFFFFF88
:10890000FFFFFFFFFFFFFFFFFFFFFFFFFFFFFFFF77
:10891000FFFFFFFFFFFFFFFFFFFFFFFFFFFFFFFF67
:10892000FFFFFFFFFFFFFFFFFFFFFFFFFFFFFFFF57
:10893000FFFFFFFFFFFFFFFFFFFFFFFFFFFFFFFF47
:10894000FFFFFFFFFFFFFFFFFFFFFFFFFFFFFFFF37
:10895000FFFFFFFFFFFFFFFFFFFFFFFFFFFFFFFF27
:10896000FFFFFFFFFFFFFFFFFFFFFFFFFFFFFFFF17
:10897000FFFFFFFFFFFFFFFFFFFFFFFFFFDFEEFB3C
:10898000D5D7C513BC91AC0FBCF3CD95DE37EF3B0B
:10899000FFFFFFFFFFFFFFFFFFFFFFFFFFFFFFFFE7
:1089A000FFFFFFFFFFFFFFFFFFFFFFFFFFFFFFFFD7
:1089B000FFFFFFFFFFFFFFFFFFFFFFFFFFFFFFFFC7
:1089C000FFFFFFFFFFFFFFFFFFFFFFFFFFFFFFFFB7
:1089D000FFFFFFFFFFFFFFFFFFFFFFFFFFFFFFFFA7
:1089E000FFFFFFFFFFFFFFFFFFFFFFFFFFFFFFFF97
:1089F000FFFFDE5893ECC5909C0C28821803418938
:108A00008BB2627330D13113419439B341B339948D
:108A100039963996399639B641B641B541B641B61F
:108A200041B641B641D741D641D641D741D741D7CA
:108A300041D741D741F749F741F749F749F749F796
:108A400049F749F749F749F741F64A3741F649F6F8
:108A500049F641D549F54A14521449D2312D5A6F7D
:108A6000FFFFFFFFFFFFFFFFFFFFFFFFFFFFFFFF16
:108A7000FFFFFFFFFFFFFFFFFFFFFFFFFFFFFFFF06
:108A8000FFFFFFFFFFFFFFFFFFFFFFFFFFFFFFFFF6
:108A9000FFFFFFFFFFFFFFFFFFFFFFFFFFFFFFFFE6
:108AA000FFFFFFFFFFFFFFFFFFFFFFFFFFFFFFFFD6
:108AB000FFFFFFFFFFFFFFFFFFFFFFFFFFFFFFFFC6
:108AC000FFFFFFFFFFFFFFFFFFFFFFFFFFFFFFFFB6
:108AD000FFFFFFFFFFFFFFFFFFFFFFFFFFFFFFFFA6
:108AE000FFFFFFFFFFFFFFFFFFFFFFFFFFFFFFFF96
:108AF000FFFFFFFFFFFFFFFFFFFFFFFFFFFFFFFF86
:108B0000FFFFFFFFFFFFFFFFFFFFFFFFFFFFFFFF75
:108B1000FFFFFFFFFFFFFFFFFFFFFFFFFFFFFFFF65
:108B2000FFFFFFFFFFFFFFFFFFFFFFFFFFFFFFFF55
:108B3000FFFFFFFFFFFFFFFFFFFFFFFFFFFFFFFF45
:108B4000FFFFFFFFFFFFFFFFFFFFFFFFFFFFFFFF35
:108B5000FFFFFFFFFFFFFFFFFFDFCDB69BED9B2772
:108B60008A0368806800700160007000700078A35C
:108B70009228AC0FDE37FFFFFFFFFFFFFFFFFFFF75
:108B8000FFFFFFFFFFFFFFFFFFFFFFFFFFFFFFFFF5
:108B9000FFFFFFFFFFFFFFFFFFFFFFFFFFFFFFFFE5
:108BA000FFFFFFFFFFFFFFFFFFFFFFFFFFFFFFFFD5
:108BB000FFFFFFFFFFFFFFFFFFFFFFFFFFFFFFFFC5
:108BC000FFFFFFFFFFFFFFFFFFFFFFFFFFFFFFFFB5
:108BD000B553940AD5B17AA818012885626C93D24E
:108BE00028EF3131399339B3399441744195419526
:108BF0004195399539B539B539B641B641B741B71F
:108C000041B741B741B741D641D641D741D741D706
:108C100041D741D741F749F841D749F849F749F7D2
:108C200049F749F749F749F74A18421742164A17D0
:108C300041D649F749F74216421649F55214392EE2
:108C4000C5FAFFFFFFFFFFFFFFFFFFFFFFFFFFFF73
:108C5000FFFFFFFFFFFFFFFFFFFFFFFFFFFFFFFF24
:108C6000FFFFFFFFFFFFFFFFFFFFFFFFFFFFFFFF14
:108C7000FFFFFFFFFFFFFFFFFFFFFFFFFFFFFFFF04
:108C8000FFFFFFFFFFFFFFFFFFFFFFFFFFFFFFFFF4
:108C9000FFFFFFFFFFFFFFFFFFFFFFFFFFFFFFFFE4
:108CA000FFFFFFFFFFFFFFFFFFFFFFFFFFFFFFFFD4
:108CB000FFFFFFFFFFFFFFFFFFFFFFFFFFFFFFFFC4
:108CC000FFFFFFFFFFFFFFFFFFFFFFFFFFFFFFFFB4
:108CD000FFFFFFFFFFFFFFFFFFFFFFFFFFFFFFFFA4
:108CE000FFFFFFFFFFFFFFFFFFFFFFFFFFFFFFFF94
:108CF000FFFFFFFFFFFFFFFFFFFFFFFFFFFFFFFF84
:108D0000FFFFFFFFFFFFFFFFFFFFFFFFFFFFFFFF73
:108D1000FFFFFFFFFFFFFFFFFFFFFFFFFFFFFFFF63
:108D2000FFFFFFFFFFFFFFFFFFFFFFFFFFFFFFDF73
:108D3000FFFFFFFFFFFEE65A9B0993268AE48A03A2
:108D4000892280A280219002880188018801800008
:108D50007800780070009186B3AEDE78FFFFFFFFE9
:108D6000FFFFFFFFFFFFFFFFFFFFFFFFFFFFFFFF13
:108D7000FFFFFFFFFFFFFFFFFFFFFFFFFFFFFFFF03
:108D8000FFFFFFFFFFFFFFFFFFFFFFFFFFFFFFFFF3
:108D9000FFFFFFFFFFFFFFFFFFFFFFFFFFFFFFFFE3
:108DA000F7FFFFFFFFFFFFFFFFFFFFFFFFFFB4B174
:108DB000A48CC570494318023908836F8BD1419246
:108DC000395241B43974399539953995399539966F
:108DD0003996399641B6419641B741B741B741B747
:108DE00041B741D741D741D741D741D741D741D7E3
:108DF00041D741D741F749F741D741F749F841F702
:108E000049F849F849F849F84A1849F849F849F73A
:108E100049F74A174A1749F741F74A1649F55235B3
:108E2000310EA4BAFFFEFFFEFFFFFFFFFFFFFFFEB4
:108E3000FFFFFFFFFFFFFFFFFFFFFFFFFFFFFFFF42
:108E4000FFFFFFFFFFFFFFFFFFFFFFFFFFFFFFFF32
:108E5000FFFFFFFFFFFFFFFFFFFFFFFFFFFFFFFF22
:108E6000FFFFFFFFFFFFFFFFFFFFFFFFFFFFFFFF12
:108E7000FFFFFFFFFFFFFFFFFFFFFFFFFFFFFFFF02
:108E8000FFFFFFFFFFFFFFFFFFFFFFFFFFFFFFFFF2
:108E9000FFFFFFFFFFFFFFFFFFFFFFFFFFFFFFFFE2
:108EA000FFFFFFFFFFFFFFFFFFFFFFFFFFFFFFFFD2
:108EB000FFFFFFFFFFFFFFFFFFFFFFFFFFFFFFFFC2
:108EC000FFFFFFFFFFFFFFFFFFFFFFFFFFFFFFFFB2
:108ED000FFFFFFFFFFFFFFFFFFFFFFFFFFFFFFFFA2
:108EE000FFFFFFFFFFFFFFFFFFFFFFFFFFFFFFFF92
:108EF000FFFFFFFFFFFFFFFFFFFFFFFFFFFFFFFF82
:108F0000FFFFFFFFFFFFFFFFFFFFF7FFFFFFFFFF79
:108F1000FFFFFFFFCD777A649366928678817800B1
:108F2000882088009001902198019801980198016B
:108F3000900190019001782078007801A24ADDB676
:108F4000FFFFFFFFFFDFFFBFFFFFFFFFFFFFFFFF91
:108F5000FFDFFFFFFFFFFFFFFFFFFFFFFFFFFFFF41
:108F6000FFFFFFFFFFFFFFFFFFFFFFFFFFFFFFFF11
:108F7000FFFFFFFFFFFFFFFFFFFFFFFFFFFFFFFF01
:108F8000FFFFFFFFFFFFFFFFFFFFFF9D9C8FBD0F58
:108F9000B4F03080200251C994116AD130CF3951D8
:108FA00041943954395441963995399539963996C1
:108FB000399639964196419641B741B741B741B785
:108FC00041B741D741D741D741D741D741D741D701
:108FD00041D741D741F749F741D749F849F849F80E
:108FE00049F849F84A184A1849F849F84A184A18F5
:108FF0004A174A174A174A1741F649F649F649D51A
:10900000419228EE9C99FFFFFFFEFFDFFFFFFFFF6D
:10901000FFFFFFFFFFFFFFFFFFFFFFFFFFFFFFFF60
:10902000FFFFFFFFFFFFFFFFFFFFFFFFFFFFFFFF50
:10903000FFFFFFFFFFFFFFFFFFFFFFFFFFFFFFFF40
:10904000FFFFFFFFFFFFFFFFFFFFFFFFFFFFFFFF30
:10905000FFFFFFFFFFFFFFFFFFFFFFFFFFFFFFFF20
:10906000FFFFFFFFFFFFFFFFFFFFFFFFFFFFFFFF10
:10907000FFFFFFFFFFFFFFFFFFFFFFFFFFFFFFFF00
:10908000FFFFFFFFFFFFFFFFFFFFFFFFFFFFFFFFF0
:10909000FFFFFFFFFFFFFFFFFFFFFFFFFFFFFFFFE0
:1090A000FFFFFFFFFFFFFFFFFFFFFFFFFFFFFFFFD0
:1090B000FFFFFFFFFFFFFFFFFFFFFFFFFFFFFFFFC0
:1090C000FFFFFFFFFFFFFFFFFFFFFFFFFFFFFFFFB0
:1090D000FFFFFFFFFFFFFFFFFFFFFFFFFFFFFFFFA0
:1090E000FFFFFFFFFFFFFFFFFFFFFFFFFFFFFFDFB0
:1090F000FFFEC5778A44ABE979217820800098A3E8
:10910000A18498E39801A002A002A002A002A002FC
:10911000A002A002A001A001A00090008800780099
:10912000D535FFFFF7FFFFFFFFFFFFFFFFFFFFFF4B
:10913000FFFFFFFFFFFFFFFFFFFFFFFFFFFFFFFF3F
:10914000FFFFFFFFFFFFFFFFFFFFFFFFFFFFFFFF2F
:10915000FFFFFFFFFFFFFFFFFFFFFFFFFFFFFFFF1F
:10916000FFDFFFFFFFFFFFFFFF9E940DB4EFA46E34
:10917000204028446A6C9C5249D028B03953395356
:1091800039943954397541963975399639963996E5
:10919000399639B639B641B741B741B741B741B74A
:1091A00041B741D741D741D741D741D741D741D71F
:1091B00041D741D741D741F741F749F849F849F834
:1091C00049F849F84A184A1849F849F849F849F855
:1091D0004A184A184A1841D74A3849F74A1841D715
:1091E0004A1649F520909458FFFFFFFFFFFFFFDF6D
:1091F000FFFFFFFFFFFFFFFFFFFFFFFFFFFFFFFF7F
:10920000FFFFFFFFFFFFFFFFFFFFFFFFFFFFFFFF6E
:10921000FFFFFFFFFFFFFFFFFFFFFFFFFFFFFFFF5E
:10922000FFFFFFFFFFFFFFFFFFFFFFFFFFFFFFFF4E
:10923000FFFFFFFFFFFFFFFFFFFFFFFFFFFFFFFF3E
:10924000FFFFFFFFFFFFFFFFFFFFFFFFFFFFFFFF2E
:10925000FFFFFFFFFFFFFFFFFFFFFFFFFFFFFFFF1E
:10926000FFFFFFFFFFFFFFFFFFFFFFFFFFFFFFFF0E
:10927000FFFFFFFFFFFFFFFFFFFFFFFFFFFFFFFFFE
:10928000FFFFFFFFFFFFFFFFFFFFFFFFFFFFFFFFEE
:10929000FFFFFFFFFFFFFFFFFFFFFFFFFFFFFFFFDE
:1092A000FFFFFFFFFFFFFFFFFFFFFFFFFFFFFFFFCE
:1092B000FFFFFFFFFFFFFFFFFFFFFFFFFFFFFFFFBE
:1092C000FFFFFFFFFFFFFFFFFFFFFFDFFFDFFFFFEE
:1092D000DDF88264AC49706080009001A1C5A2C530
:1092E000A162A062A003A803A002A002A002A8029B
:1092F000A802A801A001A002A802A000A800A00046
:109300008061A1E8DE17FFFEFFFFF7FFFFFFFFDF31
:10931000FFFFF7FFFFFFFFFFFFFFFFFFFFFFFFFF65
:10932000FFFFFFFFFFFFFFFFFFFFFFFFFFFFFFFF4D
:10933000FFFFFFFFFFFFFFFFFFFFFFFFFFFFFFFF3D
:10934000FFFFFFFFFFFFFFDF8BECC57093CB180023
:1093500028647B2C8BD2390F28D039933973397517
:109360003955397639763976399639963996399626
:10937000399639B639B641B741B741B741B741B768
:1093800041B741D741D741D741D741D741D741D73D
:1093900041D741D741F741F741F841F849F849F839
:1093A00049F849F84A184A184A184A184A184A18EF
:1093B0004A1849F849F84A184A1841D74A184A1928
:1093C00041D74A1749D720B19CD8FFFFFFFFFFFFC5
:1093D000FFFFFFFFFFFFFFFFFFFFFFFFFFFFFFFF9D
:1093E000FFFFFFFFFFFFFFFFFFFFFFFFFFFFFFFF8D
:1093F000FFFFFFFFFFFFFFFFFFFFFFFFFFFFFFFF7D
:10940000FFFFFFFFFFFFFFFFFFFFFFFFFFFFFFFF6C
:10941000FFFFFFFFFFFFFFFFFFFFFFFFFFFFFFFF5C
:10942000FFFFFFFFFFFFFFFFFFFFFFFFFFFFFFFF4C
:10943000FFFFFFFFFFFFFFFFFFFFFFFFFFFFFFFF3C
:10944000FFFFFFFFFFFFFFFFFFFFFFFFFFFFFFFF2C
:10945000FFFFFFFFFFFFFFFFFFFFFFFFFFFFFFFF1C
:10946000FFFFFFFFFFFFFFFFFFFFFFFFFFFFFFFF0C
:10947000FFFFFFFFFFFFFFFFFFFFFFFFFFFFFFFFFC
:10948000FFFFFFFFFFFFFFFFFFFFFFFFFFFFFFFFEC
:10949000FFFFFFFFFFFFFFFFFFFFFFFFFFFFFFFFDC
:1094A000FFFFFFFFFFFFFFFFFFFFFFFFFFFFFFFFCC
:1094B0007A26A426806078209083A286A203982032
:1094C00098019801A002A803A802A802A802A80275
:1094D000A802A802A802A802A802A802A801A8003F
:1094E000A00090008020AAAAEEFAFFDFFFFFF7FF9E
:1094F000FFDFFFFFFFFFFFFFFFFFFFFFFFFFFFFF9C
:10950000FFFFFFFFFFFFFFFFFFFFFFFFFFFFFFFF6B
:10951000FFFFFFFFFFFFFFFFFFFFFFFFFFFFFFFF5B
:10952000F7FFFFFFFFFFFFFFC5908BAA180030C5B4
:109530008B8E7B5130CF311139723153399439755B
:10954000395539763976397641B73976399639963B
:10955000399639B6399741B741B741B741B741B7A5
:1095600041B741B741D741D741D741D741D741D87A
:1095700041D841D849F849F841F841F849F849F843
:1095800049F849F849F84A1849F94A184A184A184E
:109590004A184A184A184A194A184A1849F841D824
:1095A0004A184A174A1741B63132BDBBFFFFFFFFC9
:1095B000FFFFFFFFFFFFFFFFFFFFFFFFFFFFFFFFBB
:1095C000FFFFFFFFFFFFFFFFFFFFFFFFFFFFFFFFAB
:1095D000FFFFFFFFFFFFFFFFFFFFFFFFFFFFFFFF9B
:1095E000FFFFFFFFFFFFFFFFFFFFFFFFFFFFFFFF8B
:1095F000FFFFFFFFFFFFFFFFFFFFFFFFFFFFFFFF7B
:10960000FFFFFFFFFFFFFFFFFFFFFFFFFFFFFFFF6A
:10961000FFFFFFFFFFFFFFFFFFFFFFFFFFFFFFFF5A
:10962000FFFFFFFFFFFFFFFFFFFFFFFFFFFFFFFF4A
:10963000FFFFFFFFFFFFFFFFFFFFFFFFFFFFFFFF3A
:10964000FFFFFFFFFFFFFFFFFFFFFFFFFFFFFFFF2A
:10965000FFFFFFFFFFFFFFFFFFFFFFFFFFFFFFFF1A
:10966000FFFFFFFFFFFFFFFFFFFFFFFFFFFFFFFF0A
:10967000FFFFFFFFFFFFFFFFFFFFFFFFFFFFFFFFFA
:10968000FFFFFFFFFFFFFFFFFFFFFFFFFFDFFFFF0A
:109690009B858964780088A1A2A6A123A000A001CF
:1096A000A803A022A001B001B002B002B002B00233
:1096B000B002B002B002B022A801A801B002A80214
:1096C000A801A800980088008862C4B2FFFFFFBF0D
:1096D000FFFFFFFFFFFFFFFFFFFFFFFFFFFFFFFF9A
:1096E000FFFFFFFFFFFFFFFFFFFFFFFFFFFFFFFF8A
:1096F000FFFFFFFFFFFFFFFFFFFFFFFFFFFFFFFF7A
:10970000FFFFFFFFFFFFA4918BEB180030C48BCD50
:109710007B10286E393239523994315431553955CC
:109720003976397639763976399639963996399641
:1097300039973997399741B741B741B741B741B7E1
:1097400041B741B741D841D841D841D841D841D893
:1097500041F841F841F841F849F841F849F849F829
:1097600049F849F849F949F949F949F949F949F9EB
:1097700049F949F949F949F94A1949F84A194A1977
:109780004A184A174A1749F741973151DEDEFFFF61
:10979000FFFFFFFFFFFFFFFFFFFFFFFFFFFFFFFFD9
:1097A000FFFFFFFFFFFFFFFFFFFFFFFFFFFFFFFFC9
:1097B000FFFFFFFFFFFFFFFFFFFFFFFFFFFFFFFFB9
:1097C000FFFFFFFFFFFFFFFFFFFFFFFFFFFFFFFFA9
:1097D000FFFFFFFFFFFFFFFFFFFFFFFFFFFFFFFF99
:1097E000FFFFFFFFFFFFFFFFFFFFFFFFFFFFFFFF89
:1097F000FFFFFFFFFFFFFFFFFFFFFFFFFFFFFFFF79
:10980000FFFFFFFFFFFFFFFFFFFFFFFFFFFFFFFF68
:10981000FFFFFFFFFFFFFFFFFFFFFFFFFFFFFFFF58
:10982000FFFFFFFFFFFFFFFFFFFFFFFFFFFFFFFF48
:10983000FFFFFFFFFFFFFFFFFFFFFFFFFFFFFFFF38
:10984000FFFFFFFFFFFFFFFFFFFFFFFFFFFFFFFF28
:10985000FFFFFFFFFFFFFFFFFFFFFFFFFFFFFFFF18
:10986000FFFFFFFFFFFFFFFFFFFFFFFFFFDFC575EC
:109870009B0770009863A285A9039800A002A0032B
:10988000A003A802A801B002B002B002B002B00268
:10989000B002B002B002A801B001B001B001B00145
:1098A000A801A801A821A80198008000A229EEDA49
:1098B000FFFFFFFFFFFFFFFFFFFFFFFFFFFFFFFFB8
:1098C000FFFFFFFFFFFFFFFFFFFFFFFFFFFFFFFFA8
:1098D000FFFFFFFFFFFFFFFFFFFFFFFFFFFFFFFF98
:1098E000FFFFFFFFAD12A46E180028848B9072EF6B
:1098F000204D39523973315431743975397639768E
:10990000397639763996397639763997399739975C
:10991000399739973997399741B741B741B741B826
:1099200041B841B841D841D841D841D841D841D8AF
:1099300041D841F841F841D849F841F841F849F88F
:1099400049F849F849F949F949F949F949F949F909
:1099500049F949F949F94A194A194A194A1949F973
:109960004A1941F749F84A1849F731355253FFDF90
:10997000FFFFFFFFFFFFFFFFFFFFFFFFFFFFFFFFF7
:10998000FFFFFFFFFFFFFFFFFFFFFFFFFFFFFFFFE7
:10999000FFFFFFFFFFFFFFFFFFFFFFFFFFFFFFFFD7
:1099A000FFFFFFFFFFFFFFFFFFFFFFFFFFFFFFFFC7
:1099B000FFFFFFFFFFFFFFFFFFFFFFFFFFFFFFFFB7
:1099C000FFFFFFFFFFFFFFFFFFFFFFFFFFFFFFFFA7
:1099D000FFFFFFFFFFFFFFFFFFFFFFFFFFFFFFFF97
:1099E000FFFFFFFFFFFFFFFFFFFFFFFFFFFFFFFF87
:1099F000FFFFFFFFFFFFFFFFFFFFFFFFFFFFFFFF77
:109A0000FFFFFFFFFFFFFFFFFFFFFFFFFFFFFFFF66
:109A1000FFFFFFFFFFFFFFFFFFFFFFFFFFFFFFFF56
:109A2000FFFFFFFFFFFFFFFFFFFFFFFFFFFFFFFF46
:109A3000FFFFFFFFFFFFFFFFFFFFFFFFFFFFFFFF36
:109A4000FFFFFFFFFFFFFFFFFFFFF7FFCD94932610
:109A5000780190E2A2649802A002A802A802A802DB
:109A6000B002B002B002B002B002B002B002B00266
:109A7000B002B002B002B001B001B801B801B80143
:109A8000B801B801B801A800B020A800B001980042
:109A90008020C36CF7FFFFFFFFDFFFFFFFFFF7FF33
:109AA000FFDFFFFFFFFFFFFFFFFFFFFFFFFFFFFFE6
:109AB000FFFFFFDFFFFFFFFFFFFFFFFFFFFEFFFFD7
:109AC000FF7F940BC59141236A8A83B1288E31317F
:109AD0003932393339543155395539553955395663
:109AE0003976397639973997399739973997399738
:109AF000399739973997399739B741B841B741B74D
:109B000041B741B841B841D841D841D841D841D8EE
:109B100041D841D841F841F841F841F849F949F9AB
:109B200041F849F949F949F949F949F949F949F92E
:109B300049F949F949F949F949F949F949F949F915
:109B400049F949F949F949F849F84A1741B83153EF
:109B5000DEDDFFFFFFFFFFFFFFFFFFFFFFFFFFFF58
:109B6000FFFFFFFFFFFFFFFFFFFFFFFFFFFFFFFF05
:109B7000FFFFFFFFFFFFFFFFFFFFFFFFFFFFFFFFF5
:109B8000FFFFFFFFFFFFFFFFFFFFFFFFFFFFFFFFE5
:109B9000FFFFFFFFFFFFFFFFFFFFFFFFFFFFFFFFD5
:109BA000FFFFFFFFFFFFFFFFFFFFFFFFFFFFFFFFC5
:109BB000FFFFFFFFFFFFFFFFFFFFFFFFFFFFFFFFB5
:109BC000FFFFFFFFFFFFFFFFFFFFFFFFFFFFFFFFA5
:109BD000FFFFFFFFFFFFFFFFFFFFFFFFFFFFFFFF95
:109BE000FFFFFFFFFFFFFFFFFFFFFFFFFFFFFFFF85
:109BF000FFFFFFFFFFFFFFFFFFFFFFFFFFFFFFFF75
:109C0000FFFFFFFFFFFFFFFFFFFFFFFFFFFFFFFF64
:109C1000FFFFFFFFFFFFFFFFFFFFFFFFFFFFFFFF54
:109C2000FFFFFFFFFFFFFFFFFFFFFFFFAC0E8AA656
:109C30008801A225A9029802A002A802A802A802EF
:109C4000B002B002B002B002B002B002B002B00284
:109C5000B002B002B002B001B801B801B801B80159
:109C6000B801B801B801B001B020B000B000B00137
:109C700098008800A9C8F75BFFFFFFFFFFFFFFFF09
:109C8000F7FFFFFFFFFFFFFFFFFFFFFFFFFFFFFFEC
:109C9000FFFFFFFFFFDFFFFFFFFFFFFFFFFEFFFFF5
:109CA000B513A4AD72C8180093F1394D30CF3932D5
:109CB0003932393339553155315639553955397667
:109CC0003976397739973997399739973997399755
:109CD00039973997399739B739B741B741B741B74C
:109CE00041B841B841D841D841D841D841D841D8EC
:109CF00041D841D841F941F941F841F849F949F9C8
:109D000049F949F949F949F94A194A194A194A19BF
:109D10004A194A194A194A194A194A194A194A192B
:109D20004A194A194A1949F94A1949F74A3828F289
:109D30007375FFFFFFFFFFFFFFFFFFFFFFFFFFFF49
:109D4000FFFFFFFFFFFFFFFFFFFFFFFFFFFFFFFF23
:109D5000FFFFFFFFFFFFFFFFFFFFFFFFFFFFFFFF13
:109D6000FFFFFFFFFFFFFFFFFFFFFFFFFFFFFFFF03
:109D7000FFFFFFFFFFFFFFFFFFFFFFFFFFFFFFFFF3
:109D8000FFFFFFFFFFFFFFFFFFFFFFFFFFFFFFFFE3
:109D9000FFFFFFFFFFFFFFFFFFFFFFFFFFFFFFFFD3
:109DA000FFFFFFFFFFFFFFFFFFFFFFFFFFFFFFFFC3
:109DB000FFFFFFFFFFFFFFFFFFFFFFFFFFFFFFFFB3
:109DC000FFFFFFFFFFFFFFFFFFFFFFFFFFFFFFFFA3
:109DD000FFFFFFFFFFFFFFFFFFFFFFFFFFFFFFFF93
:109DE000FFFFFFFFFFFFFFFFFFFFFFFFFFFFFFFF83
:109DF000FFFFFFFFFFFFFFFFFFFFFFFFFFFFFFFF73
:109E0000FFFFFFFFFFFFFFFFFFFFE679936991E58B
:109E100098C3AA04A001A002A002A802A802A80256
:109E2000B002B002B002B002B002B002B002B002A2
:109E3000B002B002B802B801B801B801B801B80167
:109E4000B801B801B801B801B000B821B000B00045
:109E5000B821A8009800A0C4FFFFFFFFFFFFFFFF8D
:109E6000FFFEFFFFFFFFFFFFFFFFFFFFFFFFFFFF03
:109E7000FFFFFFFFFFFFFFFFFFDFFFFFFFFFEF1C05
:109E8000AC8EACAE202030855A0F288E3952393333
:109E90003933395439553156315639563956397660
:109EA0003977397739773997399739973997399792
:109EB0003997399741B739B741B841B841B841B836
:109EC00041B841B841D841D841D841D841D841D80A
:109ED00041D941D941F941F949F949F949F949F9D2
:109EE00049F949F949F949F94A194A194A194A19DE
:109EF0004A194A194A194A194A194A194A194A194A
:109F00004A194A194A1949F949F84A384A1741F68B
:109F10003952DE9CFFFFFFFFFFFFFFFFFFFFFFFF48
:109F2000FFFFFFFFFFFFFFFFFFFFFFFFFFFFFFFF41
:109F3000FFFFFFFFFFFFFFFFFFFFFFFFFFFFFFFF31
:109F4000FFFFFFFFFFFFFFFFFFFFFFFFFFFFFFFF21
:109F5000FFFFFFFFFFFFFFFFFFFFFFFFFFFFFFFF11
:109F6000FFFFFFFFFFFFFFFFFFFFFFFFFFFFFFFF01
:109F7000FFFFFFFFFFFFFFFFFFFFFFFFFFFFFFFFF1
:109F8000FFFFFFFFFFFFFFFFFFFFFFFFFFFFFFFFE1
:109F9000FFFFFFFFFFFFFFFFFFFFFFFFFFFFFFFFD1
:109FA000FFFFFFFFFFFFFFFFFFFFFFFFFFFFFFFFC1
:109FB000FFFFFFFFFFFFFFFFFFFFFFFFFFFFFFFFB1
:109FC000FFFFFFFFFFFFFFFFFFFFFFFFFFFFFFFFA1
:109FD000FFFFFFFFFFFFFFFFFFFFFFFFFFFFFFFF91
:109FE000FFFFFFFFFFFFFFFFFFFFC53293488082A7
:109FF000A1C4A9029801A803A802A802A802B0025D
:10A00000B002B002B002B002B002B002B002B002C0
:10A01000B002B002B802B801B801B801B801B80185
:10A02000B801B801B801B801B801B821B020B0003A
:10A03000A800B000B0009800D657FFFFFFFFFFDE7A
:10A04000FFFFFFFFFFFFFFFFFFFFFFFFFFFFFFFF20
:10A05000FFFFFFFFFFFFFFFFFFFFFFFFFFDFACF191
:10A06000AC6D62251801624C286E313131333933C1
:10A0700039343135315531563956395639563976A4
:10A0800039763977397739773977399739973997F1
:10A0900039973997419739B741B841B841B841B874
:10A0A00041B841B841D841D841D841D841D841D828
:10A0B00041D941D941D941D949F949F949F949F930
:10A0C00049F949F949F949F94A194A194A194A19FC
:10A0D0004A194A194A194A194A194A194A194A1968
:10A0E0004A194A194A1949FA4A184A184A184A177D
:10A0F00030F19C58FFFFFFFFFFFFFFFFFFFFFFFF57
:10A10000FFFFFFFFFFFFFFFFFFFFFFFFFFFFFFFF5F
:10A11000FFFFFFFFFFFFFFFFFFFFFFFFFFFFFFFF4F
:10A12000FFFFFFFFFFFFFFFFFFFFFFFFFFFFFFFF3F
:10A13000FFFFFFFFFFFFFFFFFFFFFFFFFFFFFFFF2F
:10A14000FFFFFFFFFFFFFFFFFFFFFFFFFFFFFFFF1F
:10A15000FFFFFFFFFFFFFFFFFFFFFFFFFFFFFFFF0F
:10A16000FFFFFFFFFFFFFFFFFFFFFFFFFFFFFFFFFF
:10A17000FFFFFFFFFFFFFFFFFFFFFFFFFFFFFFFFEF
:10A18000FFFFFFFFFFFFFFFFFFFFFFFFFFFFFFFFDF
:10A19000FFFFFFFFFFFFFFFFFFFFFFFFFFFFFFFFCF
:10A1A000FFFFFFFFFFFFFFFFFFFFFFFFFFFFFFFFBF
:10A1B000FFFFFFFFFFFFFFFFFFFFFFFFFFFFFFFFAF
:10A1C000FFFFFFFFFFFFFFFFFFBEAC8E9286780010
:10A1D000AA459820A003A002A802A802A802B002E3
:10A1E000B002B002B002B002B002B002B002B002DF
:10A1F000B002B802B802B801B801B801B801B8019C
:10A20000B801B801B822B801C001B800B000B02050
:10A21000B020B000A800A8209002E638FFDFFFFFC2
:10A22000FFFFFFFFFFFFFFFFFFFFFFFFFFFFFFFF3E
