:020000040800F2
:10000000580700200D15000861020008630200086F
:10001000670200086B0200086F0200080000000081
:100020000000000000000000000000007302000853
:10003000750200080000000077020008790200083D
:1000400027150008271500082715000827150008A0
:100050002715000827150008271500082715000890
:100060002715000827150008271500082715000880
:100070002715000827150008271500082715000870
:100080002715000827150008271500082715000860
:100090002715000827150008271500082715000850
:1000A0002715000827150008271500082715000840
:1000B0002715000827150008271500082715000830
:1000C0002715000827150008271500082715000820
:1000D00027150008332500082715000827150008F4
:1000E0002715000827150008271500082715000800
:1000F00027150008271500082715000827150008F0
:1001000027150008271500082715000827150008DF
:1001100027150008271500082715000827150008CF
:1001200027150008271500082715000827150008BF
:1001300027150008271500082715000827150008AF
:10014000271500082715000827150008271500089F
:10015000271500082715000827150008271500088F
:10016000271500082715000827150008271500087F
:10017000271500082715000827150008271500086F
:10018000271500082715000800F002F800F03CF8D9
:100190000AA090E8000C82448344AAF10107DA45E2
:1001A00001D100F031F8AFF2090EBAE80F0013F0F8
:1001B000010F18BFFB1A43F001031847881E020005
:1001C000A81E0200103A24BF78C878C1FAD8520796
:1001D00024BF30C830C144BF04680C6070470000C1
:1001E0000023002400250026103A28BF78C1FBD840
:1001F000520728BF30C148BF0B6070471FB502F0DF
:1002000011FA1FBD10B510BD02F0DDF91146FFF760
:10021000F5FF00F009F802F0FBF903B4FFF7F2FF75
:1002200003BC02F027F9000008B5A82002F0A0F8EE
:1002300000F021FF4FF6FF70F0231A4600210090D6
:10024000084600F023F907E00448F0231A4600218D
:100250000090084600F059FEF6E700002E26000840
:10026000704700BFFEE700BFFEE700BFFEE700BF2C
:10027000FEE7704770477047704700000CB50020DC
:10028000019000907648006840F48030744908601E
:1002900000BF7348006800F4003000900198401CD3
:1002A0000190009818B90198B0F5A04FF1D16C48B1
:1002B000006800F4003010B10120009001E000203F
:1002C00000900098012846D165484030006840F011
:1002D00080506349403108606248006840F4404003
:1002E000604908605E48083000685D490831086070
:1002F0000846006840F4004008600846006840F482
:10030000A05008605848091F0860081F006840F0A6
:100310008070091F086000BF5148006800F000703D
:100320000028F9D040F20570504908604C48083068
:10033000006820F003004A49083108600846006858
:1003400040F00200086000BF45480830006800F037
:100350000C000828F8D10CBD10B54548006840F4E1
:100360007000434908603E48006840F001003C4985
:10037000086000203A4908310860394800683D4962
:100380000840374908603C48091D0860081F00689C
:1003900020F48020091F0860002031490C310860DA
:1003A000FFF76CFF4FF0006031498039086010BDE5
:1003B00070B500200022022300240221284D0835B8
:1003C0002D6805F00C0020B1042806D0082834D18F
:1003D00007E02A4D2A4E356033E02A4D284E35601D
:1003E0002FE01F4D2D1D2D68C5F380541C4D2D1D74
:1003F0002D6805F03F0154B1224DB5FBF1F5184EC3
:10040000361D3668C6F3881605FB06F209E01B4D5B
:10041000B5FBF1F5124E361D3668C6F3881605FB9E
:1004200006F20F4D2D1D2D68C5F301456D1C6B00A7
:10043000B2FBF3F5124E356003E0104D104E3560FF
:1004400000BF00BF064D08352D68C5F303150E4EDD
:10045000705D0B4D2D68C540094E356070BD0000C4
:10046000003802400070004008544007003C024041
:1004700088ED00E0FFFFF6FE103000240024F400B9
:100480000000002000127A00040000202DE9F0474F
:1004900006460F4614461D46DDF820A0681E83B2AE
:1004A000601E82B23946304600F0C8FDB8460EE004
:1004B000B14606E0504600F0AAFD09F101001FFA1E
:1004C00080F9A145F6DB08F101001FFA80F8A84584
:1004D000EEDBBDE8F08770B504460D4616462B46A8
:1004E00022462946204600F0A9FD304600F08FFD47
:1004F00070BD2DE9FF4F85B081468A4600200390EC
:1005000083460798A0EB09050898A0EB0A06CDF8EA
:100510000890CDF804A0002D01DD012705E00DB9FC
:10052000002702E04FF0FF376D42002E02DD4FF052
:10053000010806E016B94FF0000802E04FF0FF385E
:100540007642B54201DD2C4600E03446002004909E
:100550001EE0019A91B2029A90B2129AFFF7BBFF85
:10056000039828440390B3440398A04205DD039800
:10057000001B0390029838440290A34504DDABEBC6
:10058000040B0198404401900498401C80B20490F0
:10059000611C04988842DCDB09B0BDE8F08F2DE9CE
:1005A000F84305460E4617469846089C33463A4699
:1005B000314628460094FFF79CFF43462A463146C1
:1005C00028460094FFF795FF43463A4641462846A1
:1005D0000094FFF78EFF43463A4631463846009472
:1005E000FFF787FFBDE8F8832DE9F04706460F4681
:1005F000904699460025444641E07A1B91B2321B51
:1006000090B24A46FFF767FF7A1B91B2321990B257
:100610004A46FFF760FF3A1991B2721B90B24A4600
:10062000FFF759FF3A1B91B2721B90B24A46FFF78F
:1006300052FF7A1991B2321990B24A46FFF74BFF36
:100640003A1B91B2721990B24A46FFF744FF3A1929
:1006500091B2721990B24A46FFF73DFF7A1991B2F2
:10066000321B90B24A46FFF736FF6D1C05FB05F0C2
:1006700004FB040108FB08F0814200DD641EA54272
:10068000BBDDBDE8F0872DE9FF5F0646894692464F
:100690009B460F9C0020039000962046E21704EB37
:1006A0005272D2102146E31704EB5373DB10A4EB14
:1006B000C3030BB1012300E000231A44624392B24A
:1006C000019204200290002571E005EB8510FA49A3
:1006D00011F810009AF80010884265D105EB8510DA
:1006E000F54901EB400040789AF8011088425BD14F
:1006F00009EB0400401E83B23019401E82B2494605
:10070000304600F09BFC00274BE04FF0000842E031
:100710001098F8B905EB8510E74901EB4000801C03
:10072000C05D012101FA08F1084018B1584600F0F7
:100730006EFC02E00E9800F06AFC0398401CC0B208
:100740000390039890FBF4F104FB1100F8B900202A
:10075000039023E005EB8510D74901EB4000801C96
:10076000C05D012101FA08F1084020B15A4649460E
:100770003046FFF7B0FE701C86B20098301AA042D7
:1007800005D1009E09F101001FFA80F906E008F189
:10079000010000F0FF08B8F1080FB9DB00BF781CBA
:1007A000C7B201988742B0DB00BF681C85B20298CF
:1007B00085428ADBBDE8FF9F2DE9FF5F064689463B
:1007C00092469B460F9C0020039000962046E2171D
:1007D00004EB5272D2102146E31704EB5373DB1083
:1007E000A4EBC3030BB1012300E000231A446243CE
:1007F00092B2019204200290002579E005EB850079
:1008000000EB4510AD4911F810009AF8001088422D
:100810006BD105EB850000EB4510A84901EB4000CA
:1008200040789AF8011088425FD109EB0400401E1D
:1008300083B23019401E82B24946304600F0FEFBBA
:1008400000274FE04FF0000846E0109808BB05EB8A
:10085000850000EB4510994901EB4000801CC05D0C
:10086000012101FA08F1084018B1584600F0CFFB09
:1008700002E00E9800F0CBFB0398401CC0B203903E
:10088000039890FBF4F104FB110008BB00200390D7
:1008900025E005EB850000EB4510884901EB4000A1
:1008A000801CC05D012101FA08F1084020B15A46C0
:1008B00049463046FFF70FFE701C86B20098301A8A
:1008C000A04205D1009E09F101001FFA80F906E05F
:1008D00008F1010000F0FF08B8F1080FB5DB00BF18
:1008E000781CC7B201988742ACDB00BF681C85B298
:1008F0000298854282DBBDE8FF9F2DE9FF5F064637
:10090000894692469B460F9C002003900096204605
:10091000E21704EB5272D2102146E31704EB537333
:10092000DB10A4EBC3030BB1012300E000231A4446
:10093000624392B2019204200290002571E005EB1F
:1009400005105F4911F810009AF80010884265D12F
:1009500005EB05105A4901EB400040789AF8011068
:1009600088425BD109EB0400401E83B23019401E5F
:1009700082B24946304600F061FB00274BE04FF061
:10098000000842E01098F8B905EB05104C4901EB5E
:100990004000801CC05D012101FA08F1084018B137
:1009A000584600F034FB02E00E9800F030FB03984C
:1009B000401CC0B20390039890FBF4F104FB1100BB
:1009C000F8B90020039023E005EB05103C4901EB4A
:1009D0004000801CC05D012101FA08F1084020B1EF
:1009E0005A4649463046FFF776FD701C86B200989D
:1009F000301AA04205D1009E09F101001FFA80F9CA
:100A000006E008F1010000F0FF08B8F1080FB9DBBB
:100A100000BF781CC7B201988742B0DB00BF681CDA
:100A200085B2029885428ADBBDE8FF9F2DE9FF5F12
:100A30000646894692469B460F9C002003900096EE
:100A40002046E21704EB5272D2102146E31704EB62
:100A50005373DB10A4EBC3030BB1012300E00023AD
:100A60001A44624392B2019204200290002581E070
:100A700005EB850000EBC500124911F810009AF84B
:100A80000010884273D105EB850000EBC5000D49CD
:100A900001EB400040789AF80110884267D109EBD9
:100AA0000400401E83B23019401E82B249463046CF
:100AB00000F0C4FA002757E03A1E0208121D02088F
:100AC0008A1C0208221C02084FF0000846E0109819
:100AD00008BB05EB850000EBC500FE4901EB4000BB
:100AE000801CC05D012101FA08F1084018B1584688
:100AF00000F08DFA02E00E9800F089FA0398401C8D
:100B0000C0B20390039890FBF4F104FB110008BB02
:100B10000020039025E005EB850000EBC500ED49C2
:100B200001EB4000801CC05D012101FA08F1084082
:100B300020B15A4649463046FFF7CDFC701C86B2BC
:100B40000098301AA04205D1009E09F101001FFA59
:100B500080F906E008F1010000F0FF08B8F1080F85
:100B6000B5DB00BF781CC7B201988742ACDB00BF81
:100B7000681C85B202988542FFF67AAFBDE8FF9FF8
:100B80002DE9FE4F8046894617469A46DDE90D4617
:100B90000C9D36E00C2C09D153463A464946404656
:100BA000CDE901460095FFF741FF25E0102C09D162
:100BB00053463A4649464046CDE901460095FFF77F
:100BC0009CFE19E0182C09D153463A464946404646
:100BD000CDE901460095FFF7EFFD0DE0202C09D18E
:100BE00053463A4649464046CDE901460095FFF74F
:100BF0004AFD01E0BDE8FE8FBF1C08EB04001FFAB0
:100C000080F838780028C5D100BFF3E72DE9FF5FF1
:100C100080468A4617469B460F9D00200290CDF8DD
:100C20000080284605EBD071C1F347042046E21747
:100C300004EB5272D2102146E31704EB5373DB101E
:100C4000A4EBC3030BB1012300E000231A446A4361
:100C500092B20192A7F12000C7B20AEB0500401E34
:100C600083B208EB0400401E82B25146404600F0B9
:100C7000E5F9002669E00C2D07D107EB47009649FE
:100C800001EB8000805D03901BE0102D05D193489F
:100C900000EB0710805D039013E0182D07D107EBE0
:100CA00047008F4901EB0010805D039009E0202D83
:100CB00005D18C4800EB8710805D039001E0BDE812
:100CC000FF9F4FF000093AE01098C8B9012000FAE0
:100CD00009F00399084018B1584600F098F902E06D
:100CE0000E9800F094F90298401CC0B2029002984D
:100CF00090FBF4F104FB1100E8B90020029021E020
:100D0000012000FA09F00399084020B15A465146E3
:100D10004046FFF7E0FB08F101001FFA80F8009859
:100D2000A8EB0000A04206D1DDF800800AF1010026
:100D30001FFA80FA06E009F1010000F0FF09B9F19D
:100D4000080FC1DB00BF701C86B20198864292DB9F
:100D500000BFB4E72DE9FE4F06460F4614469846FD
:100D6000DDE90D5ADDF8309010E0CDE9015ACDF8FB
:100D700000902278434639463046FFF747FF284621
:100D800005EBD07106EB61018EB2641C207800285F
:100D9000EBD1BDE8FE8F10B50246012000E05043C4
:100DA0000B00A1F10104E1B2F9D110BD2DE9FF4F13
:100DB00085B0074691461D46DDE913A60020049044
:100DC000304606EBD071C1F3470B002434E0281BFA
:100DD000401EC1B20A20FFF7DEFFB9FBF0F00A2186
:100DE000B0FBF1F201FB12080498A0B9681EA04202
:100DF00011DDB8F1000F0CD1002004FB0B71CDE91F
:100E000000A6029088B22022129B0699FFF7FEFEF0
:100E100010E001200490002008F13001CAB204FB68
:100E20000B71CDE900A6029088B2129B0699FFF7DC
:100E3000EDFE00BF601CC4B2AC42C8DB09B0BDE827
:100E4000F08F2DE9FF4F2DED020B2DED028B83B0BE
:100E50000746B0EE408A1446DDE91486304606EBBC
:100E6000D071C1F3470A9FED200A28EE000ABCEEBC
:100E7000C00A10EE100A1FFA80FB00253DE0601B3F
:100E8000401EC1B20A20FFF786FFBBFBF0F00A212B
:100E9000B0FBF1F201FB1209A01EA84210D1002004
:100EA000A11E01FB0A71CDE90086029088B22E22B4
:100EB0000A9B0899FFF7AAFE681CC5B2601CC4B261
:100EC000002009F13001CAB205FB0A71CDE90086A4
:100ED00002900BE0221C02082EE80108A2EC010897
:100EE00092F20108620402080000C84288B20A9B1C
:100EF0000899FFF78BFE681CC5B2A542BFDB03B0A3
:100F0000BDEC028B06B0BDE8F08F2DE9F05F07461F
:100F1000884615461E46DDF82890002408EB06009A
:100F2000401E83B27819401E82B24146384600F016
:100F300085F8A24618E04FF0000B0FE019F81400F6
:100F400000F05FF8012101EB440119F8010000F005
:100F500058F8641C0BF101001FFA80FBB345EDDB70
:100F60000AF101001FFA80FAAA45E4DBBDE8F09F10
:100F70001CB50121022000F07DFE4FF47C70009032
:100F800001208DF8040000208DF8060003208DF864
:100F9000050001208DF807006946FE4800F0CCFBF3
:100FA0004FF47C71FB4800F043FC1CBD70B5044657
:100FB0001021F84800F03EFC00251BE04FF40071C2
:100FC000F44800F037FC04F0800028B14FF4807141
:100FD000F04800F02DFC04E04FF48071ED4800F083
:100FE00029FC4FF40071EB4800F022FC6006040E6F
:100FF000681CC5B2082DE1DB1021E64800F018FCA2
:1010000070BD10B504462046FFF7D0FF10BD10B5E7
:1010100004462012FFF7CAFFE0B2FFF7C7FF10BD7A
:1010200010B504468021DB4800F004FC2046FFF7A1
:10103000BDFF8021D74800F0FBFB10BD2DE9F0413A
:1010400007460C4615461E462A20FFF7E9FF38469C
:10105000FFF7DDFF2846FFF7DAFF2B20FFF7E0FF61
:101060002046FFF7D4FF3046FFF7D1FF2C20FFF7D3
:10107000D7FFBDE8F08110B5FFF77AFF4021C548E2
:1010800000F0D8FB642001F0D5F94021C14800F000
:10109000CFFB642001F0CEF92021BE4800F0C8FB50
:1010A000642001F0C7F9EF20FFF7BAFFEB20FFF74C
:1010B000B7FF1420FFF7A5FFFE20FFF7B1FFEF20D9
:1010C000FFF7AEFFEB20FFF7ABFF1420FFF799FF10
:1010D0008420FFF7A5FF4020FFF793FF8520FFF74F
:1010E0009FFFFF20FFF78DFF8620FFF799FFFF206E
:1010F000FFF787FF8720FFF793FFFF20FFF781FFB0
:101100008820FFF78DFF0A20FFF77BFF8920FFF77C
:1011100087FF2120FFF775FF8A20FFF781FF00205E
:10112000FFF76FFF8B20FFF77BFF8020FFF769FF42
:101130008C20FFF775FF0120FFF763FF8D20FFF77D
:101140006FFF0120FFF75DFF8E20FFF769FFFF2093
:10115000FFF757FF8F20FFF763FFFF20FFF751FFD7
:10116000B620FFF75DFF0020FFF74BFF2020FFF7C1
:1011700048FF3620FFF754FF0820FFF742FF3A20D0
:10118000FFF74EFF0520FFF73CFF9020FFF748FFD9
:101190000820FFF736FF0820FFF733FF0820FFF78E
:1011A00030FF0820FFF72DFFBD20FFF739FF062095
:1011B000FFF727FFBC20FFF733FF0020FFF721FFD9
:1011C000FF20FFF72DFF6020FFF71BFF0120FFF737
:1011D00018FF0420FFF715FFC320FFF721FF13209E
:1011E000FFF70FFFC420FFF71BFF1320FFF709FFD6
:1011F000C920FFF715FF2220FFF703FFBE20FFF7EE
:101200000FFF1120FFF7FDFEE120FFF709FF10207F
:10121000FFF7F7FE0E20FFF7F4FEDF20FFF700FFD9
:101220002120FFF7EEFE0C20FFF7EBFE0220FFF778
:10123000E8FEF020FFF7F4FE4520FFF7E2FE09206C
:10124000FFF7DFFE0820FFF7DCFE0820FFF7D9FEDE
:101250002620FFF7D6FE2A20FFF7D3FEF120FFF766
:10126000DFFE4320FFF7CDFE7020FFF7CAFE72209D
:10127000FFF7C7FE3620FFF7C4FE3720FFF7C1FE99
:101280006F20FFF7BEFEF220FFF7CAFE4520FFF7F2
:10129000B8FE0920FFF7B5FE0820FFF7B2FE0820D0
:1012A000FFF7AFFE2620FFF7ACFE2A20FFF7A9FECE
:1012B000F320FFF7B5FE4320FFF7A3FE7020FFF7F2
:1012C000A0FE7220FFF79DFE3620FFF79AFE372022
:1012D000FFF797FE6F20FFF794FEED20FFF7A0FECB
:1012E0001B20FFF78EFE0B20FFF78BFEAE20FFF7D3
:1012F00097FE7720FFF785FECD20FFF791FE632054
:10130000FFF77FFE7020FFF78BFE0720FFF779FEC7
:101310000720FFF776FE0420FFF773FE0E20FFF78D
:1013200070FE0F20FFF76DFE0920FFF76AFE072011
:10133000FFF767FE0820FFF764FE0320FFF761FE5A
:10134000E820FFF76DFE3420FFF75BFE6220FFF719
:1013500067FE1820FFF755FE0D20FFF752FE7120A3
:10136000FFF74FFEED20FFF74CFE7020FFF749FE20
:101370007020FFF746FE1820FFF743FE0F20FFF70F
:1013800040FE7120FFF73DFEEF20FFF73AFE702090
:1013900002E0000000040240FFF733FE7020FFF778
:1013A00030FE6320FFF73CFE1820FFF72AFE1120D5
:1013B000FFF727FE7120FFF724FEF120FFF721FE43
:1013C0007020FFF71EFE7020FFF71BFE1820FFF7AE
:1013D00018FE1320FFF715FE7120FFF712FEF32011
:1013E000FFF70FFE7020FFF70CFE7020FFF709FEDD
:1013F0006420FFF715FE2820FFF703FE2920FFF7E2
:1014000000FEF120FFF7FDFD0120FFF7FAFDF120BE
:10141000FFF7F7FD0020FFF7F4FD0720FFF7F1FDD0
:101420006620FFF7FDFD3C20FFF7EBFD0020FFF7F6
:10143000E8FDCD20FFF7E5FD6720FFF7E2FD452041
:10144000FFF7DFFD4520FFF7DCFD1020FFF7D9FD9A
:101450000020FFF7D6FD0020FFF7D3FD0020FFF7A7
:10146000D0FD6720FFF7DCFD0020FFF7CAFD3C2020
:10147000FFF7C7FD0020FFF7C4FD0020FFF7C1FD07
:101480000020FFF7BEFD0120FFF7BBFD5420FFF752
:10149000B8FD1020FFF7B5FD3220FFF7B2FD982010
:1014A000FFF7AFFD7420FFF7BBFD1020FFF7A9FD8C
:1014B0008520FFF7A6FD8020FFF7A3FD0020FFF7A2
:1014C000A0FD0020FFF79DFD4E20FFF79AFD0020B4
:1014D000FFF797FD9820FFF7A3FD3E20FFF791FD52
:1014E0000720FFF78EFD3520FFF79AFD2120FFF73B
:1014F00097FD1120FFF794FD782000F09BFF292035
:10150000FFF78EFD142000F095FF10BD09488047BD
:1015100009480047FEE7FEE7FEE7FEE7FEE7FEE7D5
:10152000FEE7FEE7FEE7FEE704480549054A064BED
:101530007047000059030008890100085801002085
:101540005807002058030020580300203249014367
:10155000324A1160704770B5002100230F22C47811
:101560001CB32E4C246804F4E064C4F5E064C4F3B6
:101570000721C1F10404E3B20A4144789C40E1B27E
:101580008478144021430C07210E254C05786155C1
:10159000047804F01F050124AC4005786D11AD00FE
:1015A00005F1E025C5F8004109E0047804F01F05C5
:1015B0000124AC401B4D0678761145F8264070BDDD
:1015C000194A0A400243154B1B1F1A60704739B174
:1015D000124A121D12680243104B1B1D1A6006E0CE
:1015E0000E4A121D126882430C4B1B1D1A60704775
:1015F000042808D14FF0E021096941F004014FF0BF
:10160000E022116107E04FF0E021096921F00401B7
:101610004FF0E022116170470000FA050CED00E088
:1016200000E400E080E100E080FFFF1F10B5044609
:101630009848844208D10121084600F086FB002129
:10164000012000F082FB76E09348844208D101211A
:10165000022000F07AFB0021022000F076FB6AE015
:101660008E48844208D10121042000F06EFB002145
:10167000042000F06AFB5EE08948844208D1012121
:10168000082000F062FB0021082000F05EFB52E021
:101690008448844208D10121102000F056FB00212B
:1016A000102000F052FB46E07F48844208D101211F
:1016B000202000F04AFB0021202000F046FB3AE009
:1016C0007A48844208D10121402000F03EFB0021ED
:1016D000402000F03AFB2EE07548844208D10121F9
:1016E000802000F032FB0021802000F02EFB22E061
:1016F0007048844208D10121801500F026FB0021AA
:10170000A01500F022FB16E06B48844208D10121AD
:10171000401500F01AFB0021601500F016FB0AE0EE
:101720006648844207D10121001500F00EFB00211C
:10173000201500F00AFB10BDF0B50A460021002379
:10174000002400BF3DE0012505FA01F3156805EA14
:1017500003049C4234D105684F000326BE40B543C4
:10176000056015794E00B54006683543056015796A
:10177000012D02D01579022D16D185684F00032660
:10178000BE40B543856055794E00B5408668354307
:101790008560456801268E40B54345604568967969
:1017A0008E40B6B235434560C5684F000326BE4043
:1017B000B543C560D5794E00B540C6683543C560B0
:1017C000491C1029BFD3F0BD4FF6FF710160002105
:1017D000017141718171C171704708B54FF4803258
:1017E0000092009A0A430092009AC261C161009A75
:1017F000C261C2690092C269009208BD024600201F
:1018000013690B400BB1012000E000207047014636
:10181000086980B270470246002053690B400BB143
:10182000012000E0002070470146486980B27047FF
:1018300001837047418370470AB1018300E041830F
:1018400070474161704742694A4042617047F0B554
:10185000002300244D07ED0E02FA05F3CE1000F12F
:10186000200555F826504E07F70E0F26BE40B5430B
:10187000CF1000F1200646F82750CE1000F12005C9
:1018800055F8265045EA0304CE1000F1200545F82E
:101890002640F0BD00000240000402400008024063
:1018A000000C0240001002400014024000180240E8
:1018B000001C024000200240002402400028024098
:1018C000F948006840F00100F74908600020F64937
:1018D00008310860F4480068F4490840F24908609B
:1018E000F348091D0860F348EF4984310860F04867
:1018F0001038091D0860EC48006820F48020EA498F
:1019000008600020E8490C310860E7498C31086024
:1019100070470021E44A921C11701146087070470C
:1019200010B501460022002300204A11012A02D1ED
:10193000DD4C236808E0022A03D1DB4C70342368B5
:1019400002E0D94C7434236801F01F020124944052
:101950001C400CB1012000E0002010BD38B5002073
:1019600000900024002500BF3120FFF7D9FF054675
:101970000098401C00900098B0F5A04F01D0002DB9
:10198000F2D03120FFF7CCFF08B1012400E00024A1
:10199000204638BD01460020C34A106820F0F800F8
:1019A00040EAC10010607047C349086070470021D9
:1019B000BD4A703211701170012802D004280AD17A
:1019C00004E00121B84A7032117005E00521B64AE1
:1019D0007032117000E000BF00BF7047B749086067
:1019E000704770B5049C41EA82150126C6EB530688
:1019F00045EA0645054345EA0465AB4E361D3560AC
:101A000070BDAD4908667047820142EA0172A64B7B
:101A100084331A607047A8498866704710B58301FF
:101A200043EA016343EA02739F4C8834236010BD8C
:101A3000A14908677047A049C86470470246002062
:101A4000994B0833186820F0EC6042EA0103184310
:101A5000954B08331860704702460020924B0833BC
:101A6000186820F0784042EA010318438E4B08338F
:101A700018607047014600208B4A0832106820F039
:101A8000030008431060704787480830006800F082
:101A90000C00704701460020834A0832106820F08D
:101AA000F000084310607047014600207E4A08326B
:101AB000106820F4E0500843106070470146002091
:101AC000794A0832106820F4604040EAC100106092
:101AD0007047F0B5002100220024022500260223D1
:101AE000714F08373F6807F00C0121B1042905D078
:101AF000082937D105E0724F076036E0714F076063
:101B000033E0694F3F1D3F68C7F38056664F3F1D66
:101B10003F6807F03F036EB16A4FB7FBF3F7DFF89A
:101B200088C10CF1040CDCF800C0CCF3881C07FB66
:101B30000CF40CE0624FB7FBF3F7DFF86CC10CF16B
:101B4000040CDCF800C0CCF3881C07FB0CF4564FE7
:101B50003F1D3F68C7F301477F1C7D00B4FBF5F7CD
:101B6000076002E0564F076000BF00BF4E4F0837C6
:101B70003F6807F0F0010909534F7A5C0768D740C6
:101B80004760494F08373F6807F4E051890A4E4FD4
:101B90007A5C4768D7408760434F08373F6807F44F
:101BA0006041490B484F7A5C4768D740C760F0BD39
:101BB000002100F44072B2F5407F0AD13A4A08325F
:101BC000116821F4F811414A02401143364A0832A3
:101BD0001160354A70321268C0F30B031A43324B5E
:101BE00070331A607047354944390860704733498B
:101BF0004039086070473649086070470146002048
:101C0000294A8C32106820F01F004A1E1043264AD1
:101C10008C321060704701460020234A8C321068D5
:101C200020F4F8504A1E40EA02201F4A8C3210600D
:101C30007047014600201C4A8C32106820F4401086
:101C400008431060704701460020174A8C32106824
:101C500020F4400008431060704701460020124AFB
:101C60008C32106820F440300843106070471949E6
:101C70000860704739B10C4A3032126802430A4B8F
:101C800030331A6006E0084A303212688243064B4D
:101C900030331A607047F9B1034A34321268024394
:101CA000014B34331A601CE000380240FFFFF6EAB3
:101CB000103000240030002000004742800E4742D0
:101CC0000024F40000127A0014000020FFFCFF0F33
:101CD0005C014742E01147428F4A126882438E4BB3
:101CE0001A60704739B18C4A121D126802438A4B40
:101CF0001B1D1A6006E0884A121D12688243864B3B
:101D00001B1D1A60704739B1834A0C3212680243B6
:101D1000814B0C331A6006E07F4A0C321268824312
:101D20007D4B0C331A60704739B17B4A1032126810
:101D30000243794B10331A6006E0774A103212687A
:101D40008243754B10331A60704739B1724A243A96
:101D500012680243704B243B1A6006E06E4A243A34
:101D6000126882436C4B243B1A60704739B16A4A4F
:101D7000203A12680243684B203B1A6006E0664A2C
:101D8000203A12688243644B203B1A60704739B195
:101D9000614A1C3A126802435F4B1C3B1A6006E022
:101DA0005D4A1C3A126882435B4B1C3B1A607047C9
:101DB00039B1594A143A12680243574B143B1A601E
:101DC00006E0554A143A12688243534B143B1A609A
:101DD000704739B1504A103A126802434E4B103BDB
:101DE0001A6006E04C4A103A126882434A4B103B94
:101DF0001A60704739B1484A1C3212680243464B98
:101E00001C331A6006E0444A1C3212688243424B7B
:101E10001C331A60704739B13F4A203212680243BE
:101E20003D4B20331A6006E03B4A20321268824361
:101E3000394B20331A60704739B1374A243212685F
:101E40000243354B24331A6006E0334A24321268C9
:101E50008243314B24331A60704739B12E4A2C32F9
:101E6000126802432C4B2C331A6006E02A4A2C32AB
:101E700012688243284B2C331A60704739B1264AC6
:101E8000303212680243244B30331A6006E0224A93
:101E9000303212688243204B30331A607047012879
:101EA00008D11D493C31096841F008011A4A3C3209
:101EB000116007E018493C31096821F00801164A11
:101EC0003C321160704739B1134A273A1278024305
:101ED000114B273B1A7006E00F4A273A12788243CB
:101EE0000D4B273B1A7070470B484030006840F09C
:101EF0008070094940310860704701460020064A59
:101F0000283A12680A400AB1012000E00020704718
:101F100001492639087070473438024010B504462C
:101F2000FA48844208D101211020FFF752FF002116
:101F30001020FFF74EFF57E0F548844209D10121F8
:101F40004804FFF735FF00214FF40030FFF730FF62
:101F50004AE0F048844209D101218804FFF728FFB4
:101F600000214FF48020FFF723FF3DE0EA48844240
:101F700009D10121C804FFF71BFF00214FF4002005
:101F8000FFF716FF30E0E548844209D1012108053A
:101F9000FFF70EFF00214FF48010FFF709FF23E049
:101FA000DF48844208D101212020FFF712FF0021E1
:101FB0002020FFF70EFF17E0DA48844209D1012103
:101FC0008807FFF7F5FE00214FF08040FFF7F0FE95
:101FD0000AE0D548844207D101214005FFF7E8FE19
:101FE00000216005FFF7E4FE10BD2DE9FF4705461F
:101FF0000E460024A14600BFA046B08900B100BF34
:102000002C8A24F44054F08804432C82AC8941F299
:102010000C608443B08831890843718908430443C4
:10202000AC81AC8A24F44074B0890443AC82684625
:10203000FFF74FFDB548854202D0B948854202D12D
:10204000DDF80C9001E0DDF80890A88900F400406C
:1020500040B109EBC90000EB091031684900B0FB41
:10206000F1F707E009EBC90000EB091031688900BE
:10207000B0FBF1F76420B7FBF0F004012009642104
:1020800001FB1078A88900F4004040B1322000EB39
:10209000C800B0FBF1F000F00700044308E0322074
:1020A00000EB08106421B0FBF1F000F00F000443D6
:1020B0002C81BDE8FF874FF416510160002181801B
:1020C000C18001810C21418100218181704710B5BF
:1020D00002460020108A20F470600B884C8823434D
:1020E0008C882343CC8823431843108210BD0021E1
:1020F000018041808180C180704721B1828942F492
:102100000052828104E082894DF6FF731A40828179
:102110007047028B02F47F420283028B0A430283E0
:10212000704721B1828942F40042828103E08289B2
:10213000C2F30E028281704721B1828A42F40062AA
:10214000828204E0828A4FF2FF731A4082827047D3
:10215000C1F308028280704701468888C0F30800F6
:102160007047028A4FF6F0731A400282028A0A43CD
:102170000282704721B1828942F00202828104E02A
:1021800082894FF6FD731A408281704782894FF22F
:10219000FF731A40828182890A4382817047028AD2
:1021A0004FF6DF731A400282028A0A4302827047A6
:1021B00021B1028A42F48042028204E0028A4BF694
:1021C000FF731A4002827047818941F001018181C9
:1021D000704721B1828A42F00802828204E0828A3A
:1021E0004FF6F7731A4082827047028BD2B2028395
:1021F000028B42EA01220283704721B1828A42F0B7
:102200002002828204E0828A4FF6DF731A408282C3
:10221000704721B1828A42F01002828204E0828AF1
:102220004FF6EF731A4082827047828A4FF6FB7333
:102230001A408282828A0A438282704721B1828A4E
:1022400042F00202828204E0828A4FF6FD731A4055
:10225000828270471AB1838A0B43838202E0838AA9
:102260008B4383827047F0B5034600240026002587
:10227000002040F66A17B94200D100BF1846C1F3EA
:10228000421401F01F06012707FA06F5012C01D1BF
:102290000C3004E0022C01D1103000E014301AB1EF
:1022A00007682F43076002E00768AF430760F0BD8F
:1022B00002460020B1F5007F00D100BF13880B401B
:1022C0000BB1012000E00020704701F40072B2F56C
:1022D000007F00D100BFCA430280704770B502463C
:1022E000002400230025002040F66A16B14200D1E8
:1022F00000BFC1F3421501F01F03012606FA03F3E4
:10230000012D13D19689334017E0000000100140E1
:102310000044004000480040004C00400050004095
:102320000014014000780040007C0040022D02D1E2
:10233000168A334001E0968A33400C12012606FAD1
:1023400004F41688344013B10CB1012000E00020E1
:1023500070BD10B50022002340F66A14A14200D1DE
:1023600000BF0A1201249440A3B2DC43048010BDD4
:1023700010B504466FF00400FFF73AF9E11704EBDB
:102380005171C1F3C701394A11701046007800EB52
:102390004001C1EBC0104FF6FF7101EAC0003449A3
:1023A000088010BD0146314A12784A434FF0E023BD
:1023B0005A6100229A611A46126942F001021A61BA
:1023C00000BF4FF0E022106900F001021AB100F4E2
:1023D0008032002AF5D04FF0E022126922F001028B
:1023E0004FF0E0231A6100229A6170470146204AAB
:1023F00012884A434FF0E0235A6100229A611A463C
:10240000126942F001021A6100BF4FF0E022106928
:1024100000F001021AB100F48032002AF5D04FF02A
:10242000E022126922F001024FF0E0231A6100223B
:102430009A61704770B504464FF4077094FBF0F052
:10244000C6B24FF4077094FBF0F100FB114085B267
:1024500005E04FF40770FFF7C9FF701EC6B2002EEB
:10246000F7D115B12846FFF7C1FF70BD2400002049
:102470002600002000BF704700BF4C4A128802F0BF
:102480004002002AF9D0C2B2484B9A80704710B57A
:1024900088B0044601210846FFF7ECFB012110201B
:1024A000FFF742FC072209214148FFF7D0F9072234
:1024B0000A213F48FFF7CBF94FF4C0600690022095
:1024C0008DF81C008DF81D0000208DF81E000120E5
:1024D0008DF81F0006A93648FFF72EF90294002058
:1024E000ADF80C00ADF80E00ADF81000ADF814001A
:1024F0000C20ADF8120002A92C48FFF776FD01214F
:102500002A48FFF7FAFD012240F225512748FFF73C
:10251000AAFE25208DF8040003208DF805008DF813
:10252000060001208DF8070001A8FFF714F808B095
:1025300010BD10B540F225511C48FFF7CFFE10B377
:102540001A48FFF709FEC4B21A48008800F4004098
:10255000C8B91848008800F4804060B10A2C03D044
:1025600000201449088020E01248008840F4004010
:102570001049088019E00D2C06D10E48008840F45F
:1025800080400C49088010E00A480088C0F30D0024
:1025900009490C5407480088401C06490880084631
:1025A0000088C72801DD0020088010BD0010014010
:1025B000000002402C0000203000002070477047CF
:1025C000704770477047754600F028F8AE46050022
:1025D0006946534620F00700854618B020B5FEF73F
:1025E000A3FFBDE820404FF000064FF000074FF07A
:1025F00000084FF0000B21F00701AC46ACE8C00921
:10260000ACE8C009ACE8C009ACE8C0098D46704729
:102610000446AFF300802046FDF7FFFD00487047F9
:10262000F80000204FF04070E1EE100A7047FFDF25
:10263000FFDFFFDFFFFFFFFFFFDFFFDFFFDFFFDF6A
:10264000FFBFFFBEFFBFFFDFFFDFFFFFFFFFFFFF9B
:10265000FFFFFFFFFFFFFFFFFFFFFFFFFFFFFFFF8A
:10266000FFFFFFFFFFFFFFFFFFFFFFFFFFFFFFFF7A
:10267000FFFFFFFFFFFFFFFFFFFFFFFFFFFFFFFF6A
:10268000FFFFFFFFFFFFFFFFFFFFFFFFFFFFFFFF5A
:10269000FFFFFFFFFFFFFFFFFFFFFFFFFFFFFFFF4A
:1026A000FFFFFFFFFFFFFFFFFFFFFFFFFFFFFFFF3A
:1026B000FFFFFFFFFFFFFFFFFFFFFFFFFFFFFFFF2A
:1026C000FFFFFFFFFFFFFFFFFFFFFFFFFFFFFFFF1A
:1026D000FFFFFFFFFFFFFFFFFFFFFFFFFFFFFFFF0A
:1026E000FFFFFFFFFFFFFFFFFFFFFFFFFFFFFFFFFA
:1026F000FFFFFFFFFFFFFFFFFFFFFFFFFFFFFFFFEA
:10270000FFFFFFFFFFFFFFFFFFFFFFFFFFFFFFFFD9
:10271000FFFFFFFFFFFFFFFFFFFFFFFFFFFFFFFFC9
:10272000FFFFFFFFFFFFFFFFFFFFFFFFFFFFFFFFB9
:10273000FFFFFFFFFFFFFFFFFFFFFFFFFFFFFFFFA9
:10274000FFFFFFFFFFFFFFFFFFFFFFFFFFFFFFFF99
:10275000FFFFFFFFFFFFFFFFFFFFFFFFFFFFFFFF89
:10276000FFFFFFFFFFFFFFFFFFFFFFFFFFFFFFFF79
:10277000FFFFFFFFFFFFFFFFFFFFFFFFFFFFFFFF69
:10278000FFFFFFFFFFFFFFFFFFFFFFFFFFFFFFFF59
:10279000FFFFFFFFFFFFFFFFFFFFFFFFFFFFFFFF49
:1027A000FFFFFFFFFFFFFFFFFFFFFFFFFFFFFFFF39
:1027B000FFFFFFFFFFFFFFFFFFFFFFFFFFFFFFFF29
:1027C000FFFFFFFFFFFFFFFFFFFFFFFFFFFFFFFF19
:1027D000FFFFFFFFFFFFFFFFFFFFFFDFFFFFFFFF29
:1027E000FFFFFFFFFFFFFFFFFFFFFFFFFFFFFFFFF9
:1027F000FFFFFFFFFFFFFFFFFFFFFFFFFFFFFFFFE9
:10280000FFDFFFDFFFDFFFDFFFDFFFDFFFDFFFFFB8
:10281000FFFFFFFFFFFFFFFFFFFFFFDFFFFFFFDF08
:10282000FFDFFFDFFFDFFFDFFFFFFFFFFFFFFFFF38
:10283000FFFFFFFFFFFFFFFFFFFFFFFFFFFFFFFFA8
:10284000FFFFFFFFFFFFFFFFFFFFFFFFFFFFFFFF98
:10285000FFFFFFFFFFFFFFFFFFFFFFFFFFFFFFFF88
:10286000FFFFFFFFFFFFFFFFFFFFFFFFFFFFFFFF78
:10442000FFFFFFFFFFFFFFFFFFFFFFDFFFBEFFFFFD
:10443000FFFFFFFFFFFFFFFFFFFFFFFFFFFFFFFF8C
:10444000FFFFFFFFFFFFFFFFFFFFFFFFFFFFFFFF7C
:10445000FFFFFFFFFFFFFFFFFFFFFFFFFFFFFFFF6C
:10446000FFFFFFFFFFFFFFFFFFFFFFFFFFFFFFFF5C
:10447000FFFFFFFFFFFFFFFFFFFFFFFFFFFFFFFF4C
:10448000FFFFFFFFFFFFFFFFFFFFFFFFFFFFFFFF3C
:10449000FFFFFFFFFFFFFFFFFFFFFFFFFFFFFFFF2C
:1044A000FFFFFFFFFFFFFFFFFFFFFFFFFFFFFFFF1C
:1044B000FFFFFFFFFFFFFFFFFFFFFFFFFFFFFFFF0C
:1044C000FFFFFFFFFFFFFFFFFFFFFFFFFFFFFFFFFC
:1044D000FFFFFFFFFFFFFFFFFFFFFFFFFFFFFFFFEC
:1044E000FFFFFFFFFFFFFFFFFFFFFFFFFFFFFFFFDC
:1044F000FFFFFFFFFFFFFFFFFFFFFFFFFFFFFFFFCC
:10450000FFFFFFFFFFFFFFFFFFFFFFFFFFFFFFFFBB
:10451000FFFFFFFFFFFFFFFFFFFFFFFFFFFFFFFFAB
:10452000FFFFFFFFFFFFFFFFFFFFFFFFFFFFFFFF9B
:10453000FFFFFFFFFFFFFFFFFFFFFFFFFFFFFFFF8B
:10454000FFFFFFFFFFFFFFFFFFFFFFFFFFFFFFFF7B
:10455000FFFFFFFFFFFFFFFFFFFFFFFFFFFFFFFF6B
:10456000FFFFFFFFFFFFFFFFFFFFFFFFFFFFFFFF5B
:10457000FFFFFFFFFFFFFFFFFFFFFFFFFFFFFFFF4B
:10458000FFFFFFFFFFFFFFFFFFFFFFFFFFFFFFFF3B
:10459000FFFFFFFFFFFFFFFFFFFFFFFFFFFFFFFF2B
:1045A000FFFFFFFFFFFFFFFFFFFFFFFFFFFFFFFF1B
:1045B000FFFFFFFFFFFFFFFFFFFFFFFFFFFFFFFF0B
:1045C000FFFFFFFFFFFFFFFFFFFFFFFFFFFFFFFFFB
:1045D000FFFFFFFFFFFFFFFFFFFFFFFFFFFFFFFFEB
:1045E000FFFFFFFFFFFFFFFFFFFFFFFFFFFFFFFFDB
:1045F000FFFFFFFFFFFFFFFFFFFFFFFFFFFFFFFFCB
:10460000FFFFFFFFFFFFFFFFFFFFFFDFFFBEFFFF1B
:10461000FFFFFFFFFFFFFFFFFFFFFFFFFFFFFFFFAA
:10462000FFFFFFFFFFFFFFFFFFFFFFFFFFFFFFFF9A
:10463000FFFFFFFFFFFFFFFFFFFFFFFFFFFFFFFF8A
:10464000FFFFFFFFFFFFFFFFFFFFFFFFFFFFFFFF7A
:10465000FFFFFFFFFFFFFFFFFFFFFFFFFFFFFFFF6A
:10466000FFFFFFFFFFFFFFFFFFFFFFFFFFFFFFFF5A
:10467000FFFFFFFFFFFFFFFFFFFFFFFFFFFFFFFF4A
:10468000FFFFFFFFFFFFFFFFFFFFFFFFFFFFFFFF3A
:10469000FFFFFFFFFFFFFFFFFFFFFFFFFFFFFFFF2A
:1046A000FFFFFFFFFFFFFFFFFFFFFFFFFFFFFFFF1A
:1046B000FFFFFFFFFFFFFFFFFFFFFFFFFFFFFFFF0A
:1046C000FFFFFFFFFFFFFFFFFFFFFFFFFFFFFFFFFA
:1046D000FFFFFFFFFFFFFFFFFFFFFFFFFFFFFFFFEA
:1046E000FFFFFFFFFFFFFFFFFFFFFFFFFFFFFFFFDA
:1046F000FFFFFFFFFFFFFFFFFFFFFFFFFFFFFFFFCA
:10470000FFFFFFFFFFFFFFFFFFFFFFFFFFFFFFFFB9
:10471000FFFFFFFFFFFFFFFFFFFFFFFFFFFFFFFFA9
:10472000FFFFFFFFFFFFFFFFFFFFFFFFFFFFFFFF99
:10473000FFFFFFFFFFFFFFFFFFFFFFFFFFFFFFFF89
:10474000FFFFFFFFFFFFFFFFFFFFFFFFFFFFFFFF79
:10475000FFFFFFFFFFFFFFFFFFFFFFFFFFFFFFFF69
:10476000FFFFFFFFFFFFFFFFFFFFFFFFFFFFFFFF59
:10477000FFFFFFFFFFFFFFFFFFFFFFFFFFFFFFFF49
:10478000FFFFFFFFFFFFFFFFFFFFFFFFFFFFFFFF39
:10479000FFFFFFFFFFFFFFFFFFFFFFFFFFFFFFFF29
:1047A000FFFFFFFFFFFFFFFFFFFFFFFFFFFFFFFF19
:1047B000FFFFFFFFFFFFFFFFFFFFFFFFFFFFFFFF09
:1047C000FFFFFFFFFFFFFFFFFFFFFFFFFFFFFFFFF9
:1047D000FFFFFFFFFFFFFFFFFFFFFFFFFFFFFFFFE9
:1047E000FFFFFFFFFFFFFFFFFFFFFFDFFF9EFFFF5A
:1047F000FFFFFFFFFFFFFFFFFFFFFFFFFFFFFFFFC9
:10480000FFFFFFFFFFFFFFFFFFFFFFFFFFFFFFFFB8
:10481000FFFFFFFFFFFFFFFFFFFFFFFFFFFFFFFFA8
:10482000FFFFFFFFFFFFFFFFFFFFFFFFFFFFFFFF98
:10483000FFFFFFFFFFFFFFFFFFFFFFFFFFFFFFFF88
:10484000FFFFFFFFFFFFFFFFFFFFFFFFFFFFFFFF78
:10485000FFFFFFFFFFFFFFFFFFFFFFFFFFFFFFFF68
:10486000FFFFFFFFFFFFFFFFFFFFFFFFFFFFFFFF58
:10487000FFFFFFFFFFFFFFFFFFFFFFFFFFFFFFFF48
:10488000FFFFFFFFFFFFFFFFFFFFFFFFFFFFFFFF38
:10489000FFFFFFFFFFFFFFFFFFFFFFFFFFFFFFFF28
:1048A000FFFFFFFFFFFFFFFFFFFFFFFFFFFFFFFF18
:1048B000FFFFFFFFFFFFFFFFFFFFFFFFFFFFFFFF08
:1048C000FFFFFFFFFFFFFFFFFFFFFFFFFFFFFFFFF8
:1048D000FFFFFFFFFFFFFFFFFFFFFFFFFFFFFFFFE8
:1048E000FFFFFFFFFFFFFFFFFFFFFFFFFFFFFFFFD8
:1048F000FFFFFFFFFFFFFFFFFFFFFFFFFFFFFFFFC8
:10490000FFFFFFFFFFFFFFFFFFFFFFFFFFFFFFFFB7
:10491000FFFFFFFFFFFFFFFFFFFFFFFFFFFFFFFFA7
:10492000FFFFFFFFFFFFFFFFFFFFFFFFFFFFFFFF97
:10493000FFFFFFFFFFFFFFFFFFFFFFFFFFFFFFFF87
:10494000FFFFFFFFFFFFFFFFFFFFFFFFFFFFFFFF77
:10495000FFFFFFFFFFFFFFFFFFFFFFFFFFFFFFFF67
:10496000FFFFFFFFFFFFFFFFFFFFFFFFFFFFFFFF57
:10497000FFFFFFFFFFFFFFFFFFFFFFFFFFFFFFFF47
:10498000FFFFFFFFFFFFFFFFFFFFFFFFFFFFFFFF37
:10499000FFFFFFFFFFFFFFFFFFFFFFFFFFFFFFFF27
:1049A000FFFFFFFFFFFFFFFFFFFFFFFFFFFFFFFF17
:1049B000FFFFFFFFFFFFFFFFFFFFFFFFFFFFFFFF07
:1049C000FFFFFFFFFFFFFFFFFFFFFFDFFF9EFFFF78
:1049D000FFFFFFFFFFFFFFFFFFFFFFFFFFFFFFFFE7
:1049E000FFFFFFFFFFFFFFFFFFFFFFFFFFFFFFFFD7
:1049F000FFFFFFFFFFFFFFFFFFFFFFFFFFFFFFFFC7
:104A0000FFFFFFFFFFFFFFFFFFFFFFFFFFFFFFFFB6
:104A1000FFFFFFFFFFFFFFFFFFFFFFFFFFFFFFFFA6
:104A2000FFFFFFFFFFFFFFFFFFFFFFFFFFFFFFFF96
:104A3000FFFFFFFFFFFFFFFFFFFFFFFFFFFFFFFF86
:104A4000FFFFFFFFFFFFFFFFFFFFFFFFFFFFFFFF76
:104A5000FFFFFFFFFFFFFFFFFFFFFFFFFFFFFFFF66
:104A6000FFFFFFFFFFFFFFFFFFFFFFFFFFFFFFFF56
:104A7000FFFFFFFFFFFFFFFFFFFFFFFFFFFFFFFF46
:104A8000FFFFFFFFFFFFFFFFFFFFFFFFFFFFFFFF36
:104A9000FFFFFFFFFFFFFFFFFFFFFFFFFFFFFFFF26
:104AA000FFFFFFFFFFFFFFFFFFFFFFFFFFFFFFFF16
:104AB000FFFFFFFFFFFFFFFFFFFFFFFFFFFFFFFF06
:104AC000FFFFFFFFFFFFFFFFFFFFFFFFFFFFFFFFF6
:104AD000FFFFFFFFFFFFFFFFFFFFFFFFFFFFFFFFE6
:104AE000FFFFFFFFFFFFFFFFFFFFFFFFFFFFFFFFD6
:104AF000FFFFFFFFFFFFFFFFFFFFFFFFFFFFFFFFC6
:104B0000FFFFFFFFFFFFFFFFFFFFFFFFFFFFFFFFB5
:104B1000FFFFFFFFFFFFFFFFFFFFFFFFFFFFFFFFA5
:104B2000FFFFFFFFFFFFFFFFFFFFFFFFFFFFFFFF95
:104B3000FFFFFFFFFFFFFFFFFFFFFFFFFFFFFFFF85
:104B4000FFFFFFFFFFFFFFFFFFFFFFFFFFFFFFFF75
:104B5000FFFFFFFFFFFFFFFFFFFFFFFFFFFFFFFF65
:104B6000FFFFFFFFFFFFFFFFFFFFFFFFFFFFFFFF55
:104B7000FFFFFFFFFFFFFFFFFFFFFFFFFFFFFFFF45
:104B8000FFFFFFFFFFFFFFFFFFFFFFFFFFFFFFFF35
:104B9000FFFFFFFFFFFFFFFFFFFFFFFFFFFFFFFF25
:104BA000FFFFFFFFFFFFFFFFFFFFFFDFFFBEFFFF76
:104BB000FFFFFFFFFFFFFFFFFFFFFFFFFFFFFFFF05
:104BC000FFFFFFFFFFFFFFFFFFFFFFFFFFFFFFFFF5
:104BD000FFFFFFFFFFFFFFFFFFFFFFFFFFFFFFFFE5
:104BE000FFFFFFFFFFFFFFFFFFFFFFFFFFFFFFFFD5
:104BF000FFFFFFFFFFFFFFFFFFFFFFFFFFFFFFFFC5
:104C0000FFFFFFFFFFFFFFFFFFFFFFFFFFFFFFFFB4
:104C1000FFFFFFFFFFFFFFFFFFFFFFFFFFFFFFFFA4
:104C2000FFFFFFFFFFFFFFFFFFFFFFFFFFFFFFFF94
:104C3000FFFFFFFFFFFFFFFFFFFFFFFFFFFFFFFF84
:104C4000FFFFFFFFFFFFFFFFFFFFFFFFFFFFFFFF74
:104C5000FFFFFFFFFFFFFFFFFFFFFFFFFFFFFFFF64
:104C6000FFFFFFFFFFFFFFFFFFFFFFFFFFFFFFFF54
:104C7000FFFFFFFFFFFFFFFFFFFFFFFFFFFFFFFF44
:104C8000FFFFFFFFFFFFFFFFFFFFFFFFFFFFFFFF34
:104C9000FFFFFFFFFFFFFFFFFFFFFFFFFFFFFFFF24
:104CA000FFFFFFFFFFFFFFFFFFFFFFFFFFFFFFFF14
:104CB000FFFFFFFFFFFFFFFFFFFFFFFFFFFFFFFF04
:104CC000FFFFFFFFFFFFFFFFFFFFFFFFFFFFFFFFF4
:104CD000FFFFFFFFFFFFFFFFFFFFFFFFFFFFFFFFE4
:104CE000FFFFFFFFFFFFFFFFFFFFFFFFFFFFFFFFD4
:104CF000FFFFFFFFFFFFFFFFFFFFFFFFFFFFFFFFC4
:104D0000FFFFFFFFFFFFFFFFFFFFFFFFFFFFFFFFB3
:104D1000FFFFFFFFFFFFFFFFFFFFFFFFFFFFFFFFA3
:104D2000FFFFFFFFFFFFFFFFFFFFFFFFFFFFFFFF93
:104D3000FFFFFFFFFFFFFFFFFFFFFFFFFFFFFFFF83
:104D4000FFFFFFFFFFFFFFFFFFFFFFFFFFFFFFFF73
:104D5000FFFFFFFFFFFFFFFFFFFFFFFFFFFFFFFF63
:104D6000FFFFFFFFFFFFFFFFFFFFFFFFFFFFFFFF53
:104D7000FFFFFFFFFFFFFFFFFFFFFFFFFFFFFFFF43
:104D8000FFFFFFFFFFFFFFFFFFFFFFDFFFBEFFFF94
:104D9000FFFFFFFFFFFFFFFFFFFFFFFFFFFFFFFF23
:104DA000FFFFFFFFFFFFFFFFFFFFFFFFFFFFFFFF13
:104DB000FFFFFFFFFFFFFFFFFFFFFFFFFFFFFFFF03
:104DC000FFFFFFFFFFFFFFFFFFFFFFFFFFFFFFFFF3
:104DD000FFFFFFFFFFFFFFFFFFFFFFFFFFFFFFFFE3
:104DE000FFFFFFFFFFFFFFFFFFFFFFFFFFFFFFFFD3
:104DF000FFFFFFFFFFFFFFFFFFFFFFFFFFFFFFFFC3
:104E0000FFFFFFFFFFFFFFFFFFFFFFFFFFFFFFFFB2
:104E1000FFFFFFFFFFFFFFFFFFFFFFFFFFFFFFFFA2
:104E2000FFFFFFFFFFFFFFFFFFFFFFFFFFFFFFFF92
:104E3000FFFFFFFFFFFFFFFFFFFFFFFFFFFFFFFF82
:104E4000FFFFFFFFFFFFFFFFFFFFFFFFFFFFFFFF72
:104E5000FFFFFFFFFFFFFFFFFFFFFFFFFFFFFFFF62
:104E6000FFFFFFFFFFFFFFFFFFFFFFFFFFFFFFFF52
:104E7000FFFFFFFFFFFFFFFFFFFFFFFFFFFFFFFF42
:104E8000FFFFFFFFFFFFFFFFFFFFFFFFFFFFFFFF32
:104E9000FFFFFFFFFFFFFFFFFFFFFFFFFFFFFFFF22
:104EA000FFFFFFFFFFFFFFFFFFFFFFFFFFFFFFFF12
:104EB000FFFFFFFFFFFFFFFFFFFFFFFFFFFFFFFF02
:104EC000FFFFFFFFFFFFFFFFFFFFFFFFFFFFFFFFF2
:104ED000FFFFFFFFFFFFFFFFFFFFFFFFFFFFFFFFE2
:104EE000FFFFFFFFFFFFFFFFFFFFFFFFFFFFFFFFD2
:104EF000FFFFFFFFFFFFFFFFFFFFFFFFFFFFFFFFC2
:104F0000FFFFFFFFFFFFFFFFFFFFFFFFFFFFFFFFB1
:104F1000FFFFFFFFFFFFFFFFFFFFFFFFFFFFFFFFA1
:104F2000FFFFFFFFFFFFFFFFFFFFFFFFFFFFFFFF91
:104F3000FFFFFFFFFFFFFFFFFFFFFFFFFFFFFFFF81
:104F4000FFFFFFFFFFFFFFFFFFFFFFFFFFFFFFFF71
:104F5000FFFFFFFFFFFFFFFFFFFFFFFFFFFFFFFF61
:104F6000FFFFFFFFFFFFFFFFFFFFFFFFFFDFFFFF71
:104F7000FFFFFFFFFFFFFFFFFFFFFFFFFFFFFFFF41
:104F8000FFFFFFFFFFFFFFFFFFFFFFFFFFFFFFFF31
:104F9000FFFFFFFFFFFFFFFFFFFFFFFFFFFFFFFF21
:104FA000FFFFFFFFFFFFFFFFFFFFFFFFFFFFFFFF11
:107B5000FFFFFFFFFFFFFFFFFFFFFFFFFFDFFFDF75
:107B6000FFFFFFFFFFFFFFFFFFFEFFFEFFFFFFFF27
:107B7000FFFFFFFFFFFFFFFFFFFFFFFFFFFFFFFF15
:107B8000FFFFFFFFFFFFFFFFFFFFFFFFFFFFFFFF05
:107B9000FFFFFFFFFFFFFFFFFFFFFFFFFFFFFFFFF5
:107BA000FFFFFFFFFFFFFFFFFFFFFFFFFFFFFFFFE5
:107BB000FFFFFFFFFFFFFFFFFFFFFFFFFFFFFFFFD5
:107BC000FFFFFFFFFFFFFFFFFFFFFFFFFFFFFFFFC5
:107BD000FFFFFFFFFFFFFFFFFFFFFFFFFFFFFFFFB5
:107BE000FFFFFFFFFFFFFFFFFFFFFFFFFFFFFFFFA5
:107BF000FFFFFFFFFFFFFFFFFFFFFFFFFFFFFFFF95
:107C0000FFFFFFFFFFFFFFFFFFFFFFFFFFFFFFFF84
:107C1000FFFFFFFFFFFFFFFFFFFFFFFFFFFFFFFF74
:107C2000FFFFFFFFFFFFFFFFFFFFFFFFFFFFFFFF64
:107C3000FFFFFFFFFFFFFFFFFFFFFFFFFFFFFFFF54
:107C4000FFFFFFFFFFFFFFFFFFFFFFFFFFFFFFFF44
:107C5000FFFFFFFFFFFFFFFFFFFFFFFFFFFFFFFF34
:107C6000FFFFFFFFFFFFFFFFFFFFFFFFFFFFFFFF24
:107C7000FFFFFFFFFFFFFFFFFFFFFFFFFFFFFFFF14
:107C8000FFFFFFFFFFFFFFFFFFFFFFFFFFFFFFFF04
:107C9000FFFFFFFFFFFFFFFFFFFFFFFFFFFFFFFFF4
:107CA000FFFFFFFFFFFFFFFFFFFFFFFFFFFFFFFFE4
:107CB000FFFFFFFFFFFFFFFFFFFFFFFFFFFFFFFFD4
:107CC000FFFFFFFFFFFFFFFFFFFFFFFFFFFFFFFFC4
:107CD000FFFFFFFFFFFFFFFFFFFFFFFFFFFFFFFFB4
:107CE000FFFFFFFFFFFFFFFFFFFFFFFFFFFFFFFFA4
:107CF000FFFFFFFFFFFFFFFFFFFFFFFFFFFFFFFF94
:107D0000FFFFFFFFFFFFFFFFFFFFFFFFFFFFFFFF83
:107D1000FFFFFFFFFFFFFFFFFFFFFFFFFFFFFFFF73
:107D2000FFFFFFFFFFDFFFFFFFFFFFFFFFFFFFFF83
:107D3000FFFFFFFFFFFFFFFFFFFFFFFFFFFFFFFF53
:107D4000FFFFFFFFFFFFFFFFFFDFFFFFFFFFFFFF63
:107D5000FFFFFFFFFFFFFFFFFFFFFFFFFFFFFFFF33
:107D6000FFFFFFFFFFFFFFFFFFFFFFFFFFFFFFFF23
:107D7000FFFFFFFFFFFFFFFFFFFFFFFFFFFFFFFF13
:107D8000FFFFFFFFFFFFFFFFFFFFFFFFFFFFFFFF03
:107D9000FFFFFFFFFFFFFFFFFFFFFFFFFFFFFFFFF3
:107DA000FFFFFFFFFFFFFFFFFFFFFFFFFFFFFFFFE3
:107DB000FFFFFFFFFFFFFFFFFFFFFFFFFFFFFFFFD3
:107DC000FFFFFFFFFFFFFFFFFFFFFFFFFFFFFFFFC3
:107DD000FFFFFFFFFFFFFFFFFFFFFFFFFFFFFFFFB3
:107DE000FFFFFFFFFFFFFFFFFFFFFFFFFFFFFFFFA3
:107DF000FFFFFFFFFFFFFFFFFFFFFFFFFFFFFFFF93
:107E0000FFFFFFFFFFFFFFFFFFFFFFFFFFFFFFFF82
:107E1000FFFFFFFFFFFFFFFFFFFFFFFFFFFFFFFF72
:107E2000FFFFFFFFFFFFFFFFFFFFFFFFFFFFFFFF62
:107E3000FFFFFFFFFFFFFFFFFFFFFFFFFFFFFFFF52
:107E4000FFFFFFFFFFFFFFFFFFFFFFFFFFFFFFFF42
:107E5000FFFFFFFFFFFFFFFFFFFFFFFFFFFFFFFF32
:107E6000FFFFFFFFFFFFFFFFFFFFFFFFFFFFFFFF22
:107E7000FFFFFFFFFFFFFFFFFFFFFFFFFFFFFFFF12
:107E8000FFFFFFFFFFFFFFFFFFFFFFFFFFFFFFFF02
:107E9000FFFFFFFFFFFFFFFFFFFFFFFFFFFFFFFFF2
:107EA000FFFFFFFFFFFFFFFFFFFFFFFFFFFFFFFFE2
:107EB000FFFFFFFFFFFFFFFFFFFFFFFFFFFFFFFFD2
:107EC000FFFFFFFFFFFFFFFFFFFFFFFFFFFFFFFFC2
:107ED000FFFFFFFFFFFFFFFFFFFFFFFFFFFFFFFFB2
:107EE000FFFFFFFFFFFFFFFFFFFFFFFFFFFFFFFFA2
:107EF000FFFFFFFFFFFFFFFFFFFFFFFFFFFFFFFF92
:107F0000FFDFFFFFFFFFFFFFFFFFFFFFFFFFFFFFA1
:107F1000FFFFFFFFFFFFFFFFFFFFFFFFFFFFFFFF71
:107F2000FFDEE71BD638C5B5B534BD54BD74B554B6
:107F3000BD95D638EF1CFF9EFFFFFFFFFFFFFFFF41
:107F4000FFFFFFFFFFFFFFFFFFFFFFFFFFFFFFFF41
:107F5000FFFFFFFFFFFFFFFFFFFFFFFFFFFFFFFF31
:107F6000FFFFFFFFFFFFFFFFFFFFFFFFFFFFFFFF21
:107F7000FFFFFFFFFFFFFFFFFFFFFFFFFFFFFFFF11
:107F8000FFFFFFFFFFFFFFFFFFFFFFFFFFFFFFFF01
:107F9000FFFFFFFFFFFFFFFFFFFFFFFFFFFFFFFFF1
:107FA000FFFFFFFFFFFFFFFFFFFFFFFFFFFFFFFFE1
:107FB000FFFFFFFFFFFFFFFFFFFFFFFFFFFFFFFFD1
:107FC000FFFFFFFFFFFFFFFFFFFFFFFFFFFFFFFFC1
:107FD000FFFFFFFFFFFFFFFFFFFFFFFFFFFFFFFFB1
:107FE000FFFFFFFFFFFFFFFFFFFFFFFFFFFFFFFFA1
:107FF000FFFFFFFFFFFFFFFFFFFFFFFFFFFFFFFF91
:10800000FFFFFFFFFFFFFFFFFFFFFFFFFFFFFFFF80
:10801000FFFFFFFFFFFFFFFFFFFFFFFFFFFFFFFF70
:10802000FFFFFFFFFFFFFFFFFFFFFFFFFFFFFFFF60
:10803000FFFFFFFFFFFFFFFFFFFFFFFFFFFFFFFF50
:10804000FFFFFFFFFFFFFFFFFFFFFFFFFFFFFFFF40
:10805000FFFFFFFFFFFFFFFFFFFFFFFFFFFFFFFF30
:10806000FFFFFFFFFFFFFFFFFFFFFFFFFFFFFFFF20
:10807000FFFFFFFFFFFFFFFFFFFFFFFFFFFFFFFF10
:10808000FFFFFFFFFFFFFFFFFFFFFFFFFFFFFFFF00
:10809000FFFFFFFFFFFFFFFFFFFFFFFFFFFFFFFFF0
:1080A000FFFFFFFFFFFFFFFFFFFFFFFFFFFFFFFFE0
:1080B000FFFFFFFFFFFFFFFFFFFFFFFFFFFFFFFFD0
:1080C000FFFFFFFFFFFFFFFFFFFFFFFFFFFFFFFFC0
:1080D000FFFFFFFFFFFFFFFFFFFFFFFFFFFFFFFFB0
:1080E000FFFFFFFFFFFFFFFFFFFFFFFFFFFFFFFFA0
:1080F000FFFFFFFFFFFFFFFFFFBED657BD528BAC58
:108100007B0A6A8851854964492338A138C338A35A
:1081100038E4412551C76A4A7B0DA4D3CE18F77EB7
:10812000FFDFFFFFFFFFFFFFFFFFFFFFFFFFFFFF7F
:10813000FFFFFFFFFFFFFFFFFFFFFFFFFFFFFFFF4F
:10814000FFFFFFFFFFFFFFFFFFFFFFFFFFFFFFFF3F
:10815000FFFFFFFFFFFFFFFFFFFFFFFFFFFFFFFF2F
:10816000FFFFFFFFFFFFFFFFFFFFFFFFFFFFFFFF1F
:10817000FFFFFFFFFFFFFFFFFFFFFFFFFFFFFFFF0F
:10818000FFFFFFFFFFFFFFFFFFFFFFFFFFFFFFFFFF
:10819000FFFFFFFFFFFFFFFFFFFFFFFFFFFFFFFFEF
:1081A000FFFFFFFFFFFFFFFFFFFFFFFFFFFFFFFFDF
:1081B000FFFFFFFFFFFFFFFFFFFFFFFFFFFFFFFFCF
:1081C000FFFFFFFFFFFFFFFFFFFFFFFFFFFFFFFFBF
:1081D000FFFFFFFFFFFFFFFFFFFFFFFFFFFFFFFFAF
:1081E000FFFFFFFFFFFFFFFFFFFFFFFFFFFFFFFF9F
:1081F000FFFFFFFFFFFFFFFFFFFFFFFFFFFFFFFF8F
:10820000FFFFFFFFFFFFFFFFFFFFFFFFFFFFFFFF7E
:10821000FFFFFFFFFFFFFFFFFFFFFFFFFFFFFFFF6E
:10822000FFFFFFFFFFFFFFFFFFFFFFFFFFFFFFFF5E
:10823000FFFFFFFFFFFFFFFFFFFFFFFFFFFFFFFF4E
:10824000FFFFFFFFFFFFFFFFFFFFFFFFFFFFFFFF3E
:10825000FFFFFFFFFFFFFFFFFFFFFFFFFFFFFFFF2E
:10826000FFFFFFFFFFFFFFFFFFFFFFFFFFFFFFFF1E
:10827000FFFFFFFFFFFFFFFFFFFFFFFFFFFFFFFF0E
:10828000FFFFFFFFFFFFFFFFFFFFFFFFFFFFFFFFFE
:10829000FFFFFFFFFFFFFFFFFFFFFFFFFFFFFFFFEE
:1082A000FFFFFFFFFFFFFFFFFFFFFFFFFFFFFFFFDE
:1082B000FFFFFFFFFFFFFFFFFFFFFFFFFFFFFFFFCE
:1082C000FFFFFFFFFFFFFFFFFFFFFFFFFFFFFFFFBE
:1082D000FFFFF77CD636C593BD0FAC6C936C61E69F
:1082E00059E66A4959E859E95A0A59EA51EA51EAFC
:1082F0005A0A51CA49893928414830C53927520A92
:10830000838FC5B7FF7EFFFFFFFFFFFFFFDFFFFF8C
:10831000FFFFFFFFFFFFFFFFFFFFFFFFFFFFFFFF6D
:10832000FFFFFFFFFFFFFFFFFFFFFFFFFFFFFFFF5D
:10833000FFFFFFFFFFFFFFFFFFFFFFFFFFFFFFFF4D
:10834000FFFFFFFFFFFFFFFFFFFFFFFFFFFFFFFF3D
:10835000FFFFFFFFFFFFFFFFFFFFFFFFFFFFFFFF2D
:10836000FFFFFFFFFFFFFFFFFFFFFFFFFFFFFFFF1D
:10837000FFFFFFFFFFFFFFFFFFFFFFFFFFFFFFFF0D
:10838000FFFFFFFFFFFFFFFFFFFFFFFFFFFFFFFFFD
:10839000FFFFFFFFFFFFFFFFFFFFFFFFFFFFFFFFED
:1083A000FFFFFFFFFFFFFFFFFFFFFFFFFFFFFFFFDD
:1083B000FFFFFFFFFFFFFFFFFFFFFFFFFFFFFFFFCD
:1083C000FFFFFFFFFFFFFFFFFFFFFFFFFFFFFFFFBD
:1083D000FFFFFFFFFFFFFFFFFFFFFFFFFFFFFFFFAD
:1083E000FFFFFFFFFFFFFFFFFFFFFFFFFFFFFFFF9D
:1083F000FFFFFFFFFFFFFFFFFFFFFFFFFFFFFFFF8D
:10840000FFFFFFFFFFFFFFFFFFFFFFFFFFFFFFFF7C
:10841000FFFFFFFFFFFFFFFFFFFFFFFFFFFFFFFF6C
:10842000FFFFFFFFFFFFFFFFFFFFFFFFFFFFFFFF5C
:10843000FFFFFFFFFFFFFFFFFFFFFFFFFFFFFFFF4C
:10844000FFFFFFFFFFFFFFFFFFFFFFFFFFFFFFFF3C
:10845000FFFFFFFFFFFFFFFFFFFFFFFFFFFFFFFF2C
:10846000FFFFFFFFFFFFFFFFFFFFFFFFFFFFFFFF1C
:10847000FFFFFFFFFFFFFFFFFFFFFFFFFFFFFFFF0C
:10848000FFFFFFFFFFFFFFFFFFFFFFFFFFFFFFFFFC
:10849000FFFFFFFFFFFFFFFFFFFFFFFFFFFFFFFFEC
:1084A000FFFFFFFFFFFFFFFFFFFFFFDEFFFECDF639
:1084B000BD73BD30ACADA42B8B8A622849684128BE
:1084C0003908414A49AC49CD41CD41EE49EE41EE32
:1084D00041CE49EE4A0F49EE49EE520E51ED416B45
:1084E000310839085A2B8BD1CDF9FFFFFFFFFFFF71
:1084F000FFFFFFFFFFFFFFFFFFFFFFFFFFFFFFFF8C
:10850000FFFFFFFFFFFFFFFFFFFFFFFFFFFFFFFF7B
:10851000FFFFFFFFFFFFFFFFFFFFFFFFFFFFFFFF6B
:10852000FFFFFFFFFFFFFFFFFFFFFFFFFFFFFFFF5B
:10853000FFFFFFFFFFFFFFFFFFFFFFFFFFFFFFFF4B
:10854000FFFFFFFFFFFFFFFFFFFFFFFFFFFFFFFF3B
:10855000FFFFFFFFFFFFFFFFFFFFFFFFFFFFFFFF2B
:10856000FFFFFFFFFFFFFFFFFFFFFFFFFFFFFFFF1B
:10857000FFFFFFFFFFFFFFFFFFFFFFFFFFFFFFFF0B
:10858000FFFFFFFFFFFFFFFFFFFFFFFFFFFFFFFFFB
:10859000FFFFFFFFFFFFFFFFFFFFFFFFFFFFFFFFEB
:1085A000FFFFFFFFFFFFFFFFFFFFFFFFFFFFFFFFDB
:1085B000FFFFFFFFFFFFFFFFFFFFFFFFFFFFFFFFCB
:1085C000FFFFFFFFFFFFFFFFFFFFFFFFFFFFFFFFBB
:1085D000FFFFFFFFFFFFFFFFFFFFFFFFFFFFFFFFAB
:1085E000FFFFFFFFFFFFFFFFFFFFFFFFFFFFFFFF9B
:1085F000FFFFFFFFFFFFFFFFFFFFFFFFFFFFFFFF8B
:10860000FFFFFFFFFFFFFFFFFFFFFFFFFFFFFFFF7A
:10861000FFFFFFFFFFFFFFFFFFFFFFFFFFFFFFFF6A
:10862000FFFFFFFFFFFFFFFFFFFFFFFFFFFFFFFF5A
:10863000FFFFFFFFFFFFFFFFFFFFFFFFFFFFFFFF4A
:10864000FFFFFFFFFFFFFFFFFFFFFFFFFFFFFFFF3A
:10865000FFFFFFFFFFFFFFFFFFFFFFFFFFFFFFFF2A
:10866000FFFFFFFFFFFFFFFFFFFFFFFFFFFFFFFF1A
:10867000FFFFFFFFFFFFFFFFFFFFFFFFFFFFFFFF0A
:10868000FFFFFFFFFFFFFFFFF79DBDB5B532B4CC85
:108690009C0A9BAB7ACA49472865310949AA628E70
:1086A00062AF520E49EF51F149F149D149D249D255
:1086B00049D249D149D151F249D149F149F149F061
:1086C0005210520F418C30C93929B576FF9EFFFFF9
:1086D000FFFFFFFFFFFFFFFFFFFFFFFFFFFFFFFFAA
:1086E000FFFFFFFFFFFFFFFFFFFFFFFFFFFFFFFF9A
:1086F000FFFFFFFFFFFFFFFFFFFFFFFFFFFFFFFF8A
:10870000FFFFFFFFFFFFFFFFFFFFFFFFFFFFFFFF79
:10871000FFFFFFFFFFFFFFFFFFFFFFFFFFFFFFFF69
:10872000FFFFFFFFFFFFFFFFFFFFFFFFFFFFFFFF59
:10873000FFFFFFFFFFFFFFFFFFFFFFFFFFFFFFFF49
:10874000FFFFFFFFFFFFFFFFFFFFFFFFFFFFFFFF39
:10875000FFFFFFFFFFFFFFFFFFFFFFFFFFFFFFFF29
:10876000FFFFFFFFFFFFFFFFFFFFFFFFFFFFFFFF19
:10877000FFFFFFFFFFFFFFFFFFFFFFFFFFFFFFFF09
:10878000FFFFFFFFFFFFFFFFFFFFFFFFFFFFFFFFF9
:10879000FFFFFFFFFFFFFFFFFFFFFFFFFFFFFFFFE9
:1087A000FFFFFFFFFFFFFFFFFFFFFFFFFFFFFFFFD9
:1087B000FFFFFFFFFFFFFFFFFFFFFFFFFFFFFFFFC9
:1087C000FFFFFFFFFFFFFFFFFFFFFFFFFFFFFFFFB9
:1087D000FFFFFFFFFFFFFFFFFFFFFFFFFFFFFFFFA9
:1087E000FFFFFFFFFFFFFFFFFFFFFFFFFFFFFFFF99
:1087F000FFFFFFFFFFFFFFFFFFFFFFFFFFFFFFFF89
:10880000FFFFFFFFFFFFFFFFFFFFFFFFFFFFFFFF78
:10881000FFFFFFFFFFFFFFFFFFFFFFFFFFFFFFFF68
:10882000FFFFFFFFFFFFFFFFFFFFFFFFFFFFFFFF58
:10883000FFFFFFFFFFFFFFFFFFFFFFFFFFFFFFFF48
:10884000FFFFFFFFFFFFFFFFFFFFFFFFFFFFFFFF38
:10885000FFFFFFFFFFFFFFFFFFDFFFFFFFFFFFFF48
:10886000FFFFFFFFFF9EBD93ACCEB4ACAC4C834B7F
:108870004966286320453909624D7B5083B37B5399
:10888000629249D1419249D341D441B341F441F478
:1088900041F449F449F449F449F449F349F449F3FA
:1088A00049F349F34A124A114A1030E95A4CB516B5
:1088B000FFDFFFFFFFFFFFFEFFDFFFFFFFFFFFFF09
:1088C000FFFFFFFFFFFFFFFFFFFFFFFFFFFFFFFFB8
:1088D000FFFFFFFFFFFFFFFFFFFFFFFFFFFFFFFFA8
:1088E000FFFFFFFFFFFFFFFFFFFFFFFFFFFFFFFF98
:1088F000FFFFFFFFFFFFFFFFFFFFFFFFFFFFFFFF88
:10890000FFFFFFFFFFFFFFFFFFFFFFFFFFFFFFFF77
:10891000FFFFFFFFFFFFFFFFFFFFFFFFFFFFFFFF67
:10892000FFFFFFFFFFFFFFFFFFFFFFFFFFFFFFFF57
:10893000FFFFFFFFFFFFFFFFFFFFFFFFFFFFFFFF47
:10894000FFFFFFFFFFFFFFFFFFFFFFFFFFFFFFFF37
:10895000FFFFFFFFFFFFFFFFFFFFFFFFFFFFFFFF27
:10896000FFFFFFFFFFFFFFFFFFFFFFFFFFFFFFFF17
:10897000FFFFFFFFFFFFFFFFFFFFFFFFFFFFFFFF07
:10898000FFFFFFFFFFFFFFFFFFFFFFFFFFFFFFFFF7
:10899000FFFFFFFFFFFFFFFFFFFFFFFFFFFFFFFFE7
:1089A000FFFFFFFFFFFFFFFFFFFFFFFFFFFFFFFFD7
:1089B000FFFFFFFFFFFFFFFFFFFFFFFFFFFFFFFFC7
:1089C000FFFFFFFEFFFFFFFFFFFFFFFFFFFFFFFFB8
:1089D000FFFFFFFFF7FFFFFFFFFFFFFFFFFFFFFFAF
:1089E000FFFFFFFFFFFFFFFFFFFFFFFFFFFFFFFF97
:1089F000FFFFFFFFFFFFFFFFFFFFFFFFFFFFFFFF87
:108A0000FFFFFFFFFFFFFFFFFFFFFFFFFFFFFFFF76
:108A1000FFFFFFFFFFFFFFFFFFFFFFFFFFFFFFFF66
:108A2000FFFFFFFFFFFFFFFFFFFFFFFFFFFFFFFF56
:108A3000FFFFFFFFFFDFFFFFFFFFFFFFFFFFFFFF66
:108A4000FFFFB553ACCDBD2EA44D72AA30C3200399
:108A500038C759EC72EF8391839262744192395214
:108A6000395341B449D541D541D441F441D541D5DB
:108A700041D549F549F549F549F549F449F449F431
:108A800049F449F44A134A134A1249F0396B310840
:108A90005A6DAD16FFFFFFFFFFFFFFFFFFFFFFFF58
:108AA000FFFFFFFFFFFFFFFFFFFFFFFFFFFFFFFFD6
:108AB000FFFFFFFFFFFFFFFFFFFFFFFFFFFFFFFFC6
:108AC000FFFFFFFFFFFFFFFFFFFFFFFFFFFFFFFFB6
:108AD000FFFFFFFFFFFFFFFFFFFFFFFFFFFFFFFFA6
:108AE000FFFFFFFFFFFFFFFFFFFFFFFFFFFFFFFF96
:108AF000FFFFFFFFFFFFFFFFFFFFFFFFFFFFFFFF86
:108B0000FFFFFFFFFFFFFFFFFFFFFFFFFFFFFFFF75
:108B1000FFFFFFFFFFFFFFFFFFFFFFFFFFFFFFFF65
:108B2000FFFFFFFFFFFFFFFFFFFFFFFFFFFFFFFF55
:108B3000FFFFFFFFFFFFFFFFFFFFFFFFFFFFFFFF45
:108B4000FFFFFFFFFFFFFFFFFFFFFFFFFFFFFFFF35
:108B5000FFFFFFFFFFFFFFFFFFFFFFFFFFFFFFFF25
:108B6000FFFFFFFFFFFFFFFFFFFFFFFFFFFFFFFF15
:108B7000FFFFFFFFFFFFFFFFFFFFFFFFFFFFFFFF05
:108B8000FFFFFFFFFFFFFFFFFFFFFFFFFFFFFFFFF5
:108B9000FFFFFFFFFFFFFFFFFFFFFFFFFFFFFFFFE5
:108BA000FFFFFFFFFFFFFFFFFFFFFFFFFFFFFFFFD5
:108BB000FFFFFFFFFFFFFFDEFFFFFFFFFFFFFFFFE6
:108BC000FFFFFFFFFFFFFFFFFFFFFFFFFFFFFFFFB5
:108BD000FFFFFFFFFFFFFFFFFFFFFFFFFFFFFFFFA5
:108BE000FFFFFFFFFFFFFFFFFFFFFFFFFFFFFFFF95
:108BF000FFFFFFFFFFFFFFFFFFFFFFFFFFFFFFFF85
:108C0000FFFFFFFFFFFFFFFFFFFFFFFFFFFFFFFF74
:108C1000FFFFFFFFFFFFFFFFFFFFFFFFEEFAA46E66
:108C2000AC8B832B306320043929626E837183936C
:108C30006AB2395131123973399341B539B441D5DA
:108C400041F539B439B541D641F641D641D641D680
:108C500041D641D641D641F641F641F641F641F7BB
:108C600049F749F749F64A1649F649F549F449D30F
:108C7000521351F0312A312983B1F75EFFFFFFFF14
:108C8000FFFFFFFFFFFFFFFFFFFFFFFFFFFFFFFFF4
:108C9000FFFFFFFFFFFFFFFFFFFFFFFFFFFFFFFFE4
:108CA000FFFFFFFFFFFFFFFFFFFFFFFFFFFFFFFFD4
:108CB000FFFFFFFFFFFFFFFFFFFFFFFFFFFFFFFFC4
:108CC000FFFFFFFFFFFFFFFFFFFFFFFFFFFFFFFFB4
:108CD000FFFFFFFFFFFFFFFFFFFFFFFFFFFFFFFFA4
:108CE000FFFFFFFFFFFFFFFFFFFFFFFFFFFFFFFF94
:108CF000FFFFFFFFFFFFFFFFFFFFFFFFFFFFFFFF84
:108D0000FFFFFFFFFFFFFFFFFFFFFFFFFFFFFFFF73
:108D1000FFFFFFFFFFFFFFFFFFFFFFFFFFFFFFFF63
:108D2000FFFFFFFFFFFFFFFFFFFFFFFFFFFFFFFF53
:108D3000FFFFFFFFFFFFFFFFFFFFFFFFFFFFFFFF43
:108D4000FFFFFFFFFFFFFFFFFFFFFFFFFFFFFFFF33
:108D5000FFFFFFFFFFFFFFFFFFFFFFFFFFFFFFFF23
:108D6000FFFFFFFFFFFFFFFFFFFFFFFFFFFFFFFF13
:108D7000FFFFFFFFFFFFFFFFFFFFFFFFFFFFFFFE04
:108D8000FFFEFFFFFFFFFFFFFFFFFFFFFFFFFFFFF4
:108D9000FFFFFFDFFFFFFFFFFFFFFFFFFFFFFFFF03
:108DA000FFFFFFFFFFFFFFFFFFFFFFFFFFFFFFFFD3
:108DB000FFFFFFFFFFFFFFFFFFFFFFFFFFFFFFFFC3
:108DC000FFFFFFFFFFFFFFFFFFFFFFFFFFFFFFFFB3
:108DD000FFFFFFFFFFFFFFFFFFFFFFFFFFFFFFFFA3
:108DE000FFFFFFFFFFFFFFFFFFFFFFFFFFFFFFFF93
:108DF000FFFFFFFFFFFFFFFFFFBFB5349C2CC56ED9
:108E00009BEB20033908626C8BB18393523228F1BB
:108E10003152399341B439B439B441B539B641B658
:108E200041B641D641D641D641D641D741D641F689
:108E300041F641F641F641F641F741F749F749F766
:108E400041F749F749F749F749F74A164A165216C2
:108E500049D449F3521149EF30EA49ABB557FFFF06
:108E6000FFFFFFFFFFFFFFFFFFFFFFFFFFFFFFFF12
:108E7000FFFFFFFFFFFFFFFFFFFFFFFFFFFFFFFF02
:108E8000FFFFFFFFFFFFFFFFFFFFFFFFFFFFFFFFF2
:108E9000FFFFFFFFFFFFFFFFFFFFFFFFFFFFFFFFE2
:108EA000FFFFFFFFFFFFFFFFFFFFFFFFFFFFFFFFD2
:108EB000FFFFFFFFFFFFFFFFFFFFFFFFFFFFFFFFC2
:108EC000FFFFFFFFFFFFFFFFFFFFFFFFFFFFFFFFB2
:108ED000FFFFFFFFFFFFFFFFFFFFFFFFFFFFFFFFA2
:108EE000FFFFFFFFFFFFFFFFFFFFFFFFFFFFFFFF92
:108EF000FFFFFFFFFFFFFFFFFFFFFFFFFFFFFFFF82
:108F0000FFFFFFFFFFFFFFFFFFFFFFFFFFFFFFFF71
:108F1000FFFFFFFFFFFFFFFFFFFFFFFFFFFFFFFF61
:108F2000FFFFFFFFFFFFFFFFFFFFFFFFFFFFFFFF51
:108F3000FFFFFFFFFFFFFFFFFFFFFFFFFFFFFFFF41
:108F4000FFFFFFFFFFFFFFFFFFFFFFFFFFFFFFFF31
:108F5000FFFFFFFFFFFFFFFFFFFFFFFFFFFFFFFF21
:108F6000FFFFFFFFFFFFFFFFFFFFFFFFFFFFFFFF11
:108F7000FFFFFFFFFFFFFFFFFFFFFFFFFFFFFFFF01
:108F8000FFFFFFFFFFFFFFFFFFFFFFFFFFFFFFFFF1
:108F9000FFFFFFFFFFFFFFFFFFFFFFFFFFFFFFFFE1
:108FA000FFFFFFFFFFFFFFFFFFFFFFFFFFFFFFFFD1
:108FB000FFFFFFFFFFFFFFFFFFFFFFFFFFFFFFFFC1
:108FC000FFFFFFFFFFFFFFFFFFFFFFFFFFFFFFFFB1
:108FD000FFFFFFFFFFFFF75D942EB50EB4EF622792
:108FE00020025A0B8B718B7252312910313239B3F6
:108FF00039B441D539B4399441D6419741B741B6D6
:1090000041B641B641B641B641B649D641D641D73F
:1090100041F741F741F741F741F741F749F749F780
:1090200049F749F749F749F749F74A1649F641F62A
:109030004A164A1549F44A135A11418E28EA83B256
:10904000F79FFFFFFFFFFFFFFFFFFFFFFFFFFFFF98
:10905000FFFFFFFFFFFFFFFFFFFFFFFFFFFFFFFF20
:10906000FFFFFFFFFFFFFFFFFFFFFFFFFFFFFFFF10
:10907000FFFFFFFFFFFFFFFFFFFFFFFFFFFFFFFF00
:10908000FFFFFFFFFFFFFFFFFFFFFFFFFFFFFFFFF0
:10909000FFFFFFFFFFFFFFFFFFFFFFFFFFFFFFFFE0
:1090A000FFFFFFFFFFFFFFFFFFFFFFFFFFFFFFFFD0
:1090B000FFFFFFFFFFFFFFFFFFFFFFFFFFFFFFFFC0
:1090C000FFFFFFFFFFFFFFFFFFFFFFFFFFFFFFFFB0
:1090D000FFFFFFFFFFFFFFFFFFFFFFFFFFFFFFFFA0
:1090E000FFFFFFFFFFFFFFFFFFFFFFFFFFFFFFFF90
:1090F000FFFFFFFFFFFFFFFFFFFFFFFFFFFFFFFF80
:10910000FFFFFFFFFFFFFFFFFFFFFFFFFFFFFFFF6F
:10911000FFFFFFFFFFFFFFFFFFFFFFFFFFFFFFFF5F
:10912000FFFFFFFFFFFFFFFFFFFFFFFFFFFFFFFF4F
:10913000FFFFFFFFFFFFFFFFFFFFFFFFFFFFFFDF5F
:10914000EEFBD5D7C513BC91AC0FBCF3CD95DE3784
:10915000EF3BFFFFFFFFFFFFFFFFFFFFFFFFFFFFF3
:10916000FFFFFFFFFFFFFFFFFFFFFFFFFFFFFFFF0F
:10917000FFFFFFFFFFFFFFFFFFFFFFFFFFFFFFFFFF
:10918000FFFFFFFFFFFFFFFFFFFFFFFFFFFFFFFFEF
:10919000FFFFFFFFFFFFFFFFFFFFFFFFFFFFFFFFDF
:1091A000FFFFFFFFFFFFFFFFFFFFFFFFFFFFFFFFCF
:1091B000FFFFFFFFDE5893ECC5909C0C288218033C
:1091C00041898BB2627330D13113419439B341B3C9
:1091D000399439963996399639B641B641B541B682
:1091E00041B641B641B641D741D641D641D741D724
:1091F00041D741D741D741F749F741F749F749F7F7
:1092000049F749F749F749F749F741F64A3741F62F
:1092100049F649F641D549F54A14521449D2312D3F
:109220005A6FFFFFFFFFFFFFFFFFFFFFFFFFFFFF83
:10923000FFFFFFFFFFFFFFFFFFFFFFFFFFFFFFFF3E
:10924000FFFFFFFFFFFFFFFFFFFFFFFFFFFFFFFF2E
:10925000FFFFFFFFFFFFFFFFFFFFFFFFFFFFFFFF1E
:10926000FFFFFFFFFFFFFFFFFFFFFFFFFFFFFFFF0E
:10927000FFFFFFFFFFFFFFFFFFFFFFFFFFFFFFFFFE
:10928000FFFFFFFFFFFFFFFFFFFFFFFFFFFFFFFFEE
:10929000FFFFFFFFFFFFFFFFFFFFFFFFFFFFFFFFDE
:1092A000FFFFFFFFFFFFFFFFFFFFFFFFFFFFFFFFCE
:1092B000FFFFFFFFFFFFFFFFFFFFFFFFFFFFFFFFBE
:1092C000FFFFFFFFFFFFFFFFFFFFFFFFFFFFFFFFAE
:1092D000FFFFFFFFFFFFFFFFFFFFFFFFFFFFFFFF9E
:1092E000FFFFFFFFFFFFFFFFFFFFFFFFFFFFFFFF8E
:1092F000FFFFFFFFFFFFFFFFFFFFFFFFFFFFFFFF7E
:10930000FFFFFFFFFFFFFFFFFFFFFFFFFFFFFFFF6D
:10931000FFFFFFFFFFFFFFFFFFFFFFDFCDB69BED6E
:109320009B278A03688068007001600070007000ED
:1093300078A39228AC0FDE37FFFFFFFFFFFFFFFF90
:10934000FFFFFFFFFFFFFFFFFFFFFFFFFFFFFFFF2D
:10935000FFFFFFFFFFFFFFFFFFFFFFFFFFFFFFFF1D
:10936000FFFFFFFFFFFFFFFFFFFFFFFFFFFFFFFF0D
:10937000FFFFFFFFFFFFFFFFFFFFFFFFFFFFFFFFFD
:10938000FFFFFFFFFFFFFFFFFFFFFFFFFFFFFFFFED
:10939000FFFFB553940AD5B17AA818012885626CED
:1093A00093D228EF3131399339B3399441744195CF
:1093B00041954195399539B539B539B641B641B779
:1093C00041B741B741B741B741D641D641D741D75F
:1093D00041D741D741D741F749F841D749F849F733
:1093E00049F749F749F749F749F74A18421742162A
:1093F0004A1741D649F749F74216421649F5521421
:10940000392EC5FAFFFFFFFFFFFFFFFFFFFFFFFF42
:10941000FFFFFFFFFFFFFFFFFFFFFFFFFFFFFFFF5C
:10942000FFFFFFFFFFFFFFFFFFFFFFFFFFFFFFFF4C
:10943000FFFFFFFFFFFFFFFFFFFFFFFFFFFFFFFF3C
:10944000FFFFFFFFFFFFFFFFFFFFFFFFFFFFFFFF2C
:10945000FFFFFFFFFFFFFFFFFFFFFFFFFFFFFFFF1C
:10946000FFFFFFFFFFFFFFFFFFFFFFFFFFFFFFFF0C
:10947000FFFFFFFFFFFFFFFFFFFFFFFFFFFFFFFFFC
:10948000FFFFFFFFFFFFFFFFFFFFFFFFFFFFFFFFEC
:10949000FFFFFFFFFFFFFFFFFFFFFFFFFFFFFFFFDC
:1094A000FFFFFFFFFFFFFFFFFFFFFFFFFFFFFFFFCC
:1094B000FFFFFFFFFFFFFFFFFFFFFFFFFFFFFFFFBC
:1094C000FFFFFFFFFFFFFFFFFFFFFFFFFFFFFFFFAC
:1094D000FFFFFFFFFFFFFFFFFFFFFFFFFFFFFFFF9C
:1094E000FFFFFFFFFFFFFFFFFFFFFFFFFFFFFFFF8C
:1094F000FFDFFFFFFFFFFFFEE65A9B0993268AE48A
:109500008A03892280A28021900288018801880133
:1095100080007800780070009186B3AEDE78FFFF9F
:10952000FFFFFFFFFFFFFFFFFFFFFFFFFFFFFFFF4B
:10953000FFFFFFFFFFFFFFFFFFFFFFFFFFFFFFFF3B
:10954000FFFFFFFFFFFFFFFFFFFFFFFFFFFFFFFF2B
:10955000FFFFFFFFFFFFFFFFFFFFFFFFFFFFFFFF1B
:10956000FFFFF7FFFFFFFFFFFFFFFFFFFFFFFFFF13
:10957000B4B1A48CC570494318023908836F8BD1EC
:109580004192395241B439743995399539953995A3
:1095900039963996399641B6419641B741B741B7A8
:1095A00041B741B741D741D741D741D741D741D73B
:1095B00041D741D741D741F749F741D741F749F85A
:1095C00041F749F849F849F849F84A1849F849F87B
:1095D00049F749F74A174A1749F741F74A1649F533
:1095E0005235310EA4BAFFFEFFFEFFFFFFFFFFFF63
:1095F000FFFEFFFFFFFFFFFFFFFFFFFFFFFFFFFF7C
:10960000FFFFFFFFFFFFFFFFFFFFFFFFFFFFFFFF6A
:10961000FFFFFFFFFFFFFFFFFFFFFFFFFFFFFFFF5A
:10962000FFFFFFFFFFFFFFFFFFFFFFFFFFFFFFFF4A
:10963000FFFFFFFFFFFFFFFFFFFFFFFFFFFFFFFF3A
:10964000FFFFFFFFFFFFFFFFFFFFFFFFFFFFFFFF2A
:10965000FFFFFFFFFFFFFFFFFFFFFFFFFFFFFFFF1A
:10966000FFFFFFFFFFFFFFFFFFFFFFFFFFFFFFFF0A
:10967000FFFFFFFFFFFFFFFFFFFFFFFFFFFFFFFFFA
:10968000FFFFFFFFFFFFFFFFFFFFFFFFFFFFFFFFEA
:10969000FFFFFFFFFFFFFFFFFFFFFFFFFFFFFFFFDA
:1096A000FFFFFFFFFFFFFFFFFFFFFFFFFFFFFFFFCA
:1096B000FFFFFFFFFFFFFFFFFFFFFFFFFFFFFFFFBA
:1096C000FFFFFFFFFFFFFFFFFFFFFFFFF7FFFFFFB2
:1096D000FFFFFFFFFFFFCD777A6493669286788164
:1096E00078008820880090019021980198019801C5
:1096F0009801900190019001782078007801A24AA9
:10970000DDB6FFFFFFFFFFDFFFBFFFFFFFFFFFFF34
:10971000FFFFFFDFFFFFFFFFFFFFFFFFFFFFFFFF79
:10972000FFFFFFFFFFFFFFFFFFFFFFFFFFFFFFFF49
:10973000FFFFFFFFFFFFFFFFFFFFFFFFFFFFFFFF39
:10974000FFFFFFFFFFFFFFFFFFFFFFFFFF9D9C8F5E
:10975000BD0FB4F03080200251C994116AD130CFCE
:10976000395141943954395441963995399539963E
:109770003996399639964196419641B741B741B7E6
:1097800041B741B741D741D741D741D741D741D759
:1097900041D741D741D741F749F741D749F849F86F
:1097A00049F849F849F84A184A1849F849F84A184E
:1097B0004A184A174A174A174A1741F649F649F60E
:1097C00049D5419228EE9C99FFFFFFFEFFDFFFFF86
:1097D000FFFFFFFFFFFFFFFFFFFFFFFFFFFFFFFF99
:1097E000FFFFFFFFFFFFFFFFFFFFFFFFFFFFFFFF89
:1097F000FFFFFFFFFFFFFFFFFFFFFFFFFFFFFFFF79
:10980000FFFFFFFFFFFFFFFFFFFFFFFFFFFFFFFF68
:10981000FFFFFFFFFFFFFFFFFFFFFFFFFFFFFFFF58
:10982000FFFFFFFFFFFFFFFFFFFFFFFFFFFFFFFF48
:10983000FFFFFFFFFFFFFFFFFFFFFFFFFFFFFFFF38
:10984000FFFFFFFFFFFFFFFFFFFFFFFFFFFFFFFF28
:10985000FFFFFFFFFFFFFFFFFFFFFFFFFFFFFFFF18
:10986000FFFFFFFFFFFFFFFFFFFFFFFFFFFFFFFF08
:10987000FFFFFFFFFFFFFFFFFFFFFFFFFFFFFFFFF8
:10988000FFFFFFFFFFFFFFFFFFFFFFFFFFFFFFFFE8
:10989000FFFFFFFFFFFFFFFFFFFFFFFFFFFFFFFFD8
:1098A000FFFFFFFFFFFFFFFFFFFFFFFFFFFFFFFFC8
:1098B000FFDFFFFEC5778A44ABE97921782080007D
:1098C00098A3A18498E39801A002A002A002A0029C
:1098D000A002A002A002A001A001A00090008800A8
:1098E0007800D535FFFFF7FFFFFFFFFFFFFFFFFF0A
:1098F000FFFFFFFFFFFFFFFFFFFFFFFFFFFFFFFF78
:10990000FFFFFFFFFFFFFFFFFFFFFFFFFFFFFFFF67
:10991000FFFFFFFFFFFFFFFFFFFFFFFFFFFFFFFF57
:10992000FFFFFFDFFFFFFFFFFFFFFF9E940DB4EF80
:10993000A46E204028446A6C9C5249D028B0395308
:109940003953399439543975419639753996399660
:109950003996399639B639B641B741B741B741B7AB
:1099600041B741B741D741D741D741D741D741D777
:1099700041D741D741D741D741F741F749F849F895
:1099800049F849F849F84A184A1849F849F849F88D
:1099900049F84A184A184A1841D74A3849F74A1824
:1099A00041D74A1649F520909458FFFFFFFFFFFF6B
:1099B000FFDFFFFFFFFFFFFFFFFFFFFFFFFFFFFFD7
:1099C000FFFFFFFFFFFFFFFFFFFFFFFFFFFFFFFFA7
:1099D000FFFFFFFFFFFFFFFFFFFFFFFFFFFFFFFF97
:1099E000FFFFFFFFFFFFFFFFFFFFFFFFFFFFFFFF87
:1099F000FFFFFFFFFFFFFFFFFFFFFFFFFFFFFFFF77
:109A0000FFFFFFFFFFFFFFFFFFFFFFFFFFFFFFFF66
:109A1000FFFFFFFFFFFFFFFFFFFFFFFFFFFFFFFF56
:109A2000FFFFFFFFFFFFFFFFFFFFFFFFFFFFFFFF46
:109A3000FFFFFFFFFFFFFFFFFFFFFFFFFFFFFFFF36
:109A4000FFFFFFFFFFFFFFFFFFFFFFFFFFFFFFFF26
:109A5000FFFFFFFFFFFFFFFFFFFFFFFFFFFFFFFF16
:109A6000FFFFFFFFFFFFFFFFFFFFFFFFFFFFFFFF06
:109A7000FFFFFFFFFFFFFFFFFFFFFFFFFFFFFFFFF6
:109A8000FFFFFFFFFFFFFFFFFFFFFFFFFFDFFFDF26
:109A9000FFFFDDF88264AC49706080009001A1C5D1
:109AA000A2C5A162A062A003A803A002A002A00216
:109AB000A802A802A801A001A002A802A000A80074
:109AC000A0008061A1E8DE17FFFEFFFFF7FFFFFFA8
:109AD000FFDFFFFFF7FFFFFFFFFFFFFFFFFFFFFFBE
:109AE000FFFFFFFFFFFFFFFFFFFFFFFFFFFFFFFF86
:109AF000FFFFFFFFFFFFFFFFFFFFFFFFFFFFFFFF76
:109B0000FFFFFFFFFFFFFFFFFFDF8BECC57093CB75
:109B1000180028647B2C8BD2390F28D039933973E5
:109B2000397539553976397639763996399639967F
:109B30003996399639B639B641B741B741B741B7C9
:109B400041B741B741D741D741D741D741D741D795
:109B500041D741D741D741F741F741F841F849F89A
:109B600049F849F849F84A184A184A184A184A1848
:109B70004A184A1849F849F84A184A1841D74A1861
:109B80004A1941D74A1749D720B19CD8FFFFFFFF98
:109B9000FFFFFFFFFFFFFFFFFFFFFFFFFFFFFFFFD5
:109BA000FFFFFFFFFFFFFFFFFFFFFFFFFFFFFFFFC5
:109BB000FFFFFFFFFFFFFFFFFFFFFFFFFFFFFFFFB5
:109BC000FFFFFFFFFFFFFFFFFFFFFFFFFFFFFFFFA5
:109BD000FFFFFFFFFFFFFFFFFFFFFFFFFFFFFFFF95
:109BE000FFFFFFFFFFFFFFFFFFFFFFFFFFFFFFFF85
:109BF000FFFFFFFFFFFFFFFFFFFFFFFFFFFFFFFF75
:109C0000FFFFFFFFFFFFFFFFFFFFFFFFFFFFFFFF64
:109C1000FFFFFFFFFFFFFFFFFFFFFFFFFFFFFFFF54
:109C2000FFFFFFFFFFFFFFFFFFFFFFFFFFFFFFFF44
:109C3000FFFFFFFFFFFFFFFFFFFFFFFFFFFFFFFF34
:109C4000FFFFFFFFFFFFFFFFFFFFFFFFFFFFFFFF24
:109C5000FFFFFFFFFFFFFFFFFFFFFFFFFFFFFFFF14
:109C6000FFFFFFFFFFFFFFFFFFFFFFFFFFFFFFFF04
:109C7000FFFF7A26A426806078209083A286A20324
:109C8000982098019801A002A803A802A802A8029F
:109C9000A802A802A802A802A802A802A802A80175
:109CA000A800A00090008020AAAAEEFAFFDFFFFF24
:109CB000F7FFFFDFFFFFFFFFFFFFFFFFFFFFFFFFDC
:109CC000FFFFFFFFFFFFFFFFFFFFFFFFFFFFFFFFA4
:109CD000FFFFFFFFFFFFFFFFFFFFFFFFFFFFFFFF94
:109CE000FFFFF7FFFFFFFFFFFFFFC5908BAA1800E4
:109CF00030C58B8E7B5130CF31113972315339944D
:109D00003975395539763976397641B73976399694
:109D10003996399639B6399741B741B741B741B706
:109D200041B741B741B741D741D741D741D741D7D3
:109D300041D841D841D849F849F841F841F849F8A3
:109D400049F849F849F849F84A1849F94A184A18A7
:109D50004A184A184A184A184A194A184A1849F813
:109D600041D84A184A174A1741B63132BDBBFFFFE6
:109D7000FFFFFFFFFFFFFFFFFFFFFFFFFFFFFFFFF3
:109D8000FFFFFFFFFFFFFFFFFFFFFFFFFFFFFFFFE3
:109D9000FFFFFFFFFFFFFFFFFFFFFFFFFFFFFFFFD3
:109DA000FFFFFFFFFFFFFFFFFFFFFFFFFFFFFFFFC3
:109DB000FFFFFFFFFFFFFFFFFFFFFFFFFFFFFFFFB3
:109DC000FFFFFFFFFFFFFFFFFFFFFFFFFFFFFFFFA3
:109DD000FFFFFFFFFFFFFFFFFFFFFFFFFFFFFFFF93
:109DE000FFFFFFFFFFFFFFFFFFFFFFFFFFFFFFFF83
:109DF000FFFFFFFFFFFFFFFFFFFFFFFFFFFFFFFF73
:109E0000FFFFFFFFFFFFFFFFFFFFFFFFFFFFFFFF62
:109E1000FFFFFFFFFFFFFFFFFFFFFFFFFFFFFFFF52
:109E2000FFFFFFFFFFFFFFFFFFFFFFFFFFFFFFFF42
:109E3000FFFFFFFFFFFFFFFFFFFFFFFFFFFFFFFF32
:109E4000FFFFFFFFFFFFFFFFFFFFFFFFFFFFFFDF42
:109E5000FFFF9B858964780088A1A2A6A123A000AA
:109E6000A001A803A022A001B001B002B002B0027C
:109E7000B002B002B002B002B022A801A801B00244
:109E8000A802A801A800980088008862C4B2FFFF59
:109E9000FFBFFFFFFFFFFFFFFFFFFFFFFFFFFFFF12
:109EA000FFFFFFFFFFFFFFFFFFFFFFFFFFFFFFFFC2
:109EB000FFFFFFFFFFFFFFFFFFFFFFFFFFFFFFFFB2
:109EC000FFFFFFFFFFFFFFFFA4918BEB180030C4E3
:109ED0008BCD7B10286E393239523994315431553B
:109EE00039553976397639763976399639963996BB
:109EF000399639973997399741B741B741B741B743
:109F000041B741B741B741D841D841D841D841D8EC
:109F100041D841F841F841F841F849F841F849F889
:109F200049F849F849F849F949F949F949F949F924
:109F300049F949F949F949F949F94A1949F84A19D0
:109F40004A194A184A174A1749F741973151DEDE34
:109F5000FFFFFFFFFFFFFFFFFFFFFFFFFFFFFFFF11
:109F6000FFFFFFFFFFFFFFFFFFFFFFFFFFFFFFFF01
:109F7000FFFFFFFFFFFFFFFFFFFFFFFFFFFFFFFFF1
:109F8000FFFFFFFFFFFFFFFFFFFFFFFFFFFFFFFFE1
:109F9000FFFFFFFFFFFFFFFFFFFFFFFFFFFFFFFFD1
:109FA000FFFFFFFFFFFFFFFFFFFFFFFFFFFFFFFFC1
:109FB000FFFFFFFFFFFFFFFFFFFFFFFFFFFFFFFFB1
:109FC000FFFFFFFFFFFFFFFFFFFFFFFFFFFFFFFFA1
:109FD000FFFFFFFFFFFFFFFFFFFFFFFFFFFFFFFF91
:109FE000FFFFFFFFFFFFFFFFFFFFFFFFFFFFFFFF81
:109FF000FFFFFFFFFFFFFFFFFFFFFFFFFFFFFFFF71
:10A00000FFFFFFFFFFFFFFFFFFFFFFFFFFFFFFFF60
:10A01000FFFFFFFFFFFFFFFFFFFFFFFFFFFFFFFF50
:10A02000FFFFFFFFFFFFFFFFFFFFFFFFFFFFFFDF60
:10A03000C5759B0770009863A285A9039800A002CC
:10A04000A003A003A802A801B002B002B002B002AF
:10A05000B002B002B002B002A801B001B001B0017C
:10A06000B001A801A801A821A80198008000A22998
:10A07000EEDAFFFFFFFFFFFFFFFFFFFFFFFFFFFF26
:10A08000FFFFFFFFFFFFFFFFFFFFFFFFFFFFFFFFE0
:10A09000FFFFFFFFFFFFFFFFFFFFFFFFFFFFFFFFD0
:10A0A000FFFFFFFFFFFFAD12A46E180028848B9006
:10A0B00072EF204D39523973315431743975397614
:10A0C00039763976397639963976397639973997B6
:10A0D0003997399739973997399741B741B741B788
:10A0E00041B841B841B841D841D841D841D841D808
:10A0F00041D841D841F841F841D849F841F841F8F0
:10A1000049F849F849F849F949F949F949F949F942
:10A1100049F949F949F949F94A194A194A194A19AB
:10A1200049F94A1941F749F84A1849F73135525364
:10A13000FFDFFFFFFFFFFFFFFFFFFFFFFFFFFFFF4F
:10A14000FFFFFFFFFFFFFFFFFFFFFFFFFFFFFFFF1F
:10A15000FFFFFFFFFFFFFFFFFFFFFFFFFFFFFFFF0F
:10A16000FFFFFFFFFFFFFFFFFFFFFFFFFFFFFFFFFF
:10A17000FFFFFFFFFFFFFFFFFFFFFFFFFFFFFFFFEF
:10A18000FFFFFFFFFFFFFFFFFFFFFFFFFFFFFFFFDF
:10A19000FFFFFFFFFFFFFFFFFFFFFFFFFFFFFFFFCF
:10A1A000FFFFFFFFFFFFFFFFFFFFFFFFFFFFFFFFBF
:10A1B000FFFFFFFFFFFFFFFFFFFFFFFFFFFFFFFFAF
:10A1C000FFFFFFFFFFFFFFFFFFFFFFFFFFFFFFFF9F
:10A1D000FFFFFFFFFFFFFFFFFFFFFFFFFFFFFFFF8F
:10A1E000FFFFFFFFFFFFFFFFFFFFFFFFFFFFFFFF7F
:10A1F000FFFFFFFFFFFFFFFFFFFFFFFFFFFFFFFF6F
:10A20000FFFFFFFFFFFFFFFFFFFFFFFFF7FFCD9403
:10A210009326780190E2A2649802A002A802A80204
:10A22000A802B002B002B002B002B002B002B002A6
